{
  "contractName": "Escrow",
  "abi": [
    {
      "inputs": [
        {
          "internalType": "address",
          "name": "_payer",
          "type": "address"
        },
        {
          "internalType": "address payable",
          "name": "_payee",
          "type": "address"
        },
        {
          "internalType": "uint256",
          "name": "_amount",
          "type": "uint256"
        }
      ],
      "stateMutability": "nonpayable",
      "type": "constructor"
    },
    {
      "inputs": [],
      "name": "amount",
      "outputs": [
        {
          "internalType": "uint256",
          "name": "",
          "type": "uint256"
        }
      ],
      "stateMutability": "view",
      "type": "function",
      "constant": true
    },
    {
      "inputs": [],
      "name": "lawyer",
      "outputs": [
        {
          "internalType": "address",
          "name": "",
          "type": "address"
        }
      ],
      "stateMutability": "view",
      "type": "function",
      "constant": true
    },
    {
      "inputs": [],
      "name": "payee",
      "outputs": [
        {
          "internalType": "address payable",
          "name": "",
          "type": "address"
        }
      ],
      "stateMutability": "view",
      "type": "function",
      "constant": true
    },
    {
      "inputs": [],
      "name": "payer",
      "outputs": [
        {
          "internalType": "address",
          "name": "",
          "type": "address"
        }
      ],
      "stateMutability": "view",
      "type": "function",
      "constant": true
    },
    {
      "inputs": [],
      "name": "deposit",
      "outputs": [],
      "stateMutability": "payable",
      "type": "function",
      "payable": true
    },
    {
      "inputs": [],
      "name": "release",
      "outputs": [],
      "stateMutability": "nonpayable",
      "type": "function"
    },
    {
      "inputs": [],
      "name": "balanceOf",
      "outputs": [
        {
          "internalType": "uint256",
          "name": "",
          "type": "uint256"
        }
      ],
      "stateMutability": "view",
      "type": "function",
      "constant": true
    }
  ],
  "bytecode": "0x608060405234801561001057600080fd5b506040516108c73803806108c783398181016040528101906100329190610142565b826000806101000a81548173ffffffffffffffffffffffffffffffffffffffff021916908373ffffffffffffffffffffffffffffffffffffffff16021790555081600160006101000a81548173ffffffffffffffffffffffffffffffffffffffff021916908373ffffffffffffffffffffffffffffffffffffffff1602179055508060038190555033600260006101000a81548173ffffffffffffffffffffffffffffffffffffffff021916908373ffffffffffffffffffffffffffffffffffffffff160217905550505050610224565b600081519050610112816101df565b92915050565b600081519050610127816101f6565b92915050565b60008151905061013c8161020d565b92915050565b60008060006060848603121561015757600080fd5b600061016586828701610103565b935050602061017686828701610118565b92505060406101878682870161012d565b9150509250925092565b600061019c826101b5565b9050919050565b60006101ae826101b5565b9050919050565b600073ffffffffffffffffffffffffffffffffffffffff82169050919050565b6000819050919050565b6101e881610191565b81146101f357600080fd5b50565b6101ff816101a3565b811461020a57600080fd5b50565b610216816101d5565b811461022157600080fd5b50565b610694806102336000396000f3fe6080604052600436106100705760003560e01c806386d1a69f1161004e57806386d1a69f146100f6578063aa8c217c1461010d578063ae90b21314610138578063d0e30db01461016357610070565b8063123119cd146100755780633bfb6e31146100a0578063722713f7146100cb575b600080fd5b34801561008157600080fd5b5061008a61016d565b604051610097919061052e565b60405180910390f35b3480156100ac57600080fd5b506100b5610191565b6040516100c2919061052e565b60405180910390f35b3480156100d757600080fd5b506100e06101b7565b6040516100ed91906105e4565b60405180910390f35b34801561010257600080fd5b5061010b6101bf565b005b34801561011957600080fd5b50610122610300565b60405161012f91906105e4565b60405180910390f35b34801561014457600080fd5b5061014d610306565b60405161015a9190610549565b60405180910390f35b61016b61032c565b005b60008054906101000a900473ffffffffffffffffffffffffffffffffffffffff1681565b600260009054906101000a900473ffffffffffffffffffffffffffffffffffffffff1681565b600047905090565b600260009054906101000a900473ffffffffffffffffffffffffffffffffffffffff1673ffffffffffffffffffffffffffffffffffffffff163373ffffffffffffffffffffffffffffffffffffffff161461024f576040517f08c379a0000000000000000000000000000000000000000000000000000000008152600401610246906105c4565b60405180910390fd5b6003544714610293576040517f08c379a000000000000000000000000000000000000000000000000000000000815260040161028a906105a4565b60405180910390fd5b600160009054906101000a900473ffffffffffffffffffffffffffffffffffffffff1673ffffffffffffffffffffffffffffffffffffffff166108fc6003549081150290604051600060405180830381858888f193505050501580156102fd573d6000803e3d6000fd5b50565b60035481565b600160009054906101000a900473ffffffffffffffffffffffffffffffffffffffff1681565b60008054906101000a900473ffffffffffffffffffffffffffffffffffffffff1673ffffffffffffffffffffffffffffffffffffffff163373ffffffffffffffffffffffffffffffffffffffff16146103ba576040517f08c379a00000000000000000000000000000000000000000000000000000000081526004016103b190610584565b60405180910390fd5b6003544711156103ff576040517f08c379a00000000000000000000000000000000000000000000000000000000081526004016103f690610564565b60405180910390fd5b565b61040a81610622565b82525050565b61041981610610565b82525050565b600061042c601a836105ff565b91507f546f74616c2076616c7565206578636565647320616d6f756e740000000000006000830152602082019050919050565b600061046c6020836105ff565b91507f4f6e6c79207468652070617965722063616e206465706f7369742066756e64736000830152602082019050919050565b60006104ac6014836105ff565b91507f4e6f742066756c6c792066756e646564207965740000000000000000000000006000830152602082019050919050565b60006104ec601d836105ff565b91507f4f6e6c79206c61777965722063616e2072656c656173652066756e64730000006000830152602082019050919050565b61052881610654565b82525050565b60006020820190506105436000830184610410565b92915050565b600060208201905061055e6000830184610401565b92915050565b6000602082019050818103600083015261057d8161041f565b9050919050565b6000602082019050818103600083015261059d8161045f565b9050919050565b600060208201905081810360008301526105bd8161049f565b9050919050565b600060208201905081810360008301526105dd816104df565b9050919050565b60006020820190506105f9600083018461051f565b92915050565b600082825260208201905092915050565b600061061b82610634565b9050919050565b600061062d82610634565b9050919050565b600073ffffffffffffffffffffffffffffffffffffffff82169050919050565b600081905091905056fea2646970667358221220daa42d9f254ae97863c8adf7081f5627e32880910aec0fa5d6d385fc5db26d6464736f6c63430008000033",
  "immutableReferences": {},
  "source": "// SPDX-License-Identifier: MIT\npragma solidity ^0.8.0;\n\ncontract Escrow {\n    address public payer;\n    address payable public payee;\n    address public lawyer;\n    uint256 public amount;\n\n    constructor(\n        address _payer,\n        address payable _payee,\n        uint256 _amount\n    ) {\n        payer = _payer;\n        payee = _payee;\n        amount = _amount;\n        lawyer = msg.sender;\n    }\n\n    function deposit() public payable {\n        require(msg.sender == payer, \"Only the payer can deposit funds\");\n        require(address(this).balance <= amount, \"Total value exceeds amount\");\n    }\n\n    function release() public {\n        require(msg.sender == lawyer, \"Only lawyer can release funds\");\n        require(address(this).balance == amount, \"Not fully funded yet\");\n\n        payee.transfer(amount);\n    }\n\n    function balanceOf() public view returns (uint256) {\n        return address(this).balance;\n    }\n}\n",
  "sourcePath": "/Users/tc/dev/ethereum_playground/dapp-30/day10-escrow/frontend/contracts/Escrow.sol",
  "compiler": {
    "name": "solc",
    "version": "0.8.0+commit.c7dfd78e.Emscripten.clang"
  },
  "schemaVersion": "3.3.4",
  "updatedAt": "2021-04-02T23:44:54.939Z",
  "networkType": "ethereum",
  "devdoc": {
    "kind": "dev",
    "methods": {},
    "version": 1
  },
  "userdoc": {
    "kind": "user",
    "methods": {},
    "version": 1
  }
}