{
  "_format": "hh-sol-artifact-1",
  "contractName": "QuotePortal",
  "sourceName": "contracts/QuotePortal.sol",
  "abi": [
    {
      "inputs": [],
      "stateMutability": "payable",
      "type": "constructor"
    },
    {
      "anonymous": false,
      "inputs": [
        {
          "indexed": true,
          "internalType": "address",
          "name": "from",
          "type": "address"
        },
        {
          "indexed": false,
          "internalType": "uint256",
          "name": "timestamp",
          "type": "uint256"
        },
        {
          "indexed": false,
          "internalType": "string",
          "name": "message",
          "type": "string"
        }
      ],
      "name": "NewQuote",
      "type": "event"
    },
    {
      "inputs": [],
      "name": "getAllQuotes",
      "outputs": [
        {
          "components": [
            {
              "internalType": "address",
              "name": "author",
              "type": "address"
            },
            {
              "internalType": "uint256",
              "name": "timestamp",
              "type": "uint256"
            },
            {
              "internalType": "string",
              "name": "message",
              "type": "string"
            }
          ],
          "internalType": "struct QuotePortal.Quote[]",
          "name": "",
          "type": "tuple[]"
        }
      ],
      "stateMutability": "view",
      "type": "function"
    },
    {
      "inputs": [],
      "name": "getTotalQuotes",
      "outputs": [
        {
          "internalType": "uint256",
          "name": "",
          "type": "uint256"
        }
      ],
      "stateMutability": "view",
      "type": "function"
    },
    {
      "inputs": [
        {
          "internalType": "address",
          "name": "",
          "type": "address"
        }
      ],
      "name": "lastQuoteAt",
      "outputs": [
        {
          "internalType": "uint256",
          "name": "",
          "type": "uint256"
        }
      ],
      "stateMutability": "view",
      "type": "function"
    },
    {
      "inputs": [
        {
          "internalType": "string",
          "name": "_quote",
          "type": "string"
        }
      ],
      "name": "quote",
      "outputs": [],
      "stateMutability": "nonpayable",
      "type": "function"
    }
  ],
  "bytecode": "0x60a06040526509184e72a0006080908152506200005c6040518060400160405280601981526020017f57652068617665206265656e20636f6e737472756374656421000000000000008152506200006260201b620006be1760201c565b620001f6565b62000102816040516024016200007991906200016f565b6040516020818303038152906040527f41304fac000000000000000000000000000000000000000000000000000000007bffffffffffffffffffffffffffffffffffffffffffffffffffffffff19166020820180517bffffffffffffffffffffffffffffffffffffffffffffffffffffffff83818316178352505050506200010560201b60201c565b50565b60008151905060006a636f6e736f6c652e6c6f679050602083016000808483855afa5050505050565b60006200013b8262000193565b6200014781856200019e565b935062000159818560208601620001af565b6200016481620001e5565b840191505092915050565b600060208201905081810360008301526200018b81846200012e565b905092915050565b600081519050919050565b600082825260208201905092915050565b60005b83811015620001cf578082015181840152602081019050620001b2565b83811115620001df576000848401525b50505050565b6000601f19601f8301169050919050565b6080516111806200021960003960008181610388015261040301526111806000f3fe608060405234801561001057600080fd5b506004361061004c5760003560e01c8063088f0dc2146100515780634c4332ba1461006d5780637b91eb651461008b578063c1b5ae77146100bb575b600080fd5b61006b60048036038101906100669190610a01565b6100d9565b005b61007561050a565b6040516100829190610c6a565b60405180910390f35b6100a560048036038101906100a091906109d8565b61065b565b6040516100b29190610d6e565b60405180910390f35b6100c3610673565b6040516100d09190610d6e565b60405180910390f35b6101186040518060400160405280601581526020017f71756f7465207e206d73672e73656e646572202573000000000000000000000081525033610757565b42601e600360003373ffffffffffffffffffffffffffffffffffffffff1673ffffffffffffffffffffffffffffffffffffffff168152602001908152602001600020546101659190610e80565b106101a5576040517f08c379a000000000000000000000000000000000000000000000000000000000815260040161019c90610d4e565b60405180910390fd5b42600360003373ffffffffffffffffffffffffffffffffffffffff1673ffffffffffffffffffffffffffffffffffffffff16815260200190815260200160002081905550600260405180606001604052803373ffffffffffffffffffffffffffffffffffffffff16815260200142815260200183815250908060018154018082558091505060019003906000526020600020906003020160009091909190915060008201518160000160006101000a81548173ffffffffffffffffffffffffffffffffffffffff021916908373ffffffffffffffffffffffffffffffffffffffff1602179055506020820151816001015560408201518160020190805190602001906102b29291906108b8565b50505060018060008282546102c79190610e80565b925050819055506000606460005442446102e19190610e80565b6102eb9190610e80565b6102f59190610fb7565b90506103366040518060400160405280601681526020017f52616e646f6d20232067656e6572617465643a20257300000000000000000000815250826107f3565b8060008190555060328111156104b6576103856040518060400160405280600781526020017f257320776f6e210000000000000000000000000000000000000000000000000081525033610757565b477f000000000000000000000000000000000000000000000000000000000000000011156103e8576040517f08c379a00000000000000000000000000000000000000000000000000000000081526004016103df90610d0e565b60405180910390fd5b60003373ffffffffffffffffffffffffffffffffffffffff167f000000000000000000000000000000000000000000000000000000000000000060405161042e90610c55565b60006040518083038185875af1925050503d806000811461046b576040519150601f19603f3d011682016040523d82523d6000602084013e610470565b606091505b50509050806104b4576040517f08c379a00000000000000000000000000000000000000000000000000000000081526004016104ab90610d2e565b60405180910390fd5b505b3373ffffffffffffffffffffffffffffffffffffffff167f2dd4ff1f878d3775bba6cf86eda569a8daeeac1afd74d9011ac9a654d23916f642846040516104fe929190610d89565b60405180910390a25050565b60606002805480602002602001604051908101604052809291908181526020016000905b8282101561065257838290600052602060002090600302016040518060600160405290816000820160009054906101000a900473ffffffffffffffffffffffffffffffffffffffff1673ffffffffffffffffffffffffffffffffffffffff1673ffffffffffffffffffffffffffffffffffffffff168152602001600182015481526020016002820180546105c190610f54565b80601f01602080910402602001604051908101604052809291908181526020018280546105ed90610f54565b801561063a5780601f1061060f5761010080835404028352916020019161063a565b820191906000526020600020905b81548152906001019060200180831161061d57829003601f168201915b5050505050815250508152602001906001019061052e565b50505050905090565b60036020528060005260406000206000915090505481565b60006106b66040518060400160405280601f81526020017f676574546f74616c51756f746573207e20746f74616c51756f746573202573008152506001546107f3565b600154905090565b610754816040516024016106d29190610c8c565b6040516020818303038152906040527f41304fac000000000000000000000000000000000000000000000000000000007bffffffffffffffffffffffffffffffffffffffffffffffffffffffff19166020820180517bffffffffffffffffffffffffffffffffffffffffffffffffffffffff838183161783525050505061088f565b50565b6107ef828260405160240161076d929190610cae565b6040516020818303038152906040527f319af333000000000000000000000000000000000000000000000000000000007bffffffffffffffffffffffffffffffffffffffffffffffffffffffff19166020820180517bffffffffffffffffffffffffffffffffffffffffffffffffffffffff838183161783525050505061088f565b5050565b61088b8282604051602401610809929190610cde565b6040516020818303038152906040527f9710a9d0000000000000000000000000000000000000000000000000000000007bffffffffffffffffffffffffffffffffffffffffffffffffffffffff19166020820180517bffffffffffffffffffffffffffffffffffffffffffffffffffffffff838183161783525050505061088f565b5050565b60008151905060006a636f6e736f6c652e6c6f679050602083016000808483855afa5050505050565b8280546108c490610f54565b90600052602060002090601f0160209004810192826108e6576000855561092d565b82601f106108ff57805160ff191683800117855561092d565b8280016001018555821561092d579182015b8281111561092c578251825591602001919060010190610911565b5b50905061093a919061093e565b5090565b5b8082111561095757600081600090555060010161093f565b5090565b600061096e61096984610dde565b610db9565b90508281526020810184848401111561098657600080fd5b610991848285610f12565b509392505050565b6000813590506109a881611133565b92915050565b600082601f8301126109bf57600080fd5b81356109cf84826020860161095b565b91505092915050565b6000602082840312156109ea57600080fd5b60006109f884828501610999565b91505092915050565b600060208284031215610a1357600080fd5b600082013567ffffffffffffffff811115610a2d57600080fd5b610a39848285016109ae565b91505092915050565b6000610a4e8383610be7565b905092915050565b610a5f81610ed6565b82525050565b610a6e81610ed6565b82525050565b6000610a7f82610e1f565b610a898185610e42565b935083602082028501610a9b85610e0f565b8060005b85811015610ad75784840389528151610ab88582610a42565b9450610ac383610e35565b925060208a01995050600181019050610a9f565b50829750879550505050505092915050565b6000610af482610e2a565b610afe8185610e5e565b9350610b0e818560208601610f21565b610b17816110a4565b840191505092915050565b6000610b2d82610e2a565b610b378185610e6f565b9350610b47818560208601610f21565b610b50816110a4565b840191505092915050565b6000610b68601483610e6f565b9150610b73826110b5565b602082019050919050565b6000610b8b602083610e6f565b9150610b96826110de565b602082019050919050565b6000610bae600083610e53565b9150610bb982611107565b600082019050919050565b6000610bd1600f83610e6f565b9150610bdc8261110a565b602082019050919050565b6000606083016000830151610bff6000860182610a56565b506020830151610c126020860182610c37565b5060408301518482036040860152610c2a8282610ae9565b9150508091505092915050565b610c4081610f08565b82525050565b610c4f81610f08565b82525050565b6000610c6082610ba1565b9150819050919050565b60006020820190508181036000830152610c848184610a74565b905092915050565b60006020820190508181036000830152610ca68184610b22565b905092915050565b60006040820190508181036000830152610cc88185610b22565b9050610cd76020830184610a65565b9392505050565b60006040820190508181036000830152610cf88185610b22565b9050610d076020830184610c46565b9392505050565b60006020820190508181036000830152610d2781610b5b565b9050919050565b60006020820190508181036000830152610d4781610b7e565b9050919050565b60006020820190508181036000830152610d6781610bc4565b9050919050565b6000602082019050610d836000830184610c46565b92915050565b6000604082019050610d9e6000830185610c46565b8181036020830152610db08184610b22565b90509392505050565b6000610dc3610dd4565b9050610dcf8282610f86565b919050565b6000604051905090565b600067ffffffffffffffff821115610df957610df8611075565b5b610e02826110a4565b9050602081019050919050565b6000819050602082019050919050565b600081519050919050565b600081519050919050565b6000602082019050919050565b600082825260208201905092915050565b600081905092915050565b600082825260208201905092915050565b600082825260208201905092915050565b6000610e8b82610f08565b9150610e9683610f08565b9250827fffffffffffffffffffffffffffffffffffffffffffffffffffffffffffffffff03821115610ecb57610eca610fe8565b5b828201905092915050565b6000610ee182610ee8565b9050919050565b600073ffffffffffffffffffffffffffffffffffffffff82169050919050565b6000819050919050565b82818337600083830152505050565b60005b83811015610f3f578082015181840152602081019050610f24565b83811115610f4e576000848401525b50505050565b60006002820490506001821680610f6c57607f821691505b60208210811415610f8057610f7f611046565b5b50919050565b610f8f826110a4565b810181811067ffffffffffffffff82111715610fae57610fad611075565b5b80604052505050565b6000610fc282610f08565b9150610fcd83610f08565b925082610fdd57610fdc611017565b5b828206905092915050565b7f4e487b7100000000000000000000000000000000000000000000000000000000600052601160045260246000fd5b7f4e487b7100000000000000000000000000000000000000000000000000000000600052601260045260246000fd5b7f4e487b7100000000000000000000000000000000000000000000000000000000600052602260045260246000fd5b7f4e487b7100000000000000000000000000000000000000000000000000000000600052604160045260246000fd5b6000601f19601f8301169050919050565b7f6f7574206f66207072697a652072657761726473000000000000000000000000600082015250565b7f6661696c656420746f2077697468647261772066726f6d20636f6e7472616374600082015250565b50565b7f77616974203330207365636f6e64730000000000000000000000000000000000600082015250565b61113c81610ed6565b811461114757600080fd5b5056fea26469706673582212207cc9c1514f90c551c506f39046dbb28d858ea21e425e86e506eee316d45af80c64736f6c63430008040033",
  "linkReferences": {},
  "deployedLinkReferences": {}
}