{
  "contractName": "Voting",
  "abi": [
    {
      "inputs": [],
      "stateMutability": "nonpayable",
      "type": "constructor"
    },
    {
      "inputs": [],
      "name": "admin",
      "outputs": [
        {
          "internalType": "address",
          "name": "",
          "type": "address"
        }
      ],
      "stateMutability": "view",
      "type": "function",
      "constant": true
    },
    {
      "inputs": [
        {
          "internalType": "uint256",
          "name": "",
          "type": "uint256"
        }
      ],
      "name": "ballots",
      "outputs": [
        {
          "internalType": "uint256",
          "name": "id",
          "type": "uint256"
        },
        {
          "internalType": "string",
          "name": "name",
          "type": "string"
        },
        {
          "internalType": "uint256",
          "name": "end",
          "type": "uint256"
        }
      ],
      "stateMutability": "view",
      "type": "function",
      "constant": true
    },
    {
      "inputs": [],
      "name": "nextBallotId",
      "outputs": [
        {
          "internalType": "uint256",
          "name": "",
          "type": "uint256"
        }
      ],
      "stateMutability": "view",
      "type": "function",
      "constant": true
    },
    {
      "inputs": [
        {
          "internalType": "address",
          "name": "",
          "type": "address"
        }
      ],
      "name": "voters",
      "outputs": [
        {
          "internalType": "bool",
          "name": "",
          "type": "bool"
        }
      ],
      "stateMutability": "view",
      "type": "function",
      "constant": true
    },
    {
      "inputs": [
        {
          "internalType": "address",
          "name": "",
          "type": "address"
        },
        {
          "internalType": "uint256",
          "name": "",
          "type": "uint256"
        }
      ],
      "name": "votes",
      "outputs": [
        {
          "internalType": "bool",
          "name": "",
          "type": "bool"
        }
      ],
      "stateMutability": "view",
      "type": "function",
      "constant": true
    },
    {
      "inputs": [
        {
          "internalType": "address[]",
          "name": "_voters",
          "type": "address[]"
        }
      ],
      "name": "addVoters",
      "outputs": [],
      "stateMutability": "nonpayable",
      "type": "function"
    },
    {
      "inputs": [
        {
          "internalType": "string",
          "name": "name",
          "type": "string"
        },
        {
          "internalType": "string[]",
          "name": "choices",
          "type": "string[]"
        },
        {
          "internalType": "uint256",
          "name": "offset",
          "type": "uint256"
        }
      ],
      "name": "createBallot",
      "outputs": [],
      "stateMutability": "nonpayable",
      "type": "function"
    },
    {
      "inputs": [
        {
          "internalType": "uint256",
          "name": "ballotId",
          "type": "uint256"
        },
        {
          "internalType": "uint256",
          "name": "choiceId",
          "type": "uint256"
        }
      ],
      "name": "vote",
      "outputs": [],
      "stateMutability": "nonpayable",
      "type": "function"
    },
    {
      "inputs": [
        {
          "internalType": "uint256",
          "name": "ballotId",
          "type": "uint256"
        }
      ],
      "name": "results",
      "outputs": [
        {
          "components": [
            {
              "internalType": "uint256",
              "name": "id",
              "type": "uint256"
            },
            {
              "internalType": "string",
              "name": "name",
              "type": "string"
            },
            {
              "internalType": "uint256",
              "name": "votes",
              "type": "uint256"
            }
          ],
          "internalType": "struct Voting.Choice[]",
          "name": "",
          "type": "tuple[]"
        }
      ],
      "stateMutability": "view",
      "type": "function",
      "constant": true
    },
    {
      "inputs": [
        {
          "internalType": "uint256",
          "name": "ballotId",
          "type": "uint256"
        }
      ],
      "name": "getBallot",
      "outputs": [
        {
          "components": [
            {
              "internalType": "uint256",
              "name": "id",
              "type": "uint256"
            },
            {
              "internalType": "string",
              "name": "name",
              "type": "string"
            },
            {
              "internalType": "uint256",
              "name": "end",
              "type": "uint256"
            },
            {
              "components": [
                {
                  "internalType": "uint256",
                  "name": "id",
                  "type": "uint256"
                },
                {
                  "internalType": "string",
                  "name": "name",
                  "type": "string"
                },
                {
                  "internalType": "uint256",
                  "name": "votes",
                  "type": "uint256"
                }
              ],
              "internalType": "struct Voting.Choice[]",
              "name": "choices",
              "type": "tuple[]"
            }
          ],
          "internalType": "struct Voting.Ballot",
          "name": "",
          "type": "tuple"
        }
      ],
      "stateMutability": "view",
      "type": "function",
      "constant": true
    }
  ],
  "bytecode": "0x608060405234801561001057600080fd5b5033600460006101000a81548173ffffffffffffffffffffffffffffffffffffffff021916908373ffffffffffffffffffffffffffffffffffffffff1602179055506118d4806100616000396000f3fe608060405234801561001057600080fd5b506004361061009e5760003560e01c8063a3ec138d11610066578063a3ec138d1461016d578063b384abef1461019d578063dc6bfbb5146101b9578063f851a440146101d7578063f9d5ee75146101f55761009e565b80631b0c27da146100a357806320faae8e146100d35780635c632b38146100ef5780638203373a146101215780639f2524ee1461013d575b600080fd5b6100bd60048036038101906100b89190610fcf565b610225565b6040516100ca919061141b565b60405180910390f35b6100ed60048036038101906100e89190610f50565b610399565b005b61010960048036038101906101049190610fcf565b6105aa565b60405161011893929190611535565b60405180910390f35b61013b60048036038101906101369190610f0b565b61065c565b005b61015760048036038101906101529190610ecf565b6107b6565b604051610164919061143d565b60405180910390f35b61018760048036038101906101829190610ea6565b6107e5565b604051610194919061143d565b60405180910390f35b6101b760048036038101906101b29190610ff8565b610805565b005b6101c1610a74565b6040516101ce919061151a565b60405180910390f35b6101df610a7a565b6040516101ec9190611400565b60405180910390f35b61020f600480360381019061020a9190610fcf565b610aa0565b60405161021c91906114f8565b60405180910390f35b60606002600083815260200190815260200160002060020154421015610280576040517f08c379a0000000000000000000000000000000000000000000000000000000008152600401610277906114b8565b60405180910390fd5b60026000838152602001908152602001600020600301805480602002602001604051908101604052809291908181526020016000905b8282101561038e5783829060005260206000209060030201604051806060016040529081600082015481526020016001820180546102f390611757565b80601f016020809104026020016040519081016040528092919081815260200182805461031f90611757565b801561036c5780601f106103415761010080835404028352916020019161036c565b820191906000526020600020905b81548152906001019060200180831161034f57829003601f168201915b50505050508152602001600282015481525050815260200190600101906102b6565b505050509050919050565b600460009054906101000a900473ffffffffffffffffffffffffffffffffffffffff1673ffffffffffffffffffffffffffffffffffffffff163373ffffffffffffffffffffffffffffffffffffffff1614610429576040517f08c379a0000000000000000000000000000000000000000000000000000000008152600401610420906114d8565b60405180910390fd5b60035460026000600354815260200190815260200160002060000181905550826002600060035481526020019081526020016000206001019080519060200190610474929190610c78565b5080426104819190611677565b6002600060035481526020019081526020016000206002018190555060005b825181101561058c57600260006003548152602001908152602001600020600301604051806060016040528083815260200185848151811061050b577f4e487b7100000000000000000000000000000000000000000000000000000000600052603260045260246000fd5b602002602001015181526020016000815250908060018154018082558091505060019003906000526020600020906003020160009091909190915060008201518160000155602082015181600101908051906020019061056c929190610c78565b50604082015181600201555050808061058490611789565b9150506104a0565b50600360008154809291906105a090611789565b9190505550505050565b60026020528060005260406000206000915090508060000154908060010180546105d390611757565b80601f01602080910402602001604051908101604052809291908181526020018280546105ff90611757565b801561064c5780601f106106215761010080835404028352916020019161064c565b820191906000526020600020905b81548152906001019060200180831161062f57829003601f168201915b5050505050908060020154905083565b600460009054906101000a900473ffffffffffffffffffffffffffffffffffffffff1673ffffffffffffffffffffffffffffffffffffffff163373ffffffffffffffffffffffffffffffffffffffff16146106ec576040517f08c379a00000000000000000000000000000000000000000000000000000000081526004016106e3906114d8565b60405180910390fd5b60005b828290508110156107b1576001600080858585818110610738577f4e487b7100000000000000000000000000000000000000000000000000000000600052603260045260246000fd5b905060200201602081019061074d9190610ea6565b73ffffffffffffffffffffffffffffffffffffffff1673ffffffffffffffffffffffffffffffffffffffff16815260200190815260200160002060006101000a81548160ff02191690831515021790555080806107a990611789565b9150506106ef565b505050565b60016020528160005260406000206020528060005260406000206000915091509054906101000a900460ff1681565b60006020528060005260406000206000915054906101000a900460ff1681565b600115156000803373ffffffffffffffffffffffffffffffffffffffff1673ffffffffffffffffffffffffffffffffffffffff16815260200190815260200160002060009054906101000a900460ff16151514610897576040517f08c379a000000000000000000000000000000000000000000000000000000000815260040161088e90611458565b60405180910390fd5b60001515600160003373ffffffffffffffffffffffffffffffffffffffff1673ffffffffffffffffffffffffffffffffffffffff168152602001908152602001600020600084815260200190815260200160002060009054906101000a900460ff1615151461093b576040517f08c379a000000000000000000000000000000000000000000000000000000000815260040161093290611478565b60405180910390fd5b60026000838152602001908152602001600020600201544210610993576040517f08c379a000000000000000000000000000000000000000000000000000000000815260040161098a90611498565b60405180910390fd5b60018060003373ffffffffffffffffffffffffffffffffffffffff1673ffffffffffffffffffffffffffffffffffffffff168152602001908152602001600020600084815260200190815260200160002060006101000a81548160ff021916908315150217905550600260008381526020019081526020016000206003018181548110610a49577f4e487b7100000000000000000000000000000000000000000000000000000000600052603260045260246000fd5b90600052602060002090600302016002016000815480929190610a6b90611789565b91905055505050565b60035481565b600460009054906101000a900473ffffffffffffffffffffffffffffffffffffffff1681565b610aa8610cfe565b6002600083815260200190815260200160002060405180608001604052908160008201548152602001600182018054610ae090611757565b80601f0160208091040260200160405190810160405280929190818152602001828054610b0c90611757565b8015610b595780601f10610b2e57610100808354040283529160200191610b59565b820191906000526020600020905b815481529060010190602001808311610b3c57829003601f168201915b505050505081526020016002820154815260200160038201805480602002602001604051908101604052809291908181526020016000905b82821015610c69578382906000526020600020906003020160405180606001604052908160008201548152602001600182018054610bce90611757565b80601f0160208091040260200160405190810160405280929190818152602001828054610bfa90611757565b8015610c475780601f10610c1c57610100808354040283529160200191610c47565b820191906000526020600020905b815481529060010190602001808311610c2a57829003601f168201915b5050505050815260200160028201548152505081526020019060010190610b91565b50505050815250509050919050565b828054610c8490611757565b90600052602060002090601f016020900481019282610ca65760008555610ced565b82601f10610cbf57805160ff1916838001178555610ced565b82800160010185558215610ced579182015b82811115610cec578251825591602001919060010190610cd1565b5b509050610cfa9190610d26565b5090565b6040518060800160405280600081526020016060815260200160008152602001606081525090565b5b80821115610d3f576000816000905550600101610d27565b5090565b6000610d56610d51846115a4565b611573565b9050808382526020820190508260005b85811015610d965781358501610d7c8882610e67565b845260208401935060208301925050600181019050610d66565b5050509392505050565b6000610db3610dae846115d0565b611573565b905082815260208101848484011115610dcb57600080fd5b610dd6848285611715565b509392505050565b600081359050610ded81611870565b92915050565b60008083601f840112610e0557600080fd5b8235905067ffffffffffffffff811115610e1e57600080fd5b602083019150836020820283011115610e3657600080fd5b9250929050565b600082601f830112610e4e57600080fd5b8135610e5e848260208601610d43565b91505092915050565b600082601f830112610e7857600080fd5b8135610e88848260208601610da0565b91505092915050565b600081359050610ea081611887565b92915050565b600060208284031215610eb857600080fd5b6000610ec684828501610dde565b91505092915050565b60008060408385031215610ee257600080fd5b6000610ef085828601610dde565b9250506020610f0185828601610e91565b9150509250929050565b60008060208385031215610f1e57600080fd5b600083013567ffffffffffffffff811115610f3857600080fd5b610f4485828601610df3565b92509250509250929050565b600080600060608486031215610f6557600080fd5b600084013567ffffffffffffffff811115610f7f57600080fd5b610f8b86828701610e67565b935050602084013567ffffffffffffffff811115610fa857600080fd5b610fb486828701610e3d565b9250506040610fc586828701610e91565b9150509250925092565b600060208284031215610fe157600080fd5b6000610fef84828501610e91565b91505092915050565b6000806040838503121561100b57600080fd5b600061101985828601610e91565b925050602061102a85828601610e91565b9150509250929050565b60006110408383611392565b905092915050565b611051816116cd565b82525050565b600061106282611610565b61106c8185611633565b93508360208202850161107e85611600565b8060005b858110156110ba578484038952815161109b8582611034565b94506110a683611626565b925060208a01995050600181019050611082565b50829750879550505050505092915050565b60006110d782611610565b6110e18185611644565b9350836020820285016110f385611600565b8060005b8581101561112f57848403895281516111108582611034565b945061111b83611626565b925060208a019950506001810190506110f7565b50829750879550505050505092915050565b61114a816116df565b82525050565b600061115b8261161b565b6111658185611655565b9350611175818560208601611724565b61117e8161185f565b840191505092915050565b60006111948261161b565b61119e8185611666565b93506111ae818560208601611724565b6111b78161185f565b840191505092915050565b60006111cf601d83611666565b91507f4f6e6c7920617070726f76656420766f746572732063616e20766f74650000006000830152602082019050919050565b600061120f600d83611666565b91507f416c726561647920766f746564000000000000000000000000000000000000006000830152602082019050919050565b600061124f601083611666565b91507f566f74696e672068617320656e646564000000000000000000000000000000006000830152602082019050919050565b600061128f602e83611666565b91507f43616e6e6f74207365652074686520726573756c7473206265666f726520766f60008301527f74696e672068617320656e6465640000000000000000000000000000000000006020830152604082019050919050565b60006112f5600e83611666565b91507f4e6f7420617574686f72697a65640000000000000000000000000000000000006000830152602082019050919050565b600060808301600083015161134060008601826113e2565b50602083015184820360208601526113588282611150565b915050604083015161136d60408601826113e2565b50606083015184820360608601526113858282611057565b9150508091505092915050565b60006060830160008301516113aa60008601826113e2565b50602083015184820360208601526113c28282611150565b91505060408301516113d760408601826113e2565b508091505092915050565b6113eb8161170b565b82525050565b6113fa8161170b565b82525050565b60006020820190506114156000830184611048565b92915050565b6000602082019050818103600083015261143581846110cc565b905092915050565b60006020820190506114526000830184611141565b92915050565b60006020820190508181036000830152611471816111c2565b9050919050565b6000602082019050818103600083015261149181611202565b9050919050565b600060208201905081810360008301526114b181611242565b9050919050565b600060208201905081810360008301526114d181611282565b9050919050565b600060208201905081810360008301526114f1816112e8565b9050919050565b600060208201905081810360008301526115128184611328565b905092915050565b600060208201905061152f60008301846113f1565b92915050565b600060608201905061154a60008301866113f1565b818103602083015261155c8185611189565b905061156b60408301846113f1565b949350505050565b6000604051905081810181811067ffffffffffffffff8211171561159a57611599611830565b5b8060405250919050565b600067ffffffffffffffff8211156115bf576115be611830565b5b602082029050602081019050919050565b600067ffffffffffffffff8211156115eb576115ea611830565b5b601f19601f8301169050602081019050919050565b6000819050602082019050919050565b600081519050919050565b600081519050919050565b6000602082019050919050565b600082825260208201905092915050565b600082825260208201905092915050565b600082825260208201905092915050565b600082825260208201905092915050565b60006116828261170b565b915061168d8361170b565b9250827fffffffffffffffffffffffffffffffffffffffffffffffffffffffffffffffff038211156116c2576116c16117d2565b5b828201905092915050565b60006116d8826116eb565b9050919050565b60008115159050919050565b600073ffffffffffffffffffffffffffffffffffffffff82169050919050565b6000819050919050565b82818337600083830152505050565b60005b83811015611742578082015181840152602081019050611727565b83811115611751576000848401525b50505050565b6000600282049050600182168061176f57607f821691505b6020821081141561178357611782611801565b5b50919050565b60006117948261170b565b91507fffffffffffffffffffffffffffffffffffffffffffffffffffffffffffffffff8214156117c7576117c66117d2565b5b600182019050919050565b7f4e487b7100000000000000000000000000000000000000000000000000000000600052601160045260246000fd5b7f4e487b7100000000000000000000000000000000000000000000000000000000600052602260045260246000fd5b7f4e487b7100000000000000000000000000000000000000000000000000000000600052604160045260246000fd5b6000601f19601f8301169050919050565b611879816116cd565b811461188457600080fd5b50565b6118908161170b565b811461189b57600080fd5b5056fea264697066735822122034b4cc2d865b3bb2f9b23d7dcda6b98d64bbbe0035b9b9556662586a8cddce2564736f6c63430008000033",
  "immutableReferences": {},
  "source": "// SPDX-License-Identifier: MIT\npragma solidity ^0.8.0;\n\n/// @title Voting\ncontract Voting {\n    // Approved voters\n    mapping(address => bool) public voters;\n    // voter => ballotId => voted?\n    mapping(address => mapping(uint256 => bool)) public votes;\n\n    struct Choice {\n        uint256 id;\n        string name;\n        uint256 votes;\n    }\n    struct Ballot {\n        uint256 id;\n        string name;\n        uint256 end; // end timestamp\n        Choice[] choices;\n    }\n    mapping(uint256 => Ballot) public ballots;\n    uint256 public nextBallotId;\n\n    address public admin;\n\n    constructor() {\n        admin = msg.sender;\n    }\n\n    /// @notice Add addresses to list of approved voters\n    function addVoters(address[] calldata _voters) external onlyAdmin() {\n        for (uint256 i = 0; i < _voters.length; i++) {\n            voters[_voters[i]] = true;\n        }\n    }\n\n    /// @notice Create a new ballot\n    function createBallot(\n        string memory name,\n        string[] memory choices,\n        uint256 offset\n    ) public onlyAdmin() {\n        ballots[nextBallotId].id = nextBallotId;\n        ballots[nextBallotId].name = name;\n        ballots[nextBallotId].end = block.timestamp + offset;\n\n        for (uint256 i = 0; i < choices.length; i++) {\n            ballots[nextBallotId].choices.push(Choice(i, choices[i], 0));\n        }\n\n        nextBallotId++;\n    }\n\n    /// @notice Vote for ballot's choice\n    function vote(uint256 ballotId, uint256 choiceId) external {\n        require(voters[msg.sender] == true, \"Only approved voters can vote\");\n        require(votes[msg.sender][ballotId] == false, \"Already voted\");\n        require(block.timestamp < ballots[ballotId].end, \"Voting has ended\");\n\n        votes[msg.sender][ballotId] = true;\n        ballots[ballotId].choices[choiceId].votes++;\n    }\n\n    ///@notice Get the results of a ballot\n    function results(uint256 ballotId) external view returns (Choice[] memory) {\n        require(\n            block.timestamp >= ballots[ballotId].end,\n            \"Cannot see the results before voting has ended\"\n        );\n\n        return ballots[ballotId].choices;\n    }\n\n    ///@notice Get a ballot details\n    function getBallot(uint256 ballotId) external view returns (Ballot memory) {\n        return ballots[ballotId];\n    }\n\n    modifier onlyAdmin() {\n        require(msg.sender == admin, \"Not authorized\");\n        _;\n    }\n}\n",
  "sourcePath": "/Users/tc/dev/ethereum_playground/dapp-30/day14-voting/contracts/Voting.sol",
  "compiler": {
    "name": "solc",
    "version": "0.8.0+commit.c7dfd78e.Emscripten.clang"
  },
  "schemaVersion": "3.3.4",
  "updatedAt": "2021-04-21T12:33:35.748Z",
  "networkType": "ethereum",
  "devdoc": {
    "kind": "dev",
    "methods": {},
    "title": "Voting",
    "version": 1
  },
  "userdoc": {
    "kind": "user",
    "methods": {
      "addVoters(address[])": {
        "notice": "Add addresses to list of approved voters"
      },
      "createBallot(string,string[],uint256)": {
        "notice": "Create a new ballot"
      },
      "getBallot(uint256)": {
        "notice": "Get a ballot details"
      },
      "results(uint256)": {
        "notice": "Get the results of a ballot"
      },
      "vote(uint256,uint256)": {
        "notice": "Vote for ballot's choice"
      }
    },
    "version": 1
  }
}