{
  "contractName": "Multisig",
  "abi": [
    {
      "inputs": [
        {
          "internalType": "address[]",
          "name": "_approvers",
          "type": "address[]"
        },
        {
          "internalType": "uint256",
          "name": "_quorum",
          "type": "uint256"
        }
      ],
      "stateMutability": "payable",
      "type": "constructor",
      "payable": true
    },
    {
      "inputs": [
        {
          "internalType": "address",
          "name": "",
          "type": "address"
        },
        {
          "internalType": "uint64",
          "name": "",
          "type": "uint64"
        }
      ],
      "name": "approvals",
      "outputs": [
        {
          "internalType": "bool",
          "name": "",
          "type": "bool"
        }
      ],
      "stateMutability": "view",
      "type": "function",
      "constant": true
    },
    {
      "inputs": [
        {
          "internalType": "uint256",
          "name": "",
          "type": "uint256"
        }
      ],
      "name": "approvers",
      "outputs": [
        {
          "internalType": "address",
          "name": "",
          "type": "address"
        }
      ],
      "stateMutability": "view",
      "type": "function",
      "constant": true
    },
    {
      "inputs": [],
      "name": "nextId",
      "outputs": [
        {
          "internalType": "uint64",
          "name": "",
          "type": "uint64"
        }
      ],
      "stateMutability": "view",
      "type": "function",
      "constant": true
    },
    {
      "inputs": [],
      "name": "quorum",
      "outputs": [
        {
          "internalType": "uint256",
          "name": "",
          "type": "uint256"
        }
      ],
      "stateMutability": "view",
      "type": "function",
      "constant": true
    },
    {
      "inputs": [
        {
          "internalType": "uint256",
          "name": "",
          "type": "uint256"
        }
      ],
      "name": "transfers",
      "outputs": [
        {
          "internalType": "uint64",
          "name": "id",
          "type": "uint64"
        },
        {
          "internalType": "uint256",
          "name": "amount",
          "type": "uint256"
        },
        {
          "internalType": "address payable",
          "name": "to",
          "type": "address"
        },
        {
          "internalType": "uint8",
          "name": "approvals",
          "type": "uint8"
        },
        {
          "internalType": "bool",
          "name": "isSent",
          "type": "bool"
        }
      ],
      "stateMutability": "view",
      "type": "function",
      "constant": true
    },
    {
      "inputs": [
        {
          "internalType": "uint256",
          "name": "amount",
          "type": "uint256"
        },
        {
          "internalType": "address payable",
          "name": "to",
          "type": "address"
        }
      ],
      "name": "createTransfer",
      "outputs": [],
      "stateMutability": "nonpayable",
      "type": "function"
    },
    {
      "inputs": [
        {
          "internalType": "uint64",
          "name": "id",
          "type": "uint64"
        }
      ],
      "name": "sendTransfer",
      "outputs": [],
      "stateMutability": "nonpayable",
      "type": "function"
    }
  ],
  "bytecode": "0x60806040526000600360006101000a81548167ffffffffffffffff021916908367ffffffffffffffff160217905550604051620011a7380380620011a78339818101604052810190620000539190620001f9565b81600090805190602001906200006b9291906200007b565b5080600181905550505062000357565b828054828255906000526020600020908101928215620000f7579160200282015b82811115620000f65782518260006101000a81548173ffffffffffffffffffffffffffffffffffffffff021916908373ffffffffffffffffffffffffffffffffffffffff160217905550916020019190600101906200009c565b5b5090506200010691906200010a565b5090565b5b80821115620001255760008160009055506001016200010b565b5090565b6000620001406200013a8462000287565b62000253565b905080838252602082019050828560208602820111156200016057600080fd5b60005b858110156200019457816200017988826200019e565b84526020840193506020830192505060018101905062000163565b5050509392505050565b600081519050620001af8162000323565b92915050565b600082601f830112620001c757600080fd5b8151620001d984826020860162000129565b91505092915050565b600081519050620001f3816200033d565b92915050565b600080604083850312156200020d57600080fd5b600083015167ffffffffffffffff8111156200022857600080fd5b6200023685828601620001b5565b92505060206200024985828601620001e2565b9150509250929050565b6000604051905081810181811067ffffffffffffffff821117156200027d576200027c620002f4565b5b8060405250919050565b600067ffffffffffffffff821115620002a557620002a4620002f4565b5b602082029050602081019050919050565b6000620002c382620002ca565b9050919050565b600073ffffffffffffffffffffffffffffffffffffffff82169050919050565b6000819050919050565b7f4e487b7100000000000000000000000000000000000000000000000000000000600052604160045260246000fd5b6200032e81620002b6565b81146200033a57600080fd5b50565b6200034881620002ea565b81146200035457600080fd5b50565b610e4080620003676000396000f3fe608060405234801561001057600080fd5b506004361061007d5760003560e01c80638c27cfba1161005b5780638c27cfba146100da5780639377d711146100f6578063c6f2f27d1461012a578063d3650fb81461015a5761007d565b80631703a018146100825780634c12fa47146100a057806361b8ce8c146100bc575b600080fd5b61008a61018a565b6040516100979190610bc6565b60405180910390f35b6100ba60048036038101906100b59190610a11565b610190565b005b6100c461044a565b6040516100d19190610be1565b60405180910390f35b6100f460048036038101906100ef9190610a4d565b610464565b005b610110600480360381019061010b91906109e8565b610866565b604051610121959493929190610bfc565b60405180910390f35b610144600480360381019061013f91906109ac565b6108ea565b6040516101519190610b6b565b60405180910390f35b610174600480360381019061016f91906109e8565b610919565b6040516101819190610b50565b60405180910390f35b60015481565b6000805b600080549050811015610255573373ffffffffffffffffffffffffffffffffffffffff16600082815481106101f2577f4e487b7100000000000000000000000000000000000000000000000000000000600052603260045260246000fd5b9060005260206000200160009054906101000a900473ffffffffffffffffffffffffffffffffffffffff1673ffffffffffffffffffffffffffffffffffffffff1614156102425760019150610255565b808061024d90610cdb565b915050610194565b50600115158115151461029d576040517f08c379a000000000000000000000000000000000000000000000000000000000815260040161029490610b86565b60405180910390fd5b6040518060a00160405280600360009054906101000a900467ffffffffffffffff1667ffffffffffffffff1681526020018481526020018373ffffffffffffffffffffffffffffffffffffffff168152602001600060ff1681526020016000151581525060026000600360009054906101000a900467ffffffffffffffff1667ffffffffffffffff16815260200190815260200160002060008201518160000160006101000a81548167ffffffffffffffff021916908367ffffffffffffffff1602179055506020820151816001015560408201518160020160006101000a81548173ffffffffffffffffffffffffffffffffffffffff021916908373ffffffffffffffffffffffffffffffffffffffff16021790555060608201518160020160146101000a81548160ff021916908360ff16021790555060808201518160020160156101000a81548160ff0219169083151502179055509050506003600081819054906101000a900467ffffffffffffffff168092919061041e90610d24565b91906101000a81548167ffffffffffffffff021916908367ffffffffffffffff16021790555050505050565b600360009054906101000a900467ffffffffffffffff1681565b6000805b600080549050811015610529573373ffffffffffffffffffffffffffffffffffffffff16600082815481106104c6577f4e487b7100000000000000000000000000000000000000000000000000000000600052603260045260246000fd5b9060005260206000200160009054906101000a900473ffffffffffffffffffffffffffffffffffffffff1673ffffffffffffffffffffffffffffffffffffffff1614156105165760019150610529565b808061052190610cdb565b915050610468565b506001151581151514610571576040517f08c379a000000000000000000000000000000000000000000000000000000000815260040161056890610b86565b60405180910390fd5b60001515600260008467ffffffffffffffff16815260200190815260200160002060020160159054906101000a900460ff161515146105e5576040517f08c379a00000000000000000000000000000000000000000000000000000000081526004016105dc90610ba6565b60405180910390fd5b60001515600460003373ffffffffffffffffffffffffffffffffffffffff1673ffffffffffffffffffffffffffffffffffffffff16815260200190815260200160002060008467ffffffffffffffff1667ffffffffffffffff16815260200190815260200160002060009054906101000a900460ff1615151415610737576001600460003373ffffffffffffffffffffffffffffffffffffffff1673ffffffffffffffffffffffffffffffffffffffff16815260200190815260200160002060008467ffffffffffffffff1667ffffffffffffffff16815260200190815260200160002060006101000a81548160ff021916908315150217905550600260008367ffffffffffffffff168152602001908152602001600020600201601481819054906101000a900460ff168092919061071d90610d55565b91906101000a81548160ff021916908360ff160217905550505b600154600260008467ffffffffffffffff16815260200190815260200160002060020160149054906101000a900460ff1660ff1610610861576001600260008467ffffffffffffffff16815260200190815260200160002060020160156101000a81548160ff0219169083151502179055506000600260008467ffffffffffffffff16815260200190815260200160002060020160009054906101000a900473ffffffffffffffffffffffffffffffffffffffff1690506000600260008567ffffffffffffffff1681526020019081526020016000206001015490508173ffffffffffffffffffffffffffffffffffffffff166108fc829081150290604051600060405180830381858888f19350505050158015610859573d6000803e3d6000fd5b505050610862565b5b5050565b60026020528060005260406000206000915090508060000160009054906101000a900467ffffffffffffffff16908060010154908060020160009054906101000a900473ffffffffffffffffffffffffffffffffffffffff16908060020160149054906101000a900460ff16908060020160159054906101000a900460ff16905085565b60046020528160005260406000206020528060005260406000206000915091509054906101000a900460ff1681565b6000818154811061092957600080fd5b906000526020600020016000915054906101000a900473ffffffffffffffffffffffffffffffffffffffff1681565b60008135905061096781610dae565b92915050565b60008135905061097c81610dc5565b92915050565b60008135905061099181610ddc565b92915050565b6000813590506109a681610df3565b92915050565b600080604083850312156109bf57600080fd5b60006109cd85828601610958565b92505060206109de85828601610997565b9150509250929050565b6000602082840312156109fa57600080fd5b6000610a0884828501610982565b91505092915050565b60008060408385031215610a2457600080fd5b6000610a3285828601610982565b9250506020610a438582860161096d565b9150509250929050565b600060208284031215610a5f57600080fd5b6000610a6d84828501610997565b91505092915050565b610a7f81610c72565b82525050565b610a8e81610c60565b82525050565b610a9d81610c84565b82525050565b6000610ab0601583610c4f565b91507f4f6e6c7920617070726f76657220616c6c6f77656400000000000000000000006000830152602082019050919050565b6000610af0601e83610c4f565b91507f5472616e736665722068617320616c7265616479206265656e2073656e7400006000830152602082019050919050565b610b2c81610cb0565b82525050565b610b3b81610cba565b82525050565b610b4a81610cce565b82525050565b6000602082019050610b656000830184610a85565b92915050565b6000602082019050610b806000830184610a94565b92915050565b60006020820190508181036000830152610b9f81610aa3565b9050919050565b60006020820190508181036000830152610bbf81610ae3565b9050919050565b6000602082019050610bdb6000830184610b23565b92915050565b6000602082019050610bf66000830184610b32565b92915050565b600060a082019050610c116000830188610b32565b610c1e6020830187610b23565b610c2b6040830186610a76565b610c386060830185610b41565b610c456080830184610a94565b9695505050505050565b600082825260208201905092915050565b6000610c6b82610c90565b9050919050565b6000610c7d82610c90565b9050919050565b60008115159050919050565b600073ffffffffffffffffffffffffffffffffffffffff82169050919050565b6000819050919050565b600067ffffffffffffffff82169050919050565b600060ff82169050919050565b6000610ce682610cb0565b91507fffffffffffffffffffffffffffffffffffffffffffffffffffffffffffffffff821415610d1957610d18610d7f565b5b600182019050919050565b6000610d2f82610cba565b915067ffffffffffffffff821415610d4a57610d49610d7f565b5b600182019050919050565b6000610d6082610cce565b915060ff821415610d7457610d73610d7f565b5b600182019050919050565b7f4e487b7100000000000000000000000000000000000000000000000000000000600052601160045260246000fd5b610db781610c60565b8114610dc257600080fd5b50565b610dce81610c72565b8114610dd957600080fd5b50565b610de581610cb0565b8114610df057600080fd5b50565b610dfc81610cba565b8114610e0757600080fd5b5056fea2646970667358221220e3d62109561a5c2f547a89b9e6ad2ffcc976037bb60040bc4c20120f4f69c6df64736f6c63430008000033",
  "immutableReferences": {},
  "source": "// SPDX-License-Identifier: MIT\npragma solidity ^0.8.0;\n\n/// @title Basic Multisig wallet\ncontract Multisig {\n    address[] public approvers;\n    uint256 public quorum;\n    mapping(uint256 => Transfer) public transfers;\n    uint64 public nextId = 0;\n    // approver => (nextId => isSent)\n    mapping(address => mapping(uint64 => bool)) public approvals;\n\n    struct Transfer {\n        uint64 id;\n        uint256 amount;\n        address payable to;\n        uint8 approvals;\n        bool isSent;\n    }\n\n    constructor(address[] memory _approvers, uint256 _quorum) payable {\n        approvers = _approvers;\n        quorum = _quorum;\n    }\n\n    /// @notice Transfer step 1/2: create a pending transfer for the approvers to approve\n    function createTransfer(uint256 amount, address payable to)\n        external\n        onlyApprover()\n    {\n        transfers[nextId] = Transfer(nextId, amount, to, 0, false);\n\n        nextId++;\n    }\n\n    /// @notice Transfer step 2/2: approval a transfer and sent if the quorum has been reached\n    function sendTransfer(uint64 id) external onlyApprover() {\n        require(\n            transfers[id].isSent == false,\n            \"Transfer has already been sent\"\n        );\n\n        if (approvals[msg.sender][id] == false) {\n            approvals[msg.sender][id] = true;\n            transfers[id].approvals++;\n        }\n\n        if (transfers[id].approvals >= quorum) {\n            transfers[id].isSent = true;\n            address payable to = transfers[id].to;\n            uint256 amount = transfers[id].amount;\n            to.transfer(amount);\n            return;\n        }\n    }\n\n    modifier onlyApprover() {\n        bool isAllowed = false;\n\n        for (uint256 i = 0; i < approvers.length; i++) {\n            if (approvers[i] == msg.sender) {\n                isAllowed = true;\n                break;\n            }\n        }\n\n        require(isAllowed == true, \"Only approver allowed\");\n        _;\n    }\n}\n",
  "sourcePath": "/Users/tc/dev/ethereum_playground/dapp-30/day13-multisig-wallet/contracts/Multisig.sol",
  "compiler": {
    "name": "solc",
    "version": "0.8.0+commit.c7dfd78e.Emscripten.clang"
  },
  "schemaVersion": "3.3.4",
  "updatedAt": "2021-04-13T12:38:10.613Z",
  "networkType": "ethereum",
  "devdoc": {
    "kind": "dev",
    "methods": {},
    "title": "Basic Multisig wallet",
    "version": 1
  },
  "userdoc": {
    "kind": "user",
    "methods": {
      "createTransfer(uint256,address)": {
        "notice": "Transfer step 1/2: create a pending transfer for the approvers to approve"
      },
      "sendTransfer(uint64)": {
        "notice": "Transfer step 2/2: approval a transfer and sent if the quorum has been reached"
      }
    },
    "version": 1
  }
}