{
  "_format": "hh-sol-artifact-1",
  "contractName": "EpicGame",
  "sourceName": "contracts/EpicGame.sol",
  "abi": [
    {
      "inputs": [
        {
          "internalType": "string[]",
          "name": "characterNames",
          "type": "string[]"
        },
        {
          "internalType": "string[]",
          "name": "characterImageURIs",
          "type": "string[]"
        },
        {
          "internalType": "uint256[]",
          "name": "characterHp",
          "type": "uint256[]"
        },
        {
          "internalType": "uint256[]",
          "name": "characterAttackDamage",
          "type": "uint256[]"
        },
        {
          "internalType": "string",
          "name": "bossName",
          "type": "string"
        },
        {
          "internalType": "string",
          "name": "bossImageURI",
          "type": "string"
        },
        {
          "internalType": "uint256",
          "name": "bossHp",
          "type": "uint256"
        },
        {
          "internalType": "uint256",
          "name": "bossAttackDamage",
          "type": "uint256"
        }
      ],
      "stateMutability": "nonpayable",
      "type": "constructor"
    },
    {
      "anonymous": false,
      "inputs": [
        {
          "indexed": true,
          "internalType": "address",
          "name": "owner",
          "type": "address"
        },
        {
          "indexed": true,
          "internalType": "address",
          "name": "approved",
          "type": "address"
        },
        {
          "indexed": true,
          "internalType": "uint256",
          "name": "tokenId",
          "type": "uint256"
        }
      ],
      "name": "Approval",
      "type": "event"
    },
    {
      "anonymous": false,
      "inputs": [
        {
          "indexed": true,
          "internalType": "address",
          "name": "owner",
          "type": "address"
        },
        {
          "indexed": true,
          "internalType": "address",
          "name": "operator",
          "type": "address"
        },
        {
          "indexed": false,
          "internalType": "bool",
          "name": "approved",
          "type": "bool"
        }
      ],
      "name": "ApprovalForAll",
      "type": "event"
    },
    {
      "anonymous": false,
      "inputs": [
        {
          "indexed": false,
          "internalType": "uint256",
          "name": "newBossHp",
          "type": "uint256"
        },
        {
          "indexed": false,
          "internalType": "uint256",
          "name": "newPlayerHp",
          "type": "uint256"
        }
      ],
      "name": "AttackComplete",
      "type": "event"
    },
    {
      "anonymous": false,
      "inputs": [
        {
          "indexed": false,
          "internalType": "address",
          "name": "sender",
          "type": "address"
        },
        {
          "indexed": false,
          "internalType": "uint256",
          "name": "tokenId",
          "type": "uint256"
        },
        {
          "indexed": false,
          "internalType": "uint256",
          "name": "characterIndex",
          "type": "uint256"
        }
      ],
      "name": "CharacterNFTMinted",
      "type": "event"
    },
    {
      "anonymous": false,
      "inputs": [
        {
          "indexed": true,
          "internalType": "address",
          "name": "from",
          "type": "address"
        },
        {
          "indexed": true,
          "internalType": "address",
          "name": "to",
          "type": "address"
        },
        {
          "indexed": true,
          "internalType": "uint256",
          "name": "tokenId",
          "type": "uint256"
        }
      ],
      "name": "Transfer",
      "type": "event"
    },
    {
      "inputs": [
        {
          "internalType": "address",
          "name": "to",
          "type": "address"
        },
        {
          "internalType": "uint256",
          "name": "tokenId",
          "type": "uint256"
        }
      ],
      "name": "approve",
      "outputs": [],
      "stateMutability": "nonpayable",
      "type": "function"
    },
    {
      "inputs": [],
      "name": "attackBoss",
      "outputs": [],
      "stateMutability": "nonpayable",
      "type": "function"
    },
    {
      "inputs": [
        {
          "internalType": "address",
          "name": "owner",
          "type": "address"
        }
      ],
      "name": "balanceOf",
      "outputs": [
        {
          "internalType": "uint256",
          "name": "",
          "type": "uint256"
        }
      ],
      "stateMutability": "view",
      "type": "function"
    },
    {
      "inputs": [],
      "name": "bigBoss",
      "outputs": [
        {
          "internalType": "string",
          "name": "name",
          "type": "string"
        },
        {
          "internalType": "string",
          "name": "imageURI",
          "type": "string"
        },
        {
          "internalType": "uint256",
          "name": "hp",
          "type": "uint256"
        },
        {
          "internalType": "uint256",
          "name": "maxHp",
          "type": "uint256"
        },
        {
          "internalType": "uint256",
          "name": "attackDamage",
          "type": "uint256"
        }
      ],
      "stateMutability": "view",
      "type": "function"
    },
    {
      "inputs": [],
      "name": "checkIfUserHasNFT",
      "outputs": [
        {
          "components": [
            {
              "internalType": "uint256",
              "name": "characterIndex",
              "type": "uint256"
            },
            {
              "internalType": "string",
              "name": "name",
              "type": "string"
            },
            {
              "internalType": "string",
              "name": "imageURI",
              "type": "string"
            },
            {
              "internalType": "uint256",
              "name": "hp",
              "type": "uint256"
            },
            {
              "internalType": "uint256",
              "name": "maxHp",
              "type": "uint256"
            },
            {
              "internalType": "uint256",
              "name": "attackDamage",
              "type": "uint256"
            }
          ],
          "internalType": "struct EpicGame.CharacterAttributes",
          "name": "",
          "type": "tuple"
        }
      ],
      "stateMutability": "view",
      "type": "function"
    },
    {
      "inputs": [],
      "name": "getAllDefaultCharacters",
      "outputs": [
        {
          "components": [
            {
              "internalType": "uint256",
              "name": "characterIndex",
              "type": "uint256"
            },
            {
              "internalType": "string",
              "name": "name",
              "type": "string"
            },
            {
              "internalType": "string",
              "name": "imageURI",
              "type": "string"
            },
            {
              "internalType": "uint256",
              "name": "hp",
              "type": "uint256"
            },
            {
              "internalType": "uint256",
              "name": "maxHp",
              "type": "uint256"
            },
            {
              "internalType": "uint256",
              "name": "attackDamage",
              "type": "uint256"
            }
          ],
          "internalType": "struct EpicGame.CharacterAttributes[]",
          "name": "",
          "type": "tuple[]"
        }
      ],
      "stateMutability": "view",
      "type": "function"
    },
    {
      "inputs": [
        {
          "internalType": "uint256",
          "name": "tokenId",
          "type": "uint256"
        }
      ],
      "name": "getApproved",
      "outputs": [
        {
          "internalType": "address",
          "name": "",
          "type": "address"
        }
      ],
      "stateMutability": "view",
      "type": "function"
    },
    {
      "inputs": [],
      "name": "getBigBoss",
      "outputs": [
        {
          "components": [
            {
              "internalType": "string",
              "name": "name",
              "type": "string"
            },
            {
              "internalType": "string",
              "name": "imageURI",
              "type": "string"
            },
            {
              "internalType": "uint256",
              "name": "hp",
              "type": "uint256"
            },
            {
              "internalType": "uint256",
              "name": "maxHp",
              "type": "uint256"
            },
            {
              "internalType": "uint256",
              "name": "attackDamage",
              "type": "uint256"
            }
          ],
          "internalType": "struct EpicGame.BigBoss",
          "name": "",
          "type": "tuple"
        }
      ],
      "stateMutability": "view",
      "type": "function"
    },
    {
      "inputs": [
        {
          "internalType": "address",
          "name": "owner",
          "type": "address"
        },
        {
          "internalType": "address",
          "name": "operator",
          "type": "address"
        }
      ],
      "name": "isApprovedForAll",
      "outputs": [
        {
          "internalType": "bool",
          "name": "",
          "type": "bool"
        }
      ],
      "stateMutability": "view",
      "type": "function"
    },
    {
      "inputs": [
        {
          "internalType": "uint256",
          "name": "_characterIndex",
          "type": "uint256"
        }
      ],
      "name": "mintCharacterNFT",
      "outputs": [],
      "stateMutability": "nonpayable",
      "type": "function"
    },
    {
      "inputs": [],
      "name": "name",
      "outputs": [
        {
          "internalType": "string",
          "name": "",
          "type": "string"
        }
      ],
      "stateMutability": "view",
      "type": "function"
    },
    {
      "inputs": [
        {
          "internalType": "uint256",
          "name": "",
          "type": "uint256"
        }
      ],
      "name": "nftHolderAttributes",
      "outputs": [
        {
          "internalType": "uint256",
          "name": "characterIndex",
          "type": "uint256"
        },
        {
          "internalType": "string",
          "name": "name",
          "type": "string"
        },
        {
          "internalType": "string",
          "name": "imageURI",
          "type": "string"
        },
        {
          "internalType": "uint256",
          "name": "hp",
          "type": "uint256"
        },
        {
          "internalType": "uint256",
          "name": "maxHp",
          "type": "uint256"
        },
        {
          "internalType": "uint256",
          "name": "attackDamage",
          "type": "uint256"
        }
      ],
      "stateMutability": "view",
      "type": "function"
    },
    {
      "inputs": [
        {
          "internalType": "address",
          "name": "",
          "type": "address"
        }
      ],
      "name": "nftHolders",
      "outputs": [
        {
          "internalType": "uint256",
          "name": "",
          "type": "uint256"
        }
      ],
      "stateMutability": "view",
      "type": "function"
    },
    {
      "inputs": [
        {
          "internalType": "uint256",
          "name": "tokenId",
          "type": "uint256"
        }
      ],
      "name": "ownerOf",
      "outputs": [
        {
          "internalType": "address",
          "name": "",
          "type": "address"
        }
      ],
      "stateMutability": "view",
      "type": "function"
    },
    {
      "inputs": [
        {
          "internalType": "address",
          "name": "from",
          "type": "address"
        },
        {
          "internalType": "address",
          "name": "to",
          "type": "address"
        },
        {
          "internalType": "uint256",
          "name": "tokenId",
          "type": "uint256"
        }
      ],
      "name": "safeTransferFrom",
      "outputs": [],
      "stateMutability": "nonpayable",
      "type": "function"
    },
    {
      "inputs": [
        {
          "internalType": "address",
          "name": "from",
          "type": "address"
        },
        {
          "internalType": "address",
          "name": "to",
          "type": "address"
        },
        {
          "internalType": "uint256",
          "name": "tokenId",
          "type": "uint256"
        },
        {
          "internalType": "bytes",
          "name": "_data",
          "type": "bytes"
        }
      ],
      "name": "safeTransferFrom",
      "outputs": [],
      "stateMutability": "nonpayable",
      "type": "function"
    },
    {
      "inputs": [
        {
          "internalType": "address",
          "name": "operator",
          "type": "address"
        },
        {
          "internalType": "bool",
          "name": "approved",
          "type": "bool"
        }
      ],
      "name": "setApprovalForAll",
      "outputs": [],
      "stateMutability": "nonpayable",
      "type": "function"
    },
    {
      "inputs": [
        {
          "internalType": "bytes4",
          "name": "interfaceId",
          "type": "bytes4"
        }
      ],
      "name": "supportsInterface",
      "outputs": [
        {
          "internalType": "bool",
          "name": "",
          "type": "bool"
        }
      ],
      "stateMutability": "view",
      "type": "function"
    },
    {
      "inputs": [],
      "name": "symbol",
      "outputs": [
        {
          "internalType": "string",
          "name": "",
          "type": "string"
        }
      ],
      "stateMutability": "view",
      "type": "function"
    },
    {
      "inputs": [
        {
          "internalType": "uint256",
          "name": "_tokenId",
          "type": "uint256"
        }
      ],
      "name": "tokenURI",
      "outputs": [
        {
          "internalType": "string",
          "name": "",
          "type": "string"
        }
      ],
      "stateMutability": "view",
      "type": "function"
    },
    {
      "inputs": [
        {
          "internalType": "address",
          "name": "from",
          "type": "address"
        },
        {
          "internalType": "address",
          "name": "to",
          "type": "address"
        },
        {
          "internalType": "uint256",
          "name": "tokenId",
          "type": "uint256"
        }
      ],
      "name": "transferFrom",
      "outputs": [],
      "stateMutability": "nonpayable",
      "type": "function"
    }
  ],
  "bytecode": "0x60806040523480156200001157600080fd5b506040516200570e3803806200570e833981810160405281019062000037919062000a5a565b6040518060400160405280600981526020017f4865726f657320494900000000000000000000000000000000000000000000008152506040518060400160405280600481526020017f4845524f000000000000000000000000000000000000000000000000000000008152508160009080519060200190620000bb929190620007ed565b508060019080519060200190620000d4929190620007ed565b5050506040518060a0016040528085815260200184815260200183815260200183815260200182815250600660008201518160000190805190602001906200011e929190620007ed565b5060208201518160010190805190602001906200013d929190620007ed565b50604082015181600201556060820151816003015560808201518160040155905050620002c06040518060600160405280602b8152602001620056e3602b9139600660000180546200018f9062000de5565b80601f0160208091040260200160405190810160405280929190818152602001828054620001bd9062000de5565b80156200020e5780601f10620001e2576101008083540402835291602001916200020e565b820191906000526020600020905b815481529060010190602001808311620001f057829003601f168201915b5050505050600660020154600660010180546200022b9062000de5565b80601f0160208091040260200160405190810160405280929190818152602001828054620002599062000de5565b8015620002aa5780601f106200027e57610100808354040283529160200191620002aa565b820191906000526020600020905b8154815290600101906020018083116200028c57829003601f168201915b50505050506200070260201b62001d451760201c565b60005b8851811015620006dc57600b6040518060c001604052808381526020018b84815181106200031a577f4e487b7100000000000000000000000000000000000000000000000000000000600052603260045260246000fd5b602002602001015181526020018a848151811062000361577f4e487b7100000000000000000000000000000000000000000000000000000000600052603260045260246000fd5b60200260200101518152602001898481518110620003a8577f4e487b7100000000000000000000000000000000000000000000000000000000600052603260045260246000fd5b60200260200101518152602001898481518110620003ef577f4e487b7100000000000000000000000000000000000000000000000000000000600052603260045260246000fd5b6020026020010151815260200188848151811062000436577f4e487b7100000000000000000000000000000000000000000000000000000000600052603260045260246000fd5b6020026020010151815250908060018154018082558091505060019003906000526020600020906006020160009091909190915060008201518160000155602082015181600101908051906020019062000492929190620007ed565b506040820151816002019080519060200190620004b1929190620007ed565b50606082015181600301556080820151816004015560a0820151816005015550506000600b82815481106200050f577f4e487b7100000000000000000000000000000000000000000000000000000000600052603260045260246000fd5b90600052602060002090600602016040518060c001604052908160008201548152602001600182018054620005449062000de5565b80601f0160208091040260200160405190810160405280929190818152602001828054620005729062000de5565b8015620005c35780601f106200059757610100808354040283529160200191620005c3565b820191906000526020600020905b815481529060010190602001808311620005a557829003601f168201915b50505050508152602001600282018054620005de9062000de5565b80601f01602080910402602001604051908101604052809291908181526020018280546200060c9062000de5565b80156200065d5780601f1062000631576101008083540402835291602001916200065d565b820191906000526020600020905b8154815290600101906020018083116200063f57829003601f168201915b5050505050815260200160038201548152602001600482015481526020016005820154815250509050620006c46040518060600160405280602b8152602001620056b8602b91398260200151836060015184604001516200070260201b62001d451760201c565b50600181620006d4919062000d48565b9050620002c3565b50620006f4600c620007ae60201b62001de71760201c565b505050505050505062000ed3565b620007a8848484846040516024016200071f949392919062000c05565b6040516020818303038152906040527f8d142cdd000000000000000000000000000000000000000000000000000000007bffffffffffffffffffffffffffffffffffffffffffffffffffffffff19166020820180517bffffffffffffffffffffffffffffffffffffffffffffffffffffffff8381831617835250505050620007c460201b60201c565b50505050565b6001816000016000828254019250508190555050565b60008151905060006a636f6e736f6c652e6c6f679050602083016000808483855afa5050505050565b828054620007fb9062000de5565b90600052602060002090601f0160209004810192826200081f57600085556200086b565b82601f106200083a57805160ff19168380011785556200086b565b828001600101855582156200086b579182015b828111156200086a5782518255916020019190600101906200084d565b5b5090506200087a91906200087e565b5090565b5b80821115620008995760008160009055506001016200087f565b5090565b6000620008b4620008ae8462000c9b565b62000c67565b9050808382526020820190508260005b85811015620008f85781518501620008dd888262000a16565b845260208401935060208301925050600181019050620008c4565b5050509392505050565b600062000919620009138462000cca565b62000c67565b905080838252602082019050828560208602820111156200093957600080fd5b60005b858110156200096d578162000952888262000a43565b8452602084019350602083019250506001810190506200093c565b5050509392505050565b60006200098e620009888462000cf9565b62000c67565b905082815260208101848484011115620009a757600080fd5b620009b484828562000daf565b509392505050565b600082601f830112620009ce57600080fd5b8151620009e08482602086016200089d565b91505092915050565b600082601f830112620009fb57600080fd5b815162000a0d84826020860162000902565b91505092915050565b600082601f83011262000a2857600080fd5b815162000a3a84826020860162000977565b91505092915050565b60008151905062000a548162000eb9565b92915050565b600080600080600080600080610100898b03121562000a7857600080fd5b600089015167ffffffffffffffff81111562000a9357600080fd5b62000aa18b828c01620009bc565b985050602089015167ffffffffffffffff81111562000abf57600080fd5b62000acd8b828c01620009bc565b975050604089015167ffffffffffffffff81111562000aeb57600080fd5b62000af98b828c01620009e9565b965050606089015167ffffffffffffffff81111562000b1757600080fd5b62000b258b828c01620009e9565b955050608089015167ffffffffffffffff81111562000b4357600080fd5b62000b518b828c0162000a16565b94505060a089015167ffffffffffffffff81111562000b6f57600080fd5b62000b7d8b828c0162000a16565b93505060c062000b908b828c0162000a43565b92505060e062000ba38b828c0162000a43565b9150509295985092959890939650565b600062000bc08262000d2c565b62000bcc818562000d37565b935062000bde81856020860162000daf565b62000be98162000ea8565b840191505092915050565b62000bff8162000da5565b82525050565b6000608082019050818103600083015262000c21818762000bb3565b9050818103602083015262000c37818662000bb3565b905062000c48604083018562000bf4565b818103606083015262000c5c818462000bb3565b905095945050505050565b6000604051905081810181811067ffffffffffffffff8211171562000c915762000c9062000e79565b5b8060405250919050565b600067ffffffffffffffff82111562000cb95762000cb862000e79565b5b602082029050602081019050919050565b600067ffffffffffffffff82111562000ce85762000ce762000e79565b5b602082029050602081019050919050565b600067ffffffffffffffff82111562000d175762000d1662000e79565b5b601f19601f8301169050602081019050919050565b600081519050919050565b600082825260208201905092915050565b600062000d558262000da5565b915062000d628362000da5565b9250827fffffffffffffffffffffffffffffffffffffffffffffffffffffffffffffffff0382111562000d9a5762000d9962000e1b565b5b828201905092915050565b6000819050919050565b60005b8381101562000dcf57808201518184015260208101905062000db2565b8381111562000ddf576000848401525b50505050565b6000600282049050600182168062000dfe57607f821691505b6020821081141562000e155762000e1462000e4a565b5b50919050565b7f4e487b7100000000000000000000000000000000000000000000000000000000600052601160045260246000fd5b7f4e487b7100000000000000000000000000000000000000000000000000000000600052602260045260246000fd5b7f4e487b7100000000000000000000000000000000000000000000000000000000600052604160045260246000fd5b6000601f19601f8301169050919050565b62000ec48162000da5565b811462000ed057600080fd5b50565b6147d58062000ee36000396000f3fe608060405234801561001057600080fd5b50600436106101375760003560e01c806395d89b41116100b8578063b953084e1161007c578063b953084e14610369578063c87b56dd14610387578063c8cf27f4146103b7578063d4f24c5b146103d5578063e985e9c5146103df578063f8b81ef71461040f57610137565b806395d89b41146102bc57806398da4c95146102da578063a22cb4651461030f578063a9c326791461032b578063b88d4fde1461034d57610137565b806323b872dd116100ff57806323b872dd146101f457806342842e0e146102105780636352211e1461022c57806370a082311461025c5780637df124a11461028c57610137565b806301ffc9a71461013c5780630665f9611461016c57806306fdde031461018a578063081812fc146101a8578063095ea7b3146101d8575b600080fd5b6101566004803603810190610151919061301f565b61042b565b6040516101639190613da5565b60405180910390f35b61017461050d565b604051610181919061413e565b60405180910390f35b610192610669565b60405161019f9190613dc0565b60405180910390f35b6101c260048036038101906101bd9190613071565b6106fb565b6040516101cf9190613ce5565b60405180910390f35b6101f260048036038101906101ed9190612fe3565b610780565b005b61020e60048036038101906102099190612edd565b610898565b005b61022a60048036038101906102259190612edd565b6108f8565b005b61024660048036038101906102419190613071565b610918565b6040516102539190613ce5565b60405180910390f35b61027660048036038101906102719190612e78565b6109ca565b6040516102839190614182565b60405180910390f35b6102a660048036038101906102a19190612e78565b610a82565b6040516102b39190614182565b60405180910390f35b6102c4610a9a565b6040516102d19190613dc0565b60405180910390f35b6102f460048036038101906102ef9190613071565b610b2c565b6040516103069695949392919061419d565b60405180910390f35b61032960048036038101906103249190612fa7565b610c78565b005b610333610df9565b604051610344959493929190613e8f565b60405180910390f35b61036760048036038101906103629190612f2c565b610f2d565b005b610371610f8f565b60405161037e9190613d83565b60405180910390f35b6103a1600480360381019061039c9190613071565b61113a565b6040516103ae9190613dc0565b60405180910390f35b6103bf611355565b6040516103cc9190614160565b60405180910390f35b6103dd61152d565b005b6103f960048036038101906103f49190612ea1565b6118bd565b6040516104069190613da5565b60405180910390f35b61042960048036038101906104249190613071565b611951565b005b60007f80ac58cd000000000000000000000000000000000000000000000000000000007bffffffffffffffffffffffffffffffffffffffffffffffffffffffff1916827bffffffffffffffffffffffffffffffffffffffffffffffffffffffff191614806104f657507f5b5e139f000000000000000000000000000000000000000000000000000000007bffffffffffffffffffffffffffffffffffffffffffffffffffffffff1916827bffffffffffffffffffffffffffffffffffffffffffffffffffffffff1916145b80610506575061050582611dfd565b5b9050919050565b610515612c9f565b60066040518060a0016040529081600082018054610532906144ee565b80601f016020809104026020016040519081016040528092919081815260200182805461055e906144ee565b80156105ab5780601f10610580576101008083540402835291602001916105ab565b820191906000526020600020905b81548152906001019060200180831161058e57829003601f168201915b505050505081526020016001820180546105c4906144ee565b80601f01602080910402602001604051908101604052809291908181526020018280546105f0906144ee565b801561063d5780601f106106125761010080835404028352916020019161063d565b820191906000526020600020905b81548152906001019060200180831161062057829003601f168201915b505050505081526020016002820154815260200160038201548152602001600482015481525050905090565b606060008054610678906144ee565b80601f01602080910402602001604051908101604052809291908181526020018280546106a4906144ee565b80156106f15780601f106106c6576101008083540402835291602001916106f1565b820191906000526020600020905b8154815290600101906020018083116106d457829003601f168201915b5050505050905090565b600061070682611e67565b610745576040517f08c379a000000000000000000000000000000000000000000000000000000000815260040161073c9061407e565b60405180910390fd5b6004600083815260200190815260200160002060009054906101000a900473ffffffffffffffffffffffffffffffffffffffff169050919050565b600061078b82610918565b90508073ffffffffffffffffffffffffffffffffffffffff168373ffffffffffffffffffffffffffffffffffffffff1614156107fc576040517f08c379a00000000000000000000000000000000000000000000000000000000081526004016107f3906140be565b60405180910390fd5b8073ffffffffffffffffffffffffffffffffffffffff1661081b611ed3565b73ffffffffffffffffffffffffffffffffffffffff16148061084a575061084981610844611ed3565b6118bd565b5b610889576040517f08c379a000000000000000000000000000000000000000000000000000000000815260040161088090613ffe565b60405180910390fd5b6108938383611edb565b505050565b6108a96108a3611ed3565b82611f94565b6108e8576040517f08c379a00000000000000000000000000000000000000000000000000000000081526004016108df906140de565b60405180910390fd5b6108f3838383612072565b505050565b61091383838360405180602001604052806000815250610f2d565b505050565b6000806002600084815260200190815260200160002060009054906101000a900473ffffffffffffffffffffffffffffffffffffffff169050600073ffffffffffffffffffffffffffffffffffffffff168173ffffffffffffffffffffffffffffffffffffffff1614156109c1576040517f08c379a00000000000000000000000000000000000000000000000000000000081526004016109b89061403e565b60405180910390fd5b80915050919050565b60008073ffffffffffffffffffffffffffffffffffffffff168273ffffffffffffffffffffffffffffffffffffffff161415610a3b576040517f08c379a0000000000000000000000000000000000000000000000000000000008152600401610a329061401e565b60405180910390fd5b600360008373ffffffffffffffffffffffffffffffffffffffff1673ffffffffffffffffffffffffffffffffffffffff168152602001908152602001600020549050919050565b600e6020528060005260406000206000915090505481565b606060018054610aa9906144ee565b80601f0160208091040260200160405190810160405280929190818152602001828054610ad5906144ee565b8015610b225780601f10610af757610100808354040283529160200191610b22565b820191906000526020600020905b815481529060010190602001808311610b0557829003601f168201915b5050505050905090565b600d602052806000526040600020600091509050806000015490806001018054610b55906144ee565b80601f0160208091040260200160405190810160405280929190818152602001828054610b81906144ee565b8015610bce5780601f10610ba357610100808354040283529160200191610bce565b820191906000526020600020905b815481529060010190602001808311610bb157829003601f168201915b505050505090806002018054610be3906144ee565b80601f0160208091040260200160405190810160405280929190818152602001828054610c0f906144ee565b8015610c5c5780601f10610c3157610100808354040283529160200191610c5c565b820191906000526020600020905b815481529060010190602001808311610c3f57829003601f168201915b5050505050908060030154908060040154908060050154905086565b610c80611ed3565b73ffffffffffffffffffffffffffffffffffffffff168273ffffffffffffffffffffffffffffffffffffffff161415610cee576040517f08c379a0000000000000000000000000000000000000000000000000000000008152600401610ce590613fbe565b60405180910390fd5b8060056000610cfb611ed3565b73ffffffffffffffffffffffffffffffffffffffff1673ffffffffffffffffffffffffffffffffffffffff16815260200190815260200160002060008473ffffffffffffffffffffffffffffffffffffffff1673ffffffffffffffffffffffffffffffffffffffff16815260200190815260200160002060006101000a81548160ff0219169083151502179055508173ffffffffffffffffffffffffffffffffffffffff16610da8611ed3565b73ffffffffffffffffffffffffffffffffffffffff167f17307eab39ab6107e8899845ad3d59bd9653f200f220920489ca2b5937696c3183604051610ded9190613da5565b60405180910390a35050565b6006806000018054610e0a906144ee565b80601f0160208091040260200160405190810160405280929190818152602001828054610e36906144ee565b8015610e835780601f10610e5857610100808354040283529160200191610e83565b820191906000526020600020905b815481529060010190602001808311610e6657829003601f168201915b505050505090806001018054610e98906144ee565b80601f0160208091040260200160405190810160405280929190818152602001828054610ec4906144ee565b8015610f115780601f10610ee657610100808354040283529160200191610f11565b820191906000526020600020905b815481529060010190602001808311610ef457829003601f168201915b5050505050908060020154908060030154908060040154905085565b610f3e610f38611ed3565b83611f94565b610f7d576040517f08c379a0000000000000000000000000000000000000000000000000000000008152600401610f74906140de565b60405180910390fd5b610f89848484846122ce565b50505050565b6060600b805480602002602001604051908101604052809291908181526020016000905b8282101561113157838290600052602060002090600602016040518060c001604052908160008201548152602001600182018054610ff0906144ee565b80601f016020809104026020016040519081016040528092919081815260200182805461101c906144ee565b80156110695780601f1061103e57610100808354040283529160200191611069565b820191906000526020600020905b81548152906001019060200180831161104c57829003601f168201915b50505050508152602001600282018054611082906144ee565b80601f01602080910402602001604051908101604052809291908181526020018280546110ae906144ee565b80156110fb5780601f106110d0576101008083540402835291602001916110fb565b820191906000526020600020905b8154815290600101906020018083116110de57829003601f168201915b50505050508152602001600382015481526020016004820154815260200160058201548152505081526020019060010190610fb3565b50505050905090565b60606000600d60008481526020019081526020016000206040518060c001604052908160008201548152602001600182018054611176906144ee565b80601f01602080910402602001604051908101604052809291908181526020018280546111a2906144ee565b80156111ef5780601f106111c4576101008083540402835291602001916111ef565b820191906000526020600020905b8154815290600101906020018083116111d257829003601f168201915b50505050508152602001600282018054611208906144ee565b80601f0160208091040260200160405190810160405280929190818152602001828054611234906144ee565b80156112815780601f1061125657610100808354040283529160200191611281565b820191906000526020600020905b81548152906001019060200180831161126457829003601f168201915b505050505081526020016003820154815260200160048201548152602001600582015481525050905060006112b9826060015161232a565b905060006112ca836080015161232a565b905060006112db8460a0015161232a565b9050600061132185602001516112f08961232a565b876040015187878760405160200161130d96959493929190613c1e565b6040516020818303038152906040526124d7565b90506000816040516020016113369190613cc3565b6040516020818303038152906040529050809650505050505050919050565b61135d612cce565b6000600e60003373ffffffffffffffffffffffffffffffffffffffff1673ffffffffffffffffffffffffffffffffffffffff168152602001908152602001600020549050600081111561151c57600d60008281526020019081526020016000206040518060c0016040529081600082015481526020016001820180546113e2906144ee565b80601f016020809104026020016040519081016040528092919081815260200182805461140e906144ee565b801561145b5780601f106114305761010080835404028352916020019161145b565b820191906000526020600020905b81548152906001019060200180831161143e57829003601f168201915b50505050508152602001600282018054611474906144ee565b80601f01602080910402602001604051908101604052809291908181526020018280546114a0906144ee565b80156114ed5780601f106114c2576101008083540402835291602001916114ed565b820191906000526020600020905b8154815290600101906020018083116114d057829003601f168201915b50505050508152602001600382015481526020016004820154815260200160058201548152505091505061152a565b611524612cce565b80925050505b90565b6000600e60003373ffffffffffffffffffffffffffffffffffffffff1673ffffffffffffffffffffffffffffffffffffffff1681526020019081526020016000205490506000600d6000838152602001908152602001600020905060008160030154116115cf576040517f08c379a00000000000000000000000000000000000000000000000000000000081526004016115c69061411e565b60405180910390fd5b600060066002015411611617576040517f08c379a000000000000000000000000000000000000000000000000000000000815260040161160e906140fe565b60405180910390fd5b6116cf6040518060600160405280602781526020016146c460279139826001018054611642906144ee565b80601f016020809104026020016040519081016040528092919081815260200182805461166e906144ee565b80156116bb5780601f10611690576101008083540402835291602001916116bb565b820191906000526020600020905b81548152906001019060200180831161169e57829003601f168201915b505050505083600301548460050154612695565b6117a76040518060400160405280601c81526020017f426f73733a2025732068617320257320485020616e642025732041440000000081525060066000018054611718906144ee565b80601f0160208091040260200160405190810160405280929190818152602001828054611744906144ee565b80156117915780601f1061176657610100808354040283529160200191611791565b820191906000526020600020905b81548152906001019060200180831161177457829003601f168201915b5050505050600660020154600660040154612695565b806005015460066002015410156117c85760006006600201819055506117e9565b8060050154600660020160008282546117e19190614404565b925050819055505b60066004015481600301541015611809576000816003018190555061182a565b6006600401548160030160008282546118229190614404565b925050819055505b6118516040518060600160405280602381526020016146eb60239139600660020154612737565b61187760405180606001604052806024815260200161474e602491398260030154612737565b7f838ab28464562786a6c4ab2311964b82fa60bd9b14aa7e856af1f3f18d41a41460066002015482600301546040516118b192919061420c565b60405180910390a15050565b6000600560008473ffffffffffffffffffffffffffffffffffffffff1673ffffffffffffffffffffffffffffffffffffffff16815260200190815260200160002060008373ffffffffffffffffffffffffffffffffffffffff1673ffffffffffffffffffffffffffffffffffffffff16815260200190815260200160002060009054906101000a900460ff16905092915050565b600061195d600c6127d3565b905061196933826127e1565b6040518060c00160405280838152602001600b84815481106119b4577f4e487b7100000000000000000000000000000000000000000000000000000000600052603260045260246000fd5b906000526020600020906006020160010180546119d0906144ee565b80601f01602080910402602001604051908101604052809291908181526020018280546119fc906144ee565b8015611a495780601f10611a1e57610100808354040283529160200191611a49565b820191906000526020600020905b815481529060010190602001808311611a2c57829003601f168201915b50505050508152602001600b8481548110611a8d577f4e487b7100000000000000000000000000000000000000000000000000000000600052603260045260246000fd5b90600052602060002090600602016002018054611aa9906144ee565b80601f0160208091040260200160405190810160405280929190818152602001828054611ad5906144ee565b8015611b225780601f10611af757610100808354040283529160200191611b22565b820191906000526020600020905b815481529060010190602001808311611b0557829003601f168201915b50505050508152602001600b8481548110611b66577f4e487b7100000000000000000000000000000000000000000000000000000000600052603260045260246000fd5b9060005260206000209060060201600301548152602001600b8481548110611bb7577f4e487b7100000000000000000000000000000000000000000000000000000000600052603260045260246000fd5b9060005260206000209060060201600401548152602001600b8481548110611c08577f4e487b7100000000000000000000000000000000000000000000000000000000600052603260045260246000fd5b906000526020600020906006020160050154815250600d6000838152602001908152602001600020600082015181600001556020820151816001019080519060200190611c56929190612d04565b506040820151816002019080519060200190611c73929190612d04565b50606082015181600301556080820151816004015560a08201518160050155905050611cb86040518060600160405280602e8152602001614772602e913982846127ff565b80600e60003373ffffffffffffffffffffffffffffffffffffffff1673ffffffffffffffffffffffffffffffffffffffff16815260200190815260200160002081905550611d06600c611de7565b7f4bc303fd457a97b4691b9af582ce71868a3d258638c8d4f8c60988a0f0bfb8cd338284604051611d3993929190613d4c565b60405180910390a15050565b611de184848484604051602401611d5f9493929190613de2565b6040516020818303038152906040527f8d142cdd000000000000000000000000000000000000000000000000000000007bffffffffffffffffffffffffffffffffffffffffffffffffffffffff19166020820180517bffffffffffffffffffffffffffffffffffffffffffffffffffffffff838183161783525050505061289e565b50505050565b6001816000016000828254019250508190555050565b60007f01ffc9a7000000000000000000000000000000000000000000000000000000007bffffffffffffffffffffffffffffffffffffffffffffffffffffffff1916827bffffffffffffffffffffffffffffffffffffffffffffffffffffffff1916149050919050565b60008073ffffffffffffffffffffffffffffffffffffffff166002600084815260200190815260200160002060009054906101000a900473ffffffffffffffffffffffffffffffffffffffff1673ffffffffffffffffffffffffffffffffffffffff1614159050919050565b600033905090565b816004600083815260200190815260200160002060006101000a81548173ffffffffffffffffffffffffffffffffffffffff021916908373ffffffffffffffffffffffffffffffffffffffff160217905550808273ffffffffffffffffffffffffffffffffffffffff16611f4e83610918565b73ffffffffffffffffffffffffffffffffffffffff167f8c5be1e5ebec7d5bd14f71427d1e84f3dd0314c0f7b2291e5b200ac8c7c3b92560405160405180910390a45050565b6000611f9f82611e67565b611fde576040517f08c379a0000000000000000000000000000000000000000000000000000000008152600401611fd590613fde565b60405180910390fd5b6000611fe983610918565b90508073ffffffffffffffffffffffffffffffffffffffff168473ffffffffffffffffffffffffffffffffffffffff16148061205857508373ffffffffffffffffffffffffffffffffffffffff16612040846106fb565b73ffffffffffffffffffffffffffffffffffffffff16145b80612069575061206881856118bd565b5b91505092915050565b8273ffffffffffffffffffffffffffffffffffffffff1661209282610918565b73ffffffffffffffffffffffffffffffffffffffff16146120e8576040517f08c379a00000000000000000000000000000000000000000000000000000000081526004016120df9061409e565b60405180910390fd5b600073ffffffffffffffffffffffffffffffffffffffff168273ffffffffffffffffffffffffffffffffffffffff161415612158576040517f08c379a000000000000000000000000000000000000000000000000000000000815260040161214f90613f9e565b60405180910390fd5b6121638383836128c7565b61216e600082611edb565b6001600360008573ffffffffffffffffffffffffffffffffffffffff1673ffffffffffffffffffffffffffffffffffffffff16815260200190815260200160002060008282546121be9190614404565b925050819055506001600360008473ffffffffffffffffffffffffffffffffffffffff1673ffffffffffffffffffffffffffffffffffffffff16815260200190815260200160002060008282546122159190614323565b92505081905550816002600083815260200190815260200160002060006101000a81548173ffffffffffffffffffffffffffffffffffffffff021916908373ffffffffffffffffffffffffffffffffffffffff160217905550808273ffffffffffffffffffffffffffffffffffffffff168473ffffffffffffffffffffffffffffffffffffffff167fddf252ad1be2c89b69c2b068fc378daa952ba7f163c4a11628f55a4df523b3ef60405160405180910390a4505050565b6122d9848484612072565b6122e5848484846128cc565b612324576040517f08c379a000000000000000000000000000000000000000000000000000000000815260040161231b90613f5e565b60405180910390fd5b50505050565b60606000821415612372576040518060400160405280600181526020017f300000000000000000000000000000000000000000000000000000000000000081525090506124d2565b600082905060005b600082146123a457808061238d90614520565b915050600a8261239d9190614379565b915061237a565b60008167ffffffffffffffff8111156123e6577f4e487b7100000000000000000000000000000000000000000000000000000000600052604160045260246000fd5b6040519080825280601f01601f1916602001820160405280156124185781602001600182028036833780820191505090505b5090505b600085146124cb576001826124319190614404565b9150600a856124409190614569565b603061244c9190614323565b60f81b818381518110612488577f4e487b7100000000000000000000000000000000000000000000000000000000600052603260045260246000fd5b60200101907effffffffffffffffffffffffffffffffffffffffffffffffffffffffffffff1916908160001a905350600a856124c49190614379565b945061241c565b8093505050505b919050565b606060008251905060008114156125005760405180602001604052806000815250915050612690565b600060036002836125119190614323565b61251b9190614379565b600461252791906143aa565b905060006020826125389190614323565b67ffffffffffffffff811115612577577f4e487b7100000000000000000000000000000000000000000000000000000000600052604160045260246000fd5b6040519080825280601f01601f1916602001820160405280156125a95781602001600182028036833780820191505090505b509050600060405180606001604052806040815260200161470e604091399050600181016020830160005b8681101561264d5760038101905062ffffff818a015116603f8160121c168401518060081b905060ff603f83600c1c1686015116810190508060081b905060ff603f8360061c1686015116810190508060081b905060ff603f831686015116810190508060e01b905080845260048401935050506125d4565b506003860660018114612667576002811461267757612682565b613d3d60f01b6002830352612682565b603d60f81b60018303525b508484525050819450505050505b919050565b612731848484846040516024016126af9493929190613e3c565b6040516020818303038152906040527fd5cf17d0000000000000000000000000000000000000000000000000000000007bffffffffffffffffffffffffffffffffffffffffffffffffffffffff19166020820180517bffffffffffffffffffffffffffffffffffffffffffffffffffffffff838183161783525050505061289e565b50505050565b6127cf828260405160240161274d929190613ef0565b6040516020818303038152906040527f9710a9d0000000000000000000000000000000000000000000000000000000007bffffffffffffffffffffffffffffffffffffffffffffffffffffffff19166020820180517bffffffffffffffffffffffffffffffffffffffffffffffffffffffff838183161783525050505061289e565b5050565b600081600001549050919050565b6127fb828260405180602001604052806000815250612a63565b5050565b61289983838360405160240161281793929190613f20565b6040516020818303038152906040527f969cdd03000000000000000000000000000000000000000000000000000000007bffffffffffffffffffffffffffffffffffffffffffffffffffffffff19166020820180517bffffffffffffffffffffffffffffffffffffffffffffffffffffffff838183161783525050505061289e565b505050565b60008151905060006a636f6e736f6c652e6c6f679050602083016000808483855afa5050505050565b505050565b60006128ed8473ffffffffffffffffffffffffffffffffffffffff16612abe565b15612a56578373ffffffffffffffffffffffffffffffffffffffff1663150b7a02612916611ed3565b8786866040518563ffffffff1660e01b81526004016129389493929190613d00565b602060405180830381600087803b15801561295257600080fd5b505af192505050801561298357506040513d601f19601f820116820180604052508101906129809190613048565b60015b612a06573d80600081146129b3576040519150601f19603f3d011682016040523d82523d6000602084013e6129b8565b606091505b506000815114156129fe576040517f08c379a00000000000000000000000000000000000000000000000000000000081526004016129f590613f5e565b60405180910390fd5b805181602001fd5b63150b7a0260e01b7bffffffffffffffffffffffffffffffffffffffffffffffffffffffff1916817bffffffffffffffffffffffffffffffffffffffffffffffffffffffff191614915050612a5b565b600190505b949350505050565b612a6d8383612ad1565b612a7a60008484846128cc565b612ab9576040517f08c379a0000000000000000000000000000000000000000000000000000000008152600401612ab090613f5e565b60405180910390fd5b505050565b600080823b905060008111915050919050565b600073ffffffffffffffffffffffffffffffffffffffff168273ffffffffffffffffffffffffffffffffffffffff161415612b41576040517f08c379a0000000000000000000000000000000000000000000000000000000008152600401612b389061405e565b60405180910390fd5b612b4a81611e67565b15612b8a576040517f08c379a0000000000000000000000000000000000000000000000000000000008152600401612b8190613f7e565b60405180910390fd5b612b96600083836128c7565b6001600360008473ffffffffffffffffffffffffffffffffffffffff1673ffffffffffffffffffffffffffffffffffffffff1681526020019081526020016000206000828254612be69190614323565b92505081905550816002600083815260200190815260200160002060006101000a81548173ffffffffffffffffffffffffffffffffffffffff021916908373ffffffffffffffffffffffffffffffffffffffff160217905550808273ffffffffffffffffffffffffffffffffffffffff16600073ffffffffffffffffffffffffffffffffffffffff167fddf252ad1be2c89b69c2b068fc378daa952ba7f163c4a11628f55a4df523b3ef60405160405180910390a45050565b6040518060a0016040528060608152602001606081526020016000815260200160008152602001600081525090565b6040518060c001604052806000815260200160608152602001606081526020016000815260200160008152602001600081525090565b828054612d10906144ee565b90600052602060002090601f016020900481019282612d325760008555612d79565b82601f10612d4b57805160ff1916838001178555612d79565b82800160010185558215612d79579182015b82811115612d78578251825591602001919060010190612d5d565b5b509050612d869190612d8a565b5090565b5b80821115612da3576000816000905550600101612d8b565b5090565b6000612dba612db584614266565b614235565b905082815260208101848484011115612dd257600080fd5b612ddd8482856144ac565b509392505050565b600081359050612df481614667565b92915050565b600081359050612e098161467e565b92915050565b600081359050612e1e81614695565b92915050565b600081519050612e3381614695565b92915050565b600082601f830112612e4a57600080fd5b8135612e5a848260208601612da7565b91505092915050565b600081359050612e72816146ac565b92915050565b600060208284031215612e8a57600080fd5b6000612e9884828501612de5565b91505092915050565b60008060408385031215612eb457600080fd5b6000612ec285828601612de5565b9250506020612ed385828601612de5565b9150509250929050565b600080600060608486031215612ef257600080fd5b6000612f0086828701612de5565b9350506020612f1186828701612de5565b9250506040612f2286828701612e63565b9150509250925092565b60008060008060808587031215612f4257600080fd5b6000612f5087828801612de5565b9450506020612f6187828801612de5565b9350506040612f7287828801612e63565b925050606085013567ffffffffffffffff811115612f8f57600080fd5b612f9b87828801612e39565b91505092959194509250565b60008060408385031215612fba57600080fd5b6000612fc885828601612de5565b9250506020612fd985828601612dfa565b9150509250929050565b60008060408385031215612ff657600080fd5b600061300485828601612de5565b925050602061301585828601612e63565b9150509250929050565b60006020828403121561303157600080fd5b600061303f84828501612e0f565b91505092915050565b60006020828403121561305a57600080fd5b600061306884828501612e24565b91505092915050565b60006020828403121561308357600080fd5b600061309184828501612e63565b91505092915050565b60006130a68383613ae0565b905092915050565b6130b781614438565b82525050565b60006130c8826142a6565b6130d281856142d4565b9350836020820285016130e485614296565b8060005b858110156131205784840389528151613101858261309a565b945061310c836142c7565b925060208a019950506001810190506130e8565b50829750879550505050505092915050565b61313b8161444a565b82525050565b600061314c826142b1565b61315681856142e5565b93506131668185602086016144bb565b61316f81614656565b840191505092915050565b6000613185826142bc565b61318f81856142f6565b935061319f8185602086016144bb565b6131a881614656565b840191505092915050565b60006131be826142bc565b6131c88185614307565b93506131d88185602086016144bb565b6131e181614656565b840191505092915050565b60006131f7826142bc565b6132018185614318565b93506132118185602086016144bb565b80840191505092915050565b600061322a600b83614318565b91507f202d2d204e465420233a200000000000000000000000000000000000000000006000830152600b82019050919050565b600061326a603283614307565b91507f4552433732313a207472616e7366657220746f206e6f6e20455243373231526560008301527f63656976657220696d706c656d656e74657200000000000000000000000000006020830152604082019050919050565b60006132d0601c83614307565b91507f4552433732313a20746f6b656e20616c7265616479206d696e746564000000006000830152602082019050919050565b6000613310600e83614318565b91507f2c20226d61785f76616c7565223a0000000000000000000000000000000000006000830152600e82019050919050565b6000613350602483614307565b91507f4552433732313a207472616e7366657220746f20746865207a65726f2061646460008301527f72657373000000000000000000000000000000000000000000000000000000006020830152604082019050919050565b60006133b6601983614307565b91507f4552433732313a20617070726f766520746f2063616c6c6572000000000000006000830152602082019050919050565b60006133f6602c83614307565b91507f4552433732313a206f70657261746f7220717565727920666f72206e6f6e657860008301527f697374656e7420746f6b656e00000000000000000000000000000000000000006020830152604082019050919050565b600061345c603883614307565b91507f4552433732313a20617070726f76652063616c6c6572206973206e6f74206f7760008301527f6e6572206e6f7220617070726f76656420666f7220616c6c00000000000000006020830152604082019050919050565b60006134c2602a83614307565b91507f4552433732313a2062616c616e636520717565727920666f7220746865207a6560008301527f726f2061646472657373000000000000000000000000000000000000000000006020830152604082019050919050565b6000613528602983614307565b91507f4552433732313a206f776e657220717565727920666f72206e6f6e657869737460008301527f656e7420746f6b656e00000000000000000000000000000000000000000000006020830152604082019050919050565b600061358e606283614318565b91507f222c20226465736372697074696f6e223a20225468697320697320616e204e4660008301527f542074686174206c6574732070656f706c6520706c617920696e20746865206760208301527f616d65204d657461766572736520536c6179657221222c2022696d616765223a60408301527f20220000000000000000000000000000000000000000000000000000000000006060830152606282019050919050565b6000613640600483614318565b91507f7d205d7d000000000000000000000000000000000000000000000000000000006000830152600482019050919050565b6000613680602083614307565b91507f4552433732313a206d696e7420746f20746865207a65726f20616464726573736000830152602082019050919050565b60006136c0602c83614307565b91507f4552433732313a20617070726f76656420717565727920666f72206e6f6e657860008301527f697374656e7420746f6b656e00000000000000000000000000000000000000006020830152604082019050919050565b6000613726602983614307565b91507f4552433732313a207472616e73666572206f6620746f6b656e2074686174206960008301527f73206e6f74206f776e00000000000000000000000000000000000000000000006020830152604082019050919050565b600061378c600a83614318565b91507f7b226e616d65223a2022000000000000000000000000000000000000000000006000830152600a82019050919050565b60006137cc602183614307565b91507f4552433732313a20617070726f76616c20746f2063757272656e74206f776e6560008301527f72000000000000000000000000000000000000000000000000000000000000006020830152604082019050919050565b6000613832601d83614318565b91507f646174613a6170706c69636174696f6e2f6a736f6e3b6261736536342c0000006000830152601d82019050919050565b6000613872603183614307565b91507f4552433732313a207472616e736665722063616c6c6572206973206e6f74206f60008301527f776e6572206e6f7220617070726f7665640000000000000000000000000000006020830152604082019050919050565b60006138d8603d83614318565b91507f222c202261747472696275746573223a205b207b202274726169745f7479706560008301527f223a20224865616c746820506f696e7473222c202276616c7565223a200000006020830152603d82019050919050565b600061393e602d83614318565b91507f7d2c207b202274726169745f74797065223a202241747461636b2044616d616760008301527f65222c202276616c7565223a20000000000000000000000000000000000000006020830152602d82019050919050565b60006139a4602f83614307565b91507f4e6f7468696e6720746f2061747461636b2e2054686520626f7373206861732060008301527f616c7265616479206465666561742100000000000000000000000000000000006020830152604082019050919050565b6000613a0a602883614307565b91507f556e61626c6520746f2061747461636b2c206865726f206973206f7574206f6660008301527f2048502e205249500000000000000000000000000000000000000000000000006020830152604082019050919050565b600060a0830160008301518482036000860152613a80828261317a565b91505060208301518482036020860152613a9a828261317a565b9150506040830151613aaf6040860182613c00565b506060830151613ac26060860182613c00565b506080830151613ad56080860182613c00565b508091505092915050565b600060c083016000830151613af86000860182613c00565b5060208301518482036020860152613b10828261317a565b91505060408301518482036040860152613b2a828261317a565b9150506060830151613b3f6060860182613c00565b506080830151613b526080860182613c00565b5060a0830151613b6560a0860182613c00565b508091505092915050565b600060c083016000830151613b886000860182613c00565b5060208301518482036020860152613ba0828261317a565b91505060408301518482036040860152613bba828261317a565b9150506060830151613bcf6060860182613c00565b506080830151613be26080860182613c00565b5060a0830151613bf560a0860182613c00565b508091505092915050565b613c09816144a2565b82525050565b613c18816144a2565b82525050565b6000613c298261377f565b9150613c3582896131ec565b9150613c408261321d565b9150613c4c82886131ec565b9150613c5782613581565b9150613c6382876131ec565b9150613c6e826138cb565b9150613c7a82866131ec565b9150613c8582613303565b9150613c9182856131ec565b9150613c9c82613931565b9150613ca882846131ec565b9150613cb382613633565b9150819050979650505050505050565b6000613cce82613825565b9150613cda82846131ec565b915081905092915050565b6000602082019050613cfa60008301846130ae565b92915050565b6000608082019050613d1560008301876130ae565b613d2260208301866130ae565b613d2f6040830185613c0f565b8181036060830152613d418184613141565b905095945050505050565b6000606082019050613d6160008301866130ae565b613d6e6020830185613c0f565b613d7b6040830184613c0f565b949350505050565b60006020820190508181036000830152613d9d81846130bd565b905092915050565b6000602082019050613dba6000830184613132565b92915050565b60006020820190508181036000830152613dda81846131b3565b905092915050565b60006080820190508181036000830152613dfc81876131b3565b90508181036020830152613e1081866131b3565b9050613e1f6040830185613c0f565b8181036060830152613e3181846131b3565b905095945050505050565b60006080820190508181036000830152613e5681876131b3565b90508181036020830152613e6a81866131b3565b9050613e796040830185613c0f565b613e866060830184613c0f565b95945050505050565b600060a0820190508181036000830152613ea981886131b3565b90508181036020830152613ebd81876131b3565b9050613ecc6040830186613c0f565b613ed96060830185613c0f565b613ee66080830184613c0f565b9695505050505050565b60006040820190508181036000830152613f0a81856131b3565b9050613f196020830184613c0f565b9392505050565b60006060820190508181036000830152613f3a81866131b3565b9050613f496020830185613c0f565b613f566040830184613c0f565b949350505050565b60006020820190508181036000830152613f778161325d565b9050919050565b60006020820190508181036000830152613f97816132c3565b9050919050565b60006020820190508181036000830152613fb781613343565b9050919050565b60006020820190508181036000830152613fd7816133a9565b9050919050565b60006020820190508181036000830152613ff7816133e9565b9050919050565b600060208201905081810360008301526140178161344f565b9050919050565b60006020820190508181036000830152614037816134b5565b9050919050565b600060208201905081810360008301526140578161351b565b9050919050565b6000602082019050818103600083015261407781613673565b9050919050565b60006020820190508181036000830152614097816136b3565b9050919050565b600060208201905081810360008301526140b781613719565b9050919050565b600060208201905081810360008301526140d7816137bf565b9050919050565b600060208201905081810360008301526140f781613865565b9050919050565b6000602082019050818103600083015261411781613997565b9050919050565b60006020820190508181036000830152614137816139fd565b9050919050565b600060208201905081810360008301526141588184613a63565b905092915050565b6000602082019050818103600083015261417a8184613b70565b905092915050565b60006020820190506141976000830184613c0f565b92915050565b600060c0820190506141b26000830189613c0f565b81810360208301526141c481886131b3565b905081810360408301526141d881876131b3565b90506141e76060830186613c0f565b6141f46080830185613c0f565b61420160a0830184613c0f565b979650505050505050565b60006040820190506142216000830185613c0f565b61422e6020830184613c0f565b9392505050565b6000604051905081810181811067ffffffffffffffff8211171561425c5761425b614627565b5b8060405250919050565b600067ffffffffffffffff82111561428157614280614627565b5b601f19601f8301169050602081019050919050565b6000819050602082019050919050565b600081519050919050565b600081519050919050565b600081519050919050565b6000602082019050919050565b600082825260208201905092915050565b600082825260208201905092915050565b600082825260208201905092915050565b600082825260208201905092915050565b600081905092915050565b600061432e826144a2565b9150614339836144a2565b9250827fffffffffffffffffffffffffffffffffffffffffffffffffffffffffffffffff0382111561436e5761436d61459a565b5b828201905092915050565b6000614384826144a2565b915061438f836144a2565b92508261439f5761439e6145c9565b5b828204905092915050565b60006143b5826144a2565b91506143c0836144a2565b9250817fffffffffffffffffffffffffffffffffffffffffffffffffffffffffffffffff04831182151516156143f9576143f861459a565b5b828202905092915050565b600061440f826144a2565b915061441a836144a2565b92508282101561442d5761442c61459a565b5b828203905092915050565b600061444382614482565b9050919050565b60008115159050919050565b60007fffffffff0000000000000000000000000000000000000000000000000000000082169050919050565b600073ffffffffffffffffffffffffffffffffffffffff82169050919050565b6000819050919050565b82818337600083830152505050565b60005b838110156144d95780820151818401526020810190506144be565b838111156144e8576000848401525b50505050565b6000600282049050600182168061450657607f821691505b6020821081141561451a576145196145f8565b5b50919050565b600061452b826144a2565b91507fffffffffffffffffffffffffffffffffffffffffffffffffffffffffffffffff82141561455e5761455d61459a565b5b600182019050919050565b6000614574826144a2565b915061457f836144a2565b92508261458f5761458e6145c9565b5b828206905092915050565b7f4e487b7100000000000000000000000000000000000000000000000000000000600052601160045260246000fd5b7f4e487b7100000000000000000000000000000000000000000000000000000000600052601260045260246000fd5b7f4e487b7100000000000000000000000000000000000000000000000000000000600052602260045260246000fd5b7f4e487b7100000000000000000000000000000000000000000000000000000000600052604160045260246000fd5b6000601f19601f8301169050919050565b61467081614438565b811461467b57600080fd5b50565b6146878161444a565b811461469257600080fd5b50565b61469e81614456565b81146146a957600080fd5b50565b6146b5816144a2565b81146146c057600080fd5b5056fe25732061626f757420746f2061747461636b2e2048617320257320485020616e642025732041444865726f2061747461636b656420626f73732e204e657720626f73732068703a2025734142434445464748494a4b4c4d4e4f505152535455565758595a6162636465666768696a6b6c6d6e6f707172737475767778797a303132333435363738392b2f426f73732061747461636b6564206865726f2e204e6577206865726f2068703a2025730a4d696e746564204e465420772f20746f6b656e496420257320616e6420636861726163746572496e646578202573a2646970667358221220b572b489893091636f39c995f0159c3261c08aacd0a10ff15464645a10d7008764736f6c63430008000033446f6e6520696e697469616c697a696e67206865726f3a20257320772f2048502025732c20696d67202573446f6e6520696e697469616c697a696e6720626f73733a20257320772f2048502025732c20696d67202573",
  "linkReferences": {},
  "deployedLinkReferences": {}
}