{
    "_format": "hh-sol-artifact-1",
    "contractName": "EpicNFT",
    "sourceName": "contracts/EpicNFT.sol",
    "abi": [
        {
            "inputs": [],
            "stateMutability": "nonpayable",
            "type": "constructor"
        },
        {
            "anonymous": false,
            "inputs": [
                {
                    "indexed": true,
                    "internalType": "address",
                    "name": "owner",
                    "type": "address"
                },
                {
                    "indexed": true,
                    "internalType": "address",
                    "name": "approved",
                    "type": "address"
                },
                {
                    "indexed": true,
                    "internalType": "uint256",
                    "name": "tokenId",
                    "type": "uint256"
                }
            ],
            "name": "Approval",
            "type": "event"
        },
        {
            "anonymous": false,
            "inputs": [
                {
                    "indexed": true,
                    "internalType": "address",
                    "name": "owner",
                    "type": "address"
                },
                {
                    "indexed": true,
                    "internalType": "address",
                    "name": "operator",
                    "type": "address"
                },
                {
                    "indexed": false,
                    "internalType": "bool",
                    "name": "approved",
                    "type": "bool"
                }
            ],
            "name": "ApprovalForAll",
            "type": "event"
        },
        {
            "anonymous": false,
            "inputs": [
                {
                    "indexed": true,
                    "internalType": "address",
                    "name": "from",
                    "type": "address"
                },
                {
                    "indexed": true,
                    "internalType": "address",
                    "name": "to",
                    "type": "address"
                },
                {
                    "indexed": true,
                    "internalType": "uint256",
                    "name": "tokenId",
                    "type": "uint256"
                }
            ],
            "name": "Transfer",
            "type": "event"
        },
        {
            "inputs": [
                {
                    "internalType": "address",
                    "name": "to",
                    "type": "address"
                },
                {
                    "internalType": "uint256",
                    "name": "tokenId",
                    "type": "uint256"
                }
            ],
            "name": "approve",
            "outputs": [],
            "stateMutability": "nonpayable",
            "type": "function"
        },
        {
            "inputs": [
                {
                    "internalType": "address",
                    "name": "owner",
                    "type": "address"
                }
            ],
            "name": "balanceOf",
            "outputs": [
                {
                    "internalType": "uint256",
                    "name": "",
                    "type": "uint256"
                }
            ],
            "stateMutability": "view",
            "type": "function"
        },
        {
            "inputs": [
                {
                    "internalType": "uint256",
                    "name": "tokenId",
                    "type": "uint256"
                }
            ],
            "name": "getApproved",
            "outputs": [
                {
                    "internalType": "address",
                    "name": "",
                    "type": "address"
                }
            ],
            "stateMutability": "view",
            "type": "function"
        },
        {
            "inputs": [
                {
                    "internalType": "address",
                    "name": "owner",
                    "type": "address"
                },
                {
                    "internalType": "address",
                    "name": "operator",
                    "type": "address"
                }
            ],
            "name": "isApprovedForAll",
            "outputs": [
                {
                    "internalType": "bool",
                    "name": "",
                    "type": "bool"
                }
            ],
            "stateMutability": "view",
            "type": "function"
        },
        {
            "inputs": [],
            "name": "makeAnEpicNft",
            "outputs": [],
            "stateMutability": "nonpayable",
            "type": "function"
        },
        {
            "inputs": [],
            "name": "name",
            "outputs": [
                {
                    "internalType": "string",
                    "name": "",
                    "type": "string"
                }
            ],
            "stateMutability": "view",
            "type": "function"
        },
        {
            "inputs": [
                {
                    "internalType": "uint256",
                    "name": "tokenId",
                    "type": "uint256"
                }
            ],
            "name": "ownerOf",
            "outputs": [
                {
                    "internalType": "address",
                    "name": "",
                    "type": "address"
                }
            ],
            "stateMutability": "view",
            "type": "function"
        },
        {
            "inputs": [
                {
                    "internalType": "address",
                    "name": "from",
                    "type": "address"
                },
                {
                    "internalType": "address",
                    "name": "to",
                    "type": "address"
                },
                {
                    "internalType": "uint256",
                    "name": "tokenId",
                    "type": "uint256"
                }
            ],
            "name": "safeTransferFrom",
            "outputs": [],
            "stateMutability": "nonpayable",
            "type": "function"
        },
        {
            "inputs": [
                {
                    "internalType": "address",
                    "name": "from",
                    "type": "address"
                },
                {
                    "internalType": "address",
                    "name": "to",
                    "type": "address"
                },
                {
                    "internalType": "uint256",
                    "name": "tokenId",
                    "type": "uint256"
                },
                {
                    "internalType": "bytes",
                    "name": "_data",
                    "type": "bytes"
                }
            ],
            "name": "safeTransferFrom",
            "outputs": [],
            "stateMutability": "nonpayable",
            "type": "function"
        },
        {
            "inputs": [
                {
                    "internalType": "address",
                    "name": "operator",
                    "type": "address"
                },
                {
                    "internalType": "bool",
                    "name": "approved",
                    "type": "bool"
                }
            ],
            "name": "setApprovalForAll",
            "outputs": [],
            "stateMutability": "nonpayable",
            "type": "function"
        },
        {
            "inputs": [
                {
                    "internalType": "bytes4",
                    "name": "interfaceId",
                    "type": "bytes4"
                }
            ],
            "name": "supportsInterface",
            "outputs": [
                {
                    "internalType": "bool",
                    "name": "",
                    "type": "bool"
                }
            ],
            "stateMutability": "view",
            "type": "function"
        },
        {
            "inputs": [],
            "name": "symbol",
            "outputs": [
                {
                    "internalType": "string",
                    "name": "",
                    "type": "string"
                }
            ],
            "stateMutability": "view",
            "type": "function"
        },
        {
            "inputs": [
                {
                    "internalType": "uint256",
                    "name": "tokenId",
                    "type": "uint256"
                }
            ],
            "name": "tokenURI",
            "outputs": [
                {
                    "internalType": "string",
                    "name": "",
                    "type": "string"
                }
            ],
            "stateMutability": "view",
            "type": "function"
        },
        {
            "inputs": [
                {
                    "internalType": "address",
                    "name": "from",
                    "type": "address"
                },
                {
                    "internalType": "address",
                    "name": "to",
                    "type": "address"
                },
                {
                    "internalType": "uint256",
                    "name": "tokenId",
                    "type": "uint256"
                }
            ],
            "name": "transferFrom",
            "outputs": [],
            "stateMutability": "nonpayable",
            "type": "function"
        }
    ],
    "bytecode": "0x608060405260405180610160016040528061012f8152602001620045df61012f9139600890805190602001906200003892919062000af5565b506040518060400160405280600d81526020017f3c2f746578743e3c2f7376673e00000000000000000000000000000000000000815250600990805190602001906200008692919062000af5565b506040518061018001604052806040518060400160405280600681526020017f416374697665000000000000000000000000000000000000000000000000000081525081526020016040518060400160405280600c81526020017f416666656374696f6e617465000000000000000000000000000000000000000081525081526020016040518060400160405280600781526020017f437572696f75730000000000000000000000000000000000000000000000000081525081526020016040518060400160405280600981526020017f45617379676f696e67000000000000000000000000000000000000000000000081525081526020016040518060400160405280600b81526020017f496e71756973697469766500000000000000000000000000000000000000000081525081526020016040518060400160405280600b81526020017f496e74656c6c6967656e7400000000000000000000000000000000000000000081525081526020016040518060400160405280600b81526020017f496e74657261637469766500000000000000000000000000000000000000000081525081526020016040518060400160405280601381526020017f467269656e646c7947656e746c654c6f79616c0000000000000000000000000081525081526020016040518060400160405280600781526020017f506c617966756c0000000000000000000000000000000000000000000000000081525081526020016040518060400160405280600981526020017f53656e736974697665000000000000000000000000000000000000000000000081525081526020016040518060400160405280600581526020017f537765657400000000000000000000000000000000000000000000000000000081525081526020016040518060400160405280600681526020017f536f6369616c0000000000000000000000000000000000000000000000000000815250815250600a90600c6200036792919062000b86565b506040518061012001604052806040518060400160405280600881526020017f4174686c6574696300000000000000000000000000000000000000000000000081525081526020016040518060400160405280600481526020017f427566660000000000000000000000000000000000000000000000000000000081525081526020016040518060400160405280600681526020017f436875626279000000000000000000000000000000000000000000000000000081525081526020016040518060400160405280600a81526020017f4c65616e5061746368790000000000000000000000000000000000000000000081525081526020016040518060400160405280600581526020017f506c756d7000000000000000000000000000000000000000000000000000000081525081526020016040518060400160405280600781526020017f536c656e6465720000000000000000000000000000000000000000000000000081525081526020016040518060400160405280600781526020017f53706f747465640000000000000000000000000000000000000000000000000081525081526020016040518060400160405280600781526020017f537472697065640000000000000000000000000000000000000000000000000081525081526020016040518060400160405280600681526020017f5269707065640000000000000000000000000000000000000000000000000000815250815250600b9060096200059792919062000bed565b50604051806101e001604052806040518060400160405280600781526020017f526167646f6c6c0000000000000000000000000000000000000000000000000081525081526020016040518060400160405280600f81526020017f45786f74696353686f727468616972000000000000000000000000000000000081525081526020016040518060400160405280601081526020017f4272697469736853686f7274686169720000000000000000000000000000000081525081526020016040518060400160405280600781526020017f5065727369616e0000000000000000000000000000000000000000000000000081525081526020016040518060400160405280600981526020017f4d61696e65436f6f6e000000000000000000000000000000000000000000000081525081526020016040518060400160405280601181526020017f416d65726963616e53686f72746861697200000000000000000000000000000081525081526020016040518060400160405280600881526020017f4465766f6e52657800000000000000000000000000000000000000000000000081525081526020016040518060400160405280600681526020017f537068796e78000000000000000000000000000000000000000000000000000081525081526020016040518060400160405280600d81526020017f53636f747469736820466f6c640000000000000000000000000000000000000081525081526020016040518060400160405280600a81526020017f4162797373696e69616e0000000000000000000000000000000000000000000081525081526020016040518060400160405280600881526020017f4f7269656e74616c00000000000000000000000000000000000000000000000081525081526020016040518060400160405280600781526020017f5369616d6573650000000000000000000000000000000000000000000000000081525081526020016040518060400160405280600681526020017f42656e67616c000000000000000000000000000000000000000000000000000081525081526020016040518060400160405280600b81526020017f5275737369616e426c756500000000000000000000000000000000000000000081525081526020016040518060400160405280600881526020017f536962657269616e000000000000000000000000000000000000000000000000815250815250600c90600f6200092992919062000c54565b503480156200093757600080fd5b506040518060400160405280600981526020017f5371756172654e465400000000000000000000000000000000000000000000008152506040518060400160405280600681526020017f53515541524500000000000000000000000000000000000000000000000000008152508160009080519060200190620009bc92919062000af5565b508060019080519060200190620009d592919062000af5565b50505062000a236040518060400160405280601381526020017f457069634e465420636f6e7374727563746f720000000000000000000000000081525062000a2960201b620011001760201c565b62000e75565b62000ac98160405160240162000a40919062000d89565b6040516020818303038152906040527f41304fac000000000000000000000000000000000000000000000000000000007bffffffffffffffffffffffffffffffffffffffffffffffffffffffff19166020820180517bffffffffffffffffffffffffffffffffffffffffffffffffffffffff838183161783525050505062000acc60201b60201c565b50565b60008151905060006a636f6e736f6c652e6c6f679050602083016000808483855afa5050505050565b82805462000b039062000dff565b90600052602060002090601f01602090048101928262000b27576000855562000b73565b82601f1062000b4257805160ff191683800117855562000b73565b8280016001018555821562000b73579182015b8281111562000b7257825182559160200191906001019062000b55565b5b50905062000b82919062000cbb565b5090565b82805482825590600052602060002090810192821562000bda579160200282015b8281111562000bd957825182908051906020019062000bc892919062000af5565b509160200191906001019062000ba7565b5b50905062000be9919062000cda565b5090565b82805482825590600052602060002090810192821562000c41579160200282015b8281111562000c4057825182908051906020019062000c2f92919062000af5565b509160200191906001019062000c0e565b5b50905062000c50919062000cda565b5090565b82805482825590600052602060002090810192821562000ca8579160200282015b8281111562000ca757825182908051906020019062000c9692919062000af5565b509160200191906001019062000c75565b5b50905062000cb7919062000cda565b5090565b5b8082111562000cd657600081600090555060010162000cbc565b5090565b5b8082111562000cfe576000818162000cf4919062000d02565b5060010162000cdb565b5090565b50805462000d109062000dff565b6000825580601f1062000d24575062000d45565b601f01602090049060005260206000209081019062000d44919062000cbb565b5b50565b600062000d558262000dad565b62000d61818562000db8565b935062000d7381856020860162000dc9565b62000d7e8162000e64565b840191505092915050565b6000602082019050818103600083015262000da5818462000d48565b905092915050565b600081519050919050565b600082825260208201905092915050565b60005b8381101562000de957808201518184015260208101905062000dcc565b8381111562000df9576000848401525b50505050565b6000600282049050600182168062000e1857607f821691505b6020821081141562000e2f5762000e2e62000e35565b5b50919050565b7f4e487b7100000000000000000000000000000000000000000000000000000000600052602260045260246000fd5b6000601f19601f8301169050919050565b61375a8062000e856000396000f3fe608060405234801561001057600080fd5b50600436106100ea5760003560e01c806370a082311161008c578063a22cb46511610066578063a22cb46514610249578063b88d4fde14610265578063c87b56dd14610281578063e985e9c5146102b1576100ea565b806370a08231146101f157806375dd5f841461022157806395d89b411461022b576100ea565b8063095ea7b3116100c8578063095ea7b31461016d57806323b872dd1461018957806342842e0e146101a55780636352211e146101c1576100ea565b806301ffc9a7146100ef57806306fdde031461011f578063081812fc1461013d575b600080fd5b61010960048036038101906101049190612425565b6102e1565b6040516101169190612a16565b60405180910390f35b6101276103c3565b6040516101349190612a31565b60405180910390f35b61015760048036038101906101529190612477565b610455565b60405161016491906129af565b60405180910390f35b610187600480360381019061018291906123e9565b6104da565b005b6101a3600480360381019061019e91906122e3565b6105f2565b005b6101bf60048036038101906101ba91906122e3565b610652565b005b6101db60048036038101906101d69190612477565b610672565b6040516101e891906129af565b60405180910390f35b61020b6004803603810190610206919061227e565b610724565b6040516102189190612c91565b60405180910390f35b6102296107dc565b005b610233610ca5565b6040516102409190612a31565b60405180910390f35b610263600480360381019061025e91906123ad565b610d37565b005b61027f600480360381019061027a9190612332565b610eb8565b005b61029b60048036038101906102969190612477565b610f1a565b6040516102a89190612a31565b60405180910390f35b6102cb60048036038101906102c691906122a7565b61106c565b6040516102d89190612a16565b60405180910390f35b60007f80ac58cd000000000000000000000000000000000000000000000000000000007bffffffffffffffffffffffffffffffffffffffffffffffffffffffff1916827bffffffffffffffffffffffffffffffffffffffffffffffffffffffff191614806103ac57507f5b5e139f000000000000000000000000000000000000000000000000000000007bffffffffffffffffffffffffffffffffffffffffffffffffffffffff1916827bffffffffffffffffffffffffffffffffffffffffffffffffffffffff1916145b806103bc57506103bb82611199565b5b9050919050565b6060600080546103d290612f25565b80601f01602080910402602001604051908101604052809291908181526020018280546103fe90612f25565b801561044b5780601f106104205761010080835404028352916020019161044b565b820191906000526020600020905b81548152906001019060200180831161042e57829003601f168201915b5050505050905090565b600061046082611203565b61049f576040517f08c379a000000000000000000000000000000000000000000000000000000000815260040161049690612bf1565b60405180910390fd5b6004600083815260200190815260200160002060009054906101000a900473ffffffffffffffffffffffffffffffffffffffff169050919050565b60006104e582610672565b90508073ffffffffffffffffffffffffffffffffffffffff168373ffffffffffffffffffffffffffffffffffffffff161415610556576040517f08c379a000000000000000000000000000000000000000000000000000000000815260040161054d90612c51565b60405180910390fd5b8073ffffffffffffffffffffffffffffffffffffffff1661057561126f565b73ffffffffffffffffffffffffffffffffffffffff1614806105a457506105a38161059e61126f565b61106c565b5b6105e3576040517f08c379a00000000000000000000000000000000000000000000000000000000081526004016105da90612b31565b60405180910390fd5b6105ed8383611277565b505050565b6106036105fd61126f565b82611330565b610642576040517f08c379a000000000000000000000000000000000000000000000000000000000815260040161063990612c71565b60405180910390fd5b61064d83838361140e565b505050565b61066d83838360405180602001604052806000815250610eb8565b505050565b6000806002600084815260200190815260200160002060009054906101000a900473ffffffffffffffffffffffffffffffffffffffff169050600073ffffffffffffffffffffffffffffffffffffffff168173ffffffffffffffffffffffffffffffffffffffff16141561071b576040517f08c379a000000000000000000000000000000000000000000000000000000000815260040161071290612b71565b60405180910390fd5b80915050919050565b60008073ffffffffffffffffffffffffffffffffffffffff168273ffffffffffffffffffffffffffffffffffffffff161415610795576040517f08c379a000000000000000000000000000000000000000000000000000000000815260040161078c90612b51565b60405180910390fd5b600360008373ffffffffffffffffffffffffffffffffffffffff1673ffffffffffffffffffffffffffffffffffffffff168152602001908152602001600020549050919050565b60006107e8600761166a565b905060006108fd6040518060400160405280600a81526020017f46495253545f574f524400000000000000000000000000000000000000000000815250600a805480602002602001604051908101604052809291908181526020016000905b828210156108f357838290600052602060002001805461086690612f25565b80601f016020809104026020016040519081016040528092919081815260200182805461089290612f25565b80156108df5780601f106108b4576101008083540402835291602001916108df565b820191906000526020600020905b8154815290600101906020018083116108c257829003601f168201915b505050505081526020019060010190610847565b5050505084611678565b90506000610a126040518060400160405280600b81526020017f5345434f4e445f574f5244000000000000000000000000000000000000000000815250600b805480602002602001604051908101604052809291908181526020016000905b82821015610a0857838290600052602060002001805461097b90612f25565b80601f01602080910402602001604051908101604052809291908181526020018280546109a790612f25565b80156109f45780601f106109c9576101008083540402835291602001916109f4565b820191906000526020600020905b8154815290600101906020018083116109d757829003601f168201915b50505050508152602001906001019061095c565b5050505085611678565b90506000610b276040518060400160405280600a81526020017f54484952445f574f524400000000000000000000000000000000000000000000815250600c805480602002602001604051908101604052809291908181526020016000905b82821015610b1d578382906000526020600020018054610a9090612f25565b80601f0160208091040260200160405190810160405280929190818152602001828054610abc90612f25565b8015610b095780601f10610ade57610100808354040283529160200191610b09565b820191906000526020600020905b815481529060010190602001808311610aec57829003601f168201915b505050505081526020019060010190610a71565b5050505086611678565b90506000838383604051602001610b40939291906128e6565b604051602081830303815290604052905060006008826009604051602001610b6a93929190612917565b60405160208183030381529060405290506000610baf83610b8a8461170a565b604051602001610b9b929190612948565b60405160208183030381529060405261170a565b9050600081604051602001610bc4919061298d565b6040516020818303038152906040529050610c136040518060400160405280601581526020017f0a2d2d2d2d2d2d2d2d2d2d2d2d2d2d2d2d2d2d2d2d0000000000000000000000815250611100565b610c1c81611100565b610c5a6040518060400160405280601581526020017f2d2d2d2d2d2d2d2d2d2d2d2d2d2d2d2d2d2d2d2d0a0000000000000000000000815250611100565b610c6433896118c8565b610c6e88826118e6565b610c78600761195a565b610c9b6040518060600160405280602581526020016136c0602591398933611970565b5050505050505050565b606060018054610cb490612f25565b80601f0160208091040260200160405190810160405280929190818152602001828054610ce090612f25565b8015610d2d5780601f10610d0257610100808354040283529160200191610d2d565b820191906000526020600020905b815481529060010190602001808311610d1057829003601f168201915b5050505050905090565b610d3f61126f565b73ffffffffffffffffffffffffffffffffffffffff168273ffffffffffffffffffffffffffffffffffffffff161415610dad576040517f08c379a0000000000000000000000000000000000000000000000000000000008152600401610da490612af1565b60405180910390fd5b8060056000610dba61126f565b73ffffffffffffffffffffffffffffffffffffffff1673ffffffffffffffffffffffffffffffffffffffff16815260200190815260200160002060008473ffffffffffffffffffffffffffffffffffffffff1673ffffffffffffffffffffffffffffffffffffffff16815260200190815260200160002060006101000a81548160ff0219169083151502179055508173ffffffffffffffffffffffffffffffffffffffff16610e6761126f565b73ffffffffffffffffffffffffffffffffffffffff167f17307eab39ab6107e8899845ad3d59bd9653f200f220920489ca2b5937696c3183604051610eac9190612a16565b60405180910390a35050565b610ec9610ec361126f565b83611330565b610f08576040517f08c379a0000000000000000000000000000000000000000000000000000000008152600401610eff90612c71565b60405180910390fd5b610f1484848484611a0f565b50505050565b6060610f2582611203565b610f64576040517f08c379a0000000000000000000000000000000000000000000000000000000008152600401610f5b90612bd1565b60405180910390fd5b6000600660008481526020019081526020016000208054610f8490612f25565b80601f0160208091040260200160405190810160405280929190818152602001828054610fb090612f25565b8015610ffd5780601f10610fd257610100808354040283529160200191610ffd565b820191906000526020600020905b815481529060010190602001808311610fe057829003601f168201915b50505050509050600061100e611a6b565b9050600081511415611024578192505050611067565b6000825111156110595780826040516020016110419291906128c2565b60405160208183030381529060405292505050611067565b61106284611a82565b925050505b919050565b6000600560008473ffffffffffffffffffffffffffffffffffffffff1673ffffffffffffffffffffffffffffffffffffffff16815260200190815260200160002060008373ffffffffffffffffffffffffffffffffffffffff1673ffffffffffffffffffffffffffffffffffffffff16815260200190815260200160002060009054906101000a900460ff16905092915050565b611196816040516024016111149190612a31565b6040516020818303038152906040527f41304fac000000000000000000000000000000000000000000000000000000007bffffffffffffffffffffffffffffffffffffffffffffffffffffffff19166020820180517bffffffffffffffffffffffffffffffffffffffffffffffffffffffff8381831617835250505050611b29565b50565b60007f01ffc9a7000000000000000000000000000000000000000000000000000000007bffffffffffffffffffffffffffffffffffffffffffffffffffffffff1916827bffffffffffffffffffffffffffffffffffffffffffffffffffffffff1916149050919050565b60008073ffffffffffffffffffffffffffffffffffffffff166002600084815260200190815260200160002060009054906101000a900473ffffffffffffffffffffffffffffffffffffffff1673ffffffffffffffffffffffffffffffffffffffff1614159050919050565b600033905090565b816004600083815260200190815260200160002060006101000a81548173ffffffffffffffffffffffffffffffffffffffff021916908373ffffffffffffffffffffffffffffffffffffffff160217905550808273ffffffffffffffffffffffffffffffffffffffff166112ea83610672565b73ffffffffffffffffffffffffffffffffffffffff167f8c5be1e5ebec7d5bd14f71427d1e84f3dd0314c0f7b2291e5b200ac8c7c3b92560405160405180910390a45050565b600061133b82611203565b61137a576040517f08c379a000000000000000000000000000000000000000000000000000000000815260040161137190612b11565b60405180910390fd5b600061138583610672565b90508073ffffffffffffffffffffffffffffffffffffffff168473ffffffffffffffffffffffffffffffffffffffff1614806113f457508373ffffffffffffffffffffffffffffffffffffffff166113dc84610455565b73ffffffffffffffffffffffffffffffffffffffff16145b806114055750611404818561106c565b5b91505092915050565b8273ffffffffffffffffffffffffffffffffffffffff1661142e82610672565b73ffffffffffffffffffffffffffffffffffffffff1614611484576040517f08c379a000000000000000000000000000000000000000000000000000000000815260040161147b90612c11565b60405180910390fd5b600073ffffffffffffffffffffffffffffffffffffffff168273ffffffffffffffffffffffffffffffffffffffff1614156114f4576040517f08c379a00000000000000000000000000000000000000000000000000000000081526004016114eb90612ad1565b60405180910390fd5b6114ff838383611b52565b61150a600082611277565b6001600360008573ffffffffffffffffffffffffffffffffffffffff1673ffffffffffffffffffffffffffffffffffffffff168152602001908152602001600020600082825461155a9190612e3b565b925050819055506001600360008473ffffffffffffffffffffffffffffffffffffffff1673ffffffffffffffffffffffffffffffffffffffff16815260200190815260200160002060008282546115b19190612d5a565b92505081905550816002600083815260200190815260200160002060006101000a81548173ffffffffffffffffffffffffffffffffffffffff021916908373ffffffffffffffffffffffffffffffffffffffff160217905550808273ffffffffffffffffffffffffffffffffffffffff168473ffffffffffffffffffffffffffffffffffffffff167fddf252ad1be2c89b69c2b068fc378daa952ba7f163c4a11628f55a4df523b3ef60405160405180910390a4505050565b600081600001549050919050565b606060006116ae8561168985611b57565b60405160200161169a9291906128c2565b604051602081830303815290604052611d04565b90508351816116bd9190612fd1565b90508381815181106116f8577f4e487b7100000000000000000000000000000000000000000000000000000000600052603260045260246000fd5b60200260200101519150509392505050565b6060600082519050600081141561173357604051806020016040528060008152509150506118c3565b600060036002836117449190612d5a565b61174e9190612db0565b600461175a9190612de1565b9050600060208261176b9190612d5a565b67ffffffffffffffff8111156117aa577f4e487b7100000000000000000000000000000000000000000000000000000000600052604160045260246000fd5b6040519080825280601f01601f1916602001820160405280156117dc5781602001600182028036833780820191505090505b50905060006040518060600160405280604081526020016136e5604091399050600181016020830160005b868110156118805760038101905062ffffff818a015116603f8160121c168401518060081b905060ff603f83600c1c1686015116810190508060081b905060ff603f8360061c1686015116810190508060081b905060ff603f831686015116810190508060e01b90508084526004840193505050611807565b50600386066001811461189a57600281146118aa576118b5565b613d3d60f01b60028303526118b5565b603d60f81b60018303525b508484525050819450505050505b919050565b6118e2828260405180602001604052806000815250611d37565b5050565b6118ef82611203565b61192e576040517f08c379a000000000000000000000000000000000000000000000000000000000815260040161192590612b91565b60405180910390fd5b8060066000848152602001908152602001600020908051906020019061195592919061210a565b505050565b6001816000016000828254019250508190555050565b611a0a83838360405160240161198893929190612a53565b6040516020818303038152906040527fe3849f79000000000000000000000000000000000000000000000000000000007bffffffffffffffffffffffffffffffffffffffffffffffffffffffff19166020820180517bffffffffffffffffffffffffffffffffffffffffffffffffffffffff8381831617835250505050611b29565b505050565b611a1a84848461140e565b611a2684848484611d92565b611a65576040517f08c379a0000000000000000000000000000000000000000000000000000000008152600401611a5c90612a91565b60405180910390fd5b50505050565b606060405180602001604052806000815250905090565b6060611a8d82611203565b611acc576040517f08c379a0000000000000000000000000000000000000000000000000000000008152600401611ac390612c31565b60405180910390fd5b6000611ad6611a6b565b90506000815111611af65760405180602001604052806000815250611b21565b80611b0084611b57565b604051602001611b119291906128c2565b6040516020818303038152906040525b915050919050565b60008151905060006a636f6e736f6c652e6c6f679050602083016000808483855afa5050505050565b505050565b60606000821415611b9f576040518060400160405280600181526020017f30000000000000000000000000000000000000000000000000000000000000008152509050611cff565b600082905060005b60008214611bd1578080611bba90612f88565b915050600a82611bca9190612db0565b9150611ba7565b60008167ffffffffffffffff811115611c13577f4e487b7100000000000000000000000000000000000000000000000000000000600052604160045260246000fd5b6040519080825280601f01601f191660200182016040528015611c455781602001600182028036833780820191505090505b5090505b60008514611cf857600182611c5e9190612e3b565b9150600a85611c6d9190612fd1565b6030611c799190612d5a565b60f81b818381518110611cb5577f4e487b7100000000000000000000000000000000000000000000000000000000600052603260045260246000fd5b60200101907effffffffffffffffffffffffffffffffffffffffffffffffffffffffffffff1916908160001a905350600a85611cf19190612db0565b9450611c49565b8093505050505b919050565b600081604051602001611d1791906128ab565b6040516020818303038152906040528051906020012060001c9050919050565b611d418383611f29565b611d4e6000848484611d92565b611d8d576040517f08c379a0000000000000000000000000000000000000000000000000000000008152600401611d8490612a91565b60405180910390fd5b505050565b6000611db38473ffffffffffffffffffffffffffffffffffffffff166120f7565b15611f1c578373ffffffffffffffffffffffffffffffffffffffff1663150b7a02611ddc61126f565b8786866040518563ffffffff1660e01b8152600401611dfe94939291906129ca565b602060405180830381600087803b158015611e1857600080fd5b505af1925050508015611e4957506040513d601f19601f82011682018060405250810190611e46919061244e565b60015b611ecc573d8060008114611e79576040519150601f19603f3d011682016040523d82523d6000602084013e611e7e565b606091505b50600081511415611ec4576040517f08c379a0000000000000000000000000000000000000000000000000000000008152600401611ebb90612a91565b60405180910390fd5b805181602001fd5b63150b7a0260e01b7bffffffffffffffffffffffffffffffffffffffffffffffffffffffff1916817bffffffffffffffffffffffffffffffffffffffffffffffffffffffff191614915050611f21565b600190505b949350505050565b600073ffffffffffffffffffffffffffffffffffffffff168273ffffffffffffffffffffffffffffffffffffffff161415611f99576040517f08c379a0000000000000000000000000000000000000000000000000000000008152600401611f9090612bb1565b60405180910390fd5b611fa281611203565b15611fe2576040517f08c379a0000000000000000000000000000000000000000000000000000000008152600401611fd990612ab1565b60405180910390fd5b611fee60008383611b52565b6001600360008473ffffffffffffffffffffffffffffffffffffffff1673ffffffffffffffffffffffffffffffffffffffff168152602001908152602001600020600082825461203e9190612d5a565b92505081905550816002600083815260200190815260200160002060006101000a81548173ffffffffffffffffffffffffffffffffffffffff021916908373ffffffffffffffffffffffffffffffffffffffff160217905550808273ffffffffffffffffffffffffffffffffffffffff16600073ffffffffffffffffffffffffffffffffffffffff167fddf252ad1be2c89b69c2b068fc378daa952ba7f163c4a11628f55a4df523b3ef60405160405180910390a45050565b600080823b905060008111915050919050565b82805461211690612f25565b90600052602060002090601f016020900481019282612138576000855561217f565b82601f1061215157805160ff191683800117855561217f565b8280016001018555821561217f579182015b8281111561217e578251825591602001919060010190612163565b5b50905061218c9190612190565b5090565b5b808211156121a9576000816000905550600101612191565b5090565b60006121c06121bb84612cd1565b612cac565b9050828152602081018484840111156121d857600080fd5b6121e3848285612ee3565b509392505050565b6000813590506121fa81613663565b92915050565b60008135905061220f8161367a565b92915050565b60008135905061222481613691565b92915050565b60008151905061223981613691565b92915050565b600082601f83011261225057600080fd5b81356122608482602086016121ad565b91505092915050565b600081359050612278816136a8565b92915050565b60006020828403121561229057600080fd5b600061229e848285016121eb565b91505092915050565b600080604083850312156122ba57600080fd5b60006122c8858286016121eb565b92505060206122d9858286016121eb565b9150509250929050565b6000806000606084860312156122f857600080fd5b6000612306868287016121eb565b9350506020612317868287016121eb565b925050604061232886828701612269565b9150509250925092565b6000806000806080858703121561234857600080fd5b6000612356878288016121eb565b9450506020612367878288016121eb565b935050604061237887828801612269565b925050606085013567ffffffffffffffff81111561239557600080fd5b6123a18782880161223f565b91505092959194509250565b600080604083850312156123c057600080fd5b60006123ce858286016121eb565b92505060206123df85828601612200565b9150509250929050565b600080604083850312156123fc57600080fd5b600061240a858286016121eb565b925050602061241b85828601612269565b9150509250929050565b60006020828403121561243757600080fd5b600061244584828501612215565b91505092915050565b60006020828403121561246057600080fd5b600061246e8482850161222a565b91505092915050565b60006020828403121561248957600080fd5b600061249784828501612269565b91505092915050565b6124a981612e6f565b82525050565b6124b881612e81565b82525050565b60006124c982612d17565b6124d38185612d2d565b93506124e3818560208601612ef2565b6124ec816130be565b840191505092915050565b600061250282612d22565b61250c8185612d3e565b935061251c818560208601612ef2565b612525816130be565b840191505092915050565b600061253b82612d22565b6125458185612d4f565b9350612555818560208601612ef2565b80840191505092915050565b6000815461256e81612f25565b6125788186612d4f565b9450600182166000811461259357600181146125a4576125d7565b60ff198316865281860193506125d7565b6125ad85612d02565b60005b838110156125cf578154818901526001820191506020810190506125b0565b838801955050505b50505092915050565b60006125ed603283612d3e565b91506125f8826130cf565b604082019050919050565b6000612610601c83612d3e565b915061261b8261311e565b602082019050919050565b6000612633602483612d3e565b915061263e82613147565b604082019050919050565b6000612656601983612d3e565b915061266182613196565b602082019050919050565b6000612679606383612d4f565b9150612684826131bf565b606382019050919050565b600061269c602c83612d3e565b91506126a78261325a565b604082019050919050565b60006126bf603883612d3e565b91506126ca826132a9565b604082019050919050565b60006126e2602a83612d3e565b91506126ed826132f8565b604082019050919050565b6000612705602983612d3e565b915061271082613347565b604082019050919050565b6000612728602e83612d3e565b915061273382613396565b604082019050919050565b600061274b600283612d4f565b9150612756826133e5565b600282019050919050565b600061276e602083612d3e565b91506127798261340e565b602082019050919050565b6000612791603183612d3e565b915061279c82613437565b604082019050919050565b60006127b4602c83612d3e565b91506127bf82613486565b604082019050919050565b60006127d7602983612d3e565b91506127e2826134d5565b604082019050919050565b60006127fa602f83612d3e565b915061280582613524565b604082019050919050565b600061281d600a83612d4f565b915061282882613573565b600a82019050919050565b6000612840602183612d3e565b915061284b8261359c565b604082019050919050565b6000612863601d83612d4f565b915061286e826135eb565b601d82019050919050565b6000612886603183612d3e565b915061289182613614565b604082019050919050565b6128a581612ed9565b82525050565b60006128b78284612530565b915081905092915050565b60006128ce8285612530565b91506128da8284612530565b91508190509392505050565b60006128f28286612530565b91506128fe8285612530565b915061290a8284612530565b9150819050949350505050565b60006129238286612561565b915061292f8285612530565b915061293b8284612561565b9150819050949350505050565b600061295382612810565b915061295f8285612530565b915061296a8261266c565b91506129768284612530565b91506129818261273e565b91508190509392505050565b600061299882612856565b91506129a48284612530565b915081905092915050565b60006020820190506129c460008301846124a0565b92915050565b60006080820190506129df60008301876124a0565b6129ec60208301866124a0565b6129f9604083018561289c565b8181036060830152612a0b81846124be565b905095945050505050565b6000602082019050612a2b60008301846124af565b92915050565b60006020820190508181036000830152612a4b81846124f7565b905092915050565b60006060820190508181036000830152612a6d81866124f7565b9050612a7c602083018561289c565b612a8960408301846124a0565b949350505050565b60006020820190508181036000830152612aaa816125e0565b9050919050565b60006020820190508181036000830152612aca81612603565b9050919050565b60006020820190508181036000830152612aea81612626565b9050919050565b60006020820190508181036000830152612b0a81612649565b9050919050565b60006020820190508181036000830152612b2a8161268f565b9050919050565b60006020820190508181036000830152612b4a816126b2565b9050919050565b60006020820190508181036000830152612b6a816126d5565b9050919050565b60006020820190508181036000830152612b8a816126f8565b9050919050565b60006020820190508181036000830152612baa8161271b565b9050919050565b60006020820190508181036000830152612bca81612761565b9050919050565b60006020820190508181036000830152612bea81612784565b9050919050565b60006020820190508181036000830152612c0a816127a7565b9050919050565b60006020820190508181036000830152612c2a816127ca565b9050919050565b60006020820190508181036000830152612c4a816127ed565b9050919050565b60006020820190508181036000830152612c6a81612833565b9050919050565b60006020820190508181036000830152612c8a81612879565b9050919050565b6000602082019050612ca6600083018461289c565b92915050565b6000612cb6612cc7565b9050612cc28282612f57565b919050565b6000604051905090565b600067ffffffffffffffff821115612cec57612ceb61308f565b5b612cf5826130be565b9050602081019050919050565b60008190508160005260206000209050919050565b600081519050919050565b600081519050919050565b600082825260208201905092915050565b600082825260208201905092915050565b600081905092915050565b6000612d6582612ed9565b9150612d7083612ed9565b9250827fffffffffffffffffffffffffffffffffffffffffffffffffffffffffffffffff03821115612da557612da4613002565b5b828201905092915050565b6000612dbb82612ed9565b9150612dc683612ed9565b925082612dd657612dd5613031565b5b828204905092915050565b6000612dec82612ed9565b9150612df783612ed9565b9250817fffffffffffffffffffffffffffffffffffffffffffffffffffffffffffffffff0483118215151615612e3057612e2f613002565b5b828202905092915050565b6000612e4682612ed9565b9150612e5183612ed9565b925082821015612e6457612e63613002565b5b828203905092915050565b6000612e7a82612eb9565b9050919050565b60008115159050919050565b60007fffffffff0000000000000000000000000000000000000000000000000000000082169050919050565b600073ffffffffffffffffffffffffffffffffffffffff82169050919050565b6000819050919050565b82818337600083830152505050565b60005b83811015612f10578082015181840152602081019050612ef5565b83811115612f1f576000848401525b50505050565b60006002820490506001821680612f3d57607f821691505b60208210811415612f5157612f50613060565b5b50919050565b612f60826130be565b810181811067ffffffffffffffff82111715612f7f57612f7e61308f565b5b80604052505050565b6000612f9382612ed9565b91507fffffffffffffffffffffffffffffffffffffffffffffffffffffffffffffffff821415612fc657612fc5613002565b5b600182019050919050565b6000612fdc82612ed9565b9150612fe783612ed9565b925082612ff757612ff6613031565b5b828206905092915050565b7f4e487b7100000000000000000000000000000000000000000000000000000000600052601160045260246000fd5b7f4e487b7100000000000000000000000000000000000000000000000000000000600052601260045260246000fd5b7f4e487b7100000000000000000000000000000000000000000000000000000000600052602260045260246000fd5b7f4e487b7100000000000000000000000000000000000000000000000000000000600052604160045260246000fd5b6000601f19601f8301169050919050565b7f4552433732313a207472616e7366657220746f206e6f6e20455243373231526560008201527f63656976657220696d706c656d656e7465720000000000000000000000000000602082015250565b7f4552433732313a20746f6b656e20616c7265616479206d696e74656400000000600082015250565b7f4552433732313a207472616e7366657220746f20746865207a65726f2061646460008201527f7265737300000000000000000000000000000000000000000000000000000000602082015250565b7f4552433732313a20617070726f766520746f2063616c6c657200000000000000600082015250565b7f222c20226465736372697074696f6e223a20224120686967686c79206163636c60008201527f61696d656420636f6c6c656374696f6e206f6620737175617265732e222c202260208201527f696d616765223a2022646174613a696d6167652f7376672b786d6c3b6261736560408201527f36342c0000000000000000000000000000000000000000000000000000000000606082015250565b7f4552433732313a206f70657261746f7220717565727920666f72206e6f6e657860008201527f697374656e7420746f6b656e0000000000000000000000000000000000000000602082015250565b7f4552433732313a20617070726f76652063616c6c6572206973206e6f74206f7760008201527f6e6572206e6f7220617070726f76656420666f7220616c6c0000000000000000602082015250565b7f4552433732313a2062616c616e636520717565727920666f7220746865207a6560008201527f726f206164647265737300000000000000000000000000000000000000000000602082015250565b7f4552433732313a206f776e657220717565727920666f72206e6f6e657869737460008201527f656e7420746f6b656e0000000000000000000000000000000000000000000000602082015250565b7f45524337323155524953746f726167653a2055524920736574206f66206e6f6e60008201527f6578697374656e7420746f6b656e000000000000000000000000000000000000602082015250565b7f227d000000000000000000000000000000000000000000000000000000000000600082015250565b7f4552433732313a206d696e7420746f20746865207a65726f2061646472657373600082015250565b7f45524337323155524953746f726167653a2055524920717565727920666f722060008201527f6e6f6e6578697374656e7420746f6b656e000000000000000000000000000000602082015250565b7f4552433732313a20617070726f76656420717565727920666f72206e6f6e657860008201527f697374656e7420746f6b656e0000000000000000000000000000000000000000602082015250565b7f4552433732313a207472616e73666572206f6620746f6b656e2074686174206960008201527f73206e6f74206f776e0000000000000000000000000000000000000000000000602082015250565b7f4552433732314d657461646174613a2055524920717565727920666f72206e6f60008201527f6e6578697374656e7420746f6b656e0000000000000000000000000000000000602082015250565b7f7b226e616d65223a202200000000000000000000000000000000000000000000600082015250565b7f4552433732313a20617070726f76616c20746f2063757272656e74206f776e6560008201527f7200000000000000000000000000000000000000000000000000000000000000602082015250565b7f646174613a6170706c69636174696f6e2f6a736f6e3b6261736536342c000000600082015250565b7f4552433732313a207472616e736665722063616c6c6572206973206e6f74206f60008201527f776e6572206e6f7220617070726f766564000000000000000000000000000000602082015250565b61366c81612e6f565b811461367757600080fd5b50565b61368381612e81565b811461368e57600080fd5b50565b61369a81612e8d565b81146136a557600080fd5b50565b6136b181612ed9565b81146136bc57600080fd5b5056fe416e204e465420772f20494420257320686173206265656e206d696e74656420746f2025734142434445464748494a4b4c4d4e4f505152535455565758595a6162636465666768696a6b6c6d6e6f707172737475767778797a303132333435363738392b2fa26469706673582212209aed8b9932e63637dbc901714eb97c166a76449fd119f26f8159aa962a82746364736f6c634300080400333c73766720786d6c6e733d27687474703a2f2f7777772e77332e6f72672f323030302f73766727207072657365727665417370656374526174696f3d27784d696e594d696e206d656574272076696577426f783d273020302033353020333530273e3c7374796c653e2e62617365207b2066696c6c3a2077686974653b20666f6e742d66616d696c793a2073657269663b20666f6e742d73697a653a20323470783b207d3c2f7374796c653e3c726563742077696474683d273130302527206865696768743d2731303025272066696c6c3d27626c61636b27202f3e3c7465787420783d273530252720793d273530252720636c6173733d27626173652720646f6d696e616e742d626173656c696e653d276d6964646c652720746578742d616e63686f723d276d6964646c65273e",
    "linkReferences": {},
    "deployedLinkReferences": {}
}