{
  "_format": "hh-sol-artifact-1",
  "contractName": "EpicNFT",
  "sourceName": "contracts/EpicNFT.sol",
  "abi": [
    {
      "inputs": [],
      "stateMutability": "nonpayable",
      "type": "constructor"
    },
    {
      "anonymous": false,
      "inputs": [
        {
          "indexed": true,
          "internalType": "address",
          "name": "owner",
          "type": "address"
        },
        {
          "indexed": true,
          "internalType": "address",
          "name": "approved",
          "type": "address"
        },
        {
          "indexed": true,
          "internalType": "uint256",
          "name": "tokenId",
          "type": "uint256"
        }
      ],
      "name": "Approval",
      "type": "event"
    },
    {
      "anonymous": false,
      "inputs": [
        {
          "indexed": true,
          "internalType": "address",
          "name": "owner",
          "type": "address"
        },
        {
          "indexed": true,
          "internalType": "address",
          "name": "operator",
          "type": "address"
        },
        {
          "indexed": false,
          "internalType": "bool",
          "name": "approved",
          "type": "bool"
        }
      ],
      "name": "ApprovalForAll",
      "type": "event"
    },
    {
      "anonymous": false,
      "inputs": [
        {
          "indexed": false,
          "internalType": "address",
          "name": "sender",
          "type": "address"
        },
        {
          "indexed": false,
          "internalType": "uint256",
          "name": "tokenId",
          "type": "uint256"
        }
      ],
      "name": "NewEpicNFTMinted",
      "type": "event"
    },
    {
      "anonymous": false,
      "inputs": [
        {
          "indexed": true,
          "internalType": "address",
          "name": "from",
          "type": "address"
        },
        {
          "indexed": true,
          "internalType": "address",
          "name": "to",
          "type": "address"
        },
        {
          "indexed": true,
          "internalType": "uint256",
          "name": "tokenId",
          "type": "uint256"
        }
      ],
      "name": "Transfer",
      "type": "event"
    },
    {
      "inputs": [
        {
          "internalType": "address",
          "name": "to",
          "type": "address"
        },
        {
          "internalType": "uint256",
          "name": "tokenId",
          "type": "uint256"
        }
      ],
      "name": "approve",
      "outputs": [],
      "stateMutability": "nonpayable",
      "type": "function"
    },
    {
      "inputs": [
        {
          "internalType": "address",
          "name": "owner",
          "type": "address"
        }
      ],
      "name": "balanceOf",
      "outputs": [
        {
          "internalType": "uint256",
          "name": "",
          "type": "uint256"
        }
      ],
      "stateMutability": "view",
      "type": "function"
    },
    {
      "inputs": [
        {
          "internalType": "uint256",
          "name": "tokenId",
          "type": "uint256"
        }
      ],
      "name": "getApproved",
      "outputs": [
        {
          "internalType": "address",
          "name": "",
          "type": "address"
        }
      ],
      "stateMutability": "view",
      "type": "function"
    },
    {
      "inputs": [
        {
          "internalType": "address",
          "name": "owner",
          "type": "address"
        },
        {
          "internalType": "address",
          "name": "operator",
          "type": "address"
        }
      ],
      "name": "isApprovedForAll",
      "outputs": [
        {
          "internalType": "bool",
          "name": "",
          "type": "bool"
        }
      ],
      "stateMutability": "view",
      "type": "function"
    },
    {
      "inputs": [],
      "name": "makeAnEpicNft",
      "outputs": [],
      "stateMutability": "nonpayable",
      "type": "function"
    },
    {
      "inputs": [],
      "name": "name",
      "outputs": [
        {
          "internalType": "string",
          "name": "",
          "type": "string"
        }
      ],
      "stateMutability": "view",
      "type": "function"
    },
    {
      "inputs": [
        {
          "internalType": "uint256",
          "name": "tokenId",
          "type": "uint256"
        }
      ],
      "name": "ownerOf",
      "outputs": [
        {
          "internalType": "address",
          "name": "",
          "type": "address"
        }
      ],
      "stateMutability": "view",
      "type": "function"
    },
    {
      "inputs": [
        {
          "internalType": "address",
          "name": "from",
          "type": "address"
        },
        {
          "internalType": "address",
          "name": "to",
          "type": "address"
        },
        {
          "internalType": "uint256",
          "name": "tokenId",
          "type": "uint256"
        }
      ],
      "name": "safeTransferFrom",
      "outputs": [],
      "stateMutability": "nonpayable",
      "type": "function"
    },
    {
      "inputs": [
        {
          "internalType": "address",
          "name": "from",
          "type": "address"
        },
        {
          "internalType": "address",
          "name": "to",
          "type": "address"
        },
        {
          "internalType": "uint256",
          "name": "tokenId",
          "type": "uint256"
        },
        {
          "internalType": "bytes",
          "name": "_data",
          "type": "bytes"
        }
      ],
      "name": "safeTransferFrom",
      "outputs": [],
      "stateMutability": "nonpayable",
      "type": "function"
    },
    {
      "inputs": [
        {
          "internalType": "address",
          "name": "operator",
          "type": "address"
        },
        {
          "internalType": "bool",
          "name": "approved",
          "type": "bool"
        }
      ],
      "name": "setApprovalForAll",
      "outputs": [],
      "stateMutability": "nonpayable",
      "type": "function"
    },
    {
      "inputs": [
        {
          "internalType": "bytes4",
          "name": "interfaceId",
          "type": "bytes4"
        }
      ],
      "name": "supportsInterface",
      "outputs": [
        {
          "internalType": "bool",
          "name": "",
          "type": "bool"
        }
      ],
      "stateMutability": "view",
      "type": "function"
    },
    {
      "inputs": [],
      "name": "symbol",
      "outputs": [
        {
          "internalType": "string",
          "name": "",
          "type": "string"
        }
      ],
      "stateMutability": "view",
      "type": "function"
    },
    {
      "inputs": [
        {
          "internalType": "uint256",
          "name": "tokenId",
          "type": "uint256"
        }
      ],
      "name": "tokenURI",
      "outputs": [
        {
          "internalType": "string",
          "name": "",
          "type": "string"
        }
      ],
      "stateMutability": "view",
      "type": "function"
    },
    {
      "inputs": [
        {
          "internalType": "address",
          "name": "from",
          "type": "address"
        },
        {
          "internalType": "address",
          "name": "to",
          "type": "address"
        },
        {
          "internalType": "uint256",
          "name": "tokenId",
          "type": "uint256"
        }
      ],
      "name": "transferFrom",
      "outputs": [],
      "stateMutability": "nonpayable",
      "type": "function"
    }
  ],
  "bytecode": "0x608060405260405180610160016040528061012f81526020016200464161012f9139600890805190602001906200003892919062000af5565b506040518060400160405280600d81526020017f3c2f746578743e3c2f7376673e00000000000000000000000000000000000000815250600990805190602001906200008692919062000af5565b506040518061018001604052806040518060400160405280600681526020017f416374697665000000000000000000000000000000000000000000000000000081525081526020016040518060400160405280600c81526020017f416666656374696f6e617465000000000000000000000000000000000000000081525081526020016040518060400160405280600781526020017f437572696f75730000000000000000000000000000000000000000000000000081525081526020016040518060400160405280600981526020017f45617379676f696e67000000000000000000000000000000000000000000000081525081526020016040518060400160405280600b81526020017f496e71756973697469766500000000000000000000000000000000000000000081525081526020016040518060400160405280600b81526020017f496e74656c6c6967656e7400000000000000000000000000000000000000000081525081526020016040518060400160405280600b81526020017f496e74657261637469766500000000000000000000000000000000000000000081525081526020016040518060400160405280601381526020017f467269656e646c7947656e746c654c6f79616c0000000000000000000000000081525081526020016040518060400160405280600781526020017f506c617966756c0000000000000000000000000000000000000000000000000081525081526020016040518060400160405280600981526020017f53656e736974697665000000000000000000000000000000000000000000000081525081526020016040518060400160405280600581526020017f537765657400000000000000000000000000000000000000000000000000000081525081526020016040518060400160405280600681526020017f536f6369616c0000000000000000000000000000000000000000000000000000815250815250600a90600c6200036792919062000b86565b506040518061012001604052806040518060400160405280600881526020017f4174686c6574696300000000000000000000000000000000000000000000000081525081526020016040518060400160405280600481526020017f427566660000000000000000000000000000000000000000000000000000000081525081526020016040518060400160405280600681526020017f436875626279000000000000000000000000000000000000000000000000000081525081526020016040518060400160405280600a81526020017f4c65616e5061746368790000000000000000000000000000000000000000000081525081526020016040518060400160405280600581526020017f506c756d7000000000000000000000000000000000000000000000000000000081525081526020016040518060400160405280600781526020017f536c656e6465720000000000000000000000000000000000000000000000000081525081526020016040518060400160405280600781526020017f53706f747465640000000000000000000000000000000000000000000000000081525081526020016040518060400160405280600781526020017f537472697065640000000000000000000000000000000000000000000000000081525081526020016040518060400160405280600681526020017f5269707065640000000000000000000000000000000000000000000000000000815250815250600b9060096200059792919062000bed565b50604051806101e001604052806040518060400160405280600781526020017f526167646f6c6c0000000000000000000000000000000000000000000000000081525081526020016040518060400160405280600f81526020017f45786f74696353686f727468616972000000000000000000000000000000000081525081526020016040518060400160405280601081526020017f4272697469736853686f7274686169720000000000000000000000000000000081525081526020016040518060400160405280600781526020017f5065727369616e0000000000000000000000000000000000000000000000000081525081526020016040518060400160405280600981526020017f4d61696e65436f6f6e000000000000000000000000000000000000000000000081525081526020016040518060400160405280601181526020017f416d65726963616e53686f72746861697200000000000000000000000000000081525081526020016040518060400160405280600881526020017f4465766f6e52657800000000000000000000000000000000000000000000000081525081526020016040518060400160405280600681526020017f537068796e78000000000000000000000000000000000000000000000000000081525081526020016040518060400160405280600d81526020017f53636f747469736820466f6c640000000000000000000000000000000000000081525081526020016040518060400160405280600a81526020017f4162797373696e69616e0000000000000000000000000000000000000000000081525081526020016040518060400160405280600881526020017f4f7269656e74616c00000000000000000000000000000000000000000000000081525081526020016040518060400160405280600781526020017f5369616d6573650000000000000000000000000000000000000000000000000081525081526020016040518060400160405280600681526020017f42656e67616c000000000000000000000000000000000000000000000000000081525081526020016040518060400160405280600b81526020017f5275737369616e426c756500000000000000000000000000000000000000000081525081526020016040518060400160405280600881526020017f536962657269616e000000000000000000000000000000000000000000000000815250815250600c90600f6200092992919062000c54565b503480156200093757600080fd5b506040518060400160405280600981526020017f5371756172654e465400000000000000000000000000000000000000000000008152506040518060400160405280600681526020017f53515541524500000000000000000000000000000000000000000000000000008152508160009080519060200190620009bc92919062000af5565b508060019080519060200190620009d592919062000af5565b50505062000a236040518060400160405280601381526020017f457069634e465420636f6e7374727563746f720000000000000000000000000081525062000a2960201b620011391760201c565b62000e75565b62000ac98160405160240162000a40919062000d89565b6040516020818303038152906040527f41304fac000000000000000000000000000000000000000000000000000000007bffffffffffffffffffffffffffffffffffffffffffffffffffffffff19166020820180517bffffffffffffffffffffffffffffffffffffffffffffffffffffffff838183161783525050505062000acc60201b60201c565b50565b60008151905060006a636f6e736f6c652e6c6f679050602083016000808483855afa5050505050565b82805462000b039062000dff565b90600052602060002090601f01602090048101928262000b27576000855562000b73565b82601f1062000b4257805160ff191683800117855562000b73565b8280016001018555821562000b73579182015b8281111562000b7257825182559160200191906001019062000b55565b5b50905062000b82919062000cbb565b5090565b82805482825590600052602060002090810192821562000bda579160200282015b8281111562000bd957825182908051906020019062000bc892919062000af5565b509160200191906001019062000ba7565b5b50905062000be9919062000cda565b5090565b82805482825590600052602060002090810192821562000c41579160200282015b8281111562000c4057825182908051906020019062000c2f92919062000af5565b509160200191906001019062000c0e565b5b50905062000c50919062000cda565b5090565b82805482825590600052602060002090810192821562000ca8579160200282015b8281111562000ca757825182908051906020019062000c9692919062000af5565b509160200191906001019062000c75565b5b50905062000cb7919062000cda565b5090565b5b8082111562000cd657600081600090555060010162000cbc565b5090565b5b8082111562000cfe576000818162000cf4919062000d02565b5060010162000cdb565b5090565b50805462000d109062000dff565b6000825580601f1062000d24575062000d45565b601f01602090049060005260206000209081019062000d44919062000cbb565b5b50565b600062000d558262000dad565b62000d61818562000db8565b935062000d7381856020860162000dc9565b62000d7e8162000e64565b840191505092915050565b6000602082019050818103600083015262000da5818462000d48565b905092915050565b600081519050919050565b600082825260208201905092915050565b60005b8381101562000de957808201518184015260208101905062000dcc565b8381111562000df9576000848401525b50505050565b6000600282049050600182168062000e1857607f821691505b6020821081141562000e2f5762000e2e62000e35565b5b50919050565b7f4e487b7100000000000000000000000000000000000000000000000000000000600052602260045260246000fd5b6000601f19601f8301169050919050565b6137bc8062000e856000396000f3fe608060405234801561001057600080fd5b50600436106100ea5760003560e01c806370a082311161008c578063a22cb46511610066578063a22cb46514610249578063b88d4fde14610265578063c87b56dd14610281578063e985e9c5146102b1576100ea565b806370a08231146101f157806375dd5f841461022157806395d89b411461022b576100ea565b8063095ea7b3116100c8578063095ea7b31461016d57806323b872dd1461018957806342842e0e146101a55780636352211e146101c1576100ea565b806301ffc9a7146100ef57806306fdde031461011f578063081812fc1461013d575b600080fd5b6101096004803603810190610104919061245e565b6102e1565b6040516101169190612a78565b60405180910390f35b6101276103c3565b6040516101349190612a93565b60405180910390f35b610157600480360381019061015291906124b0565b610455565b60405161016491906129e8565b60405180910390f35b61018760048036038101906101829190612422565b6104da565b005b6101a3600480360381019061019e919061231c565b6105f2565b005b6101bf60048036038101906101ba919061231c565b610652565b005b6101db60048036038101906101d691906124b0565b610672565b6040516101e891906129e8565b60405180910390f35b61020b600480360381019061020691906122b7565b610724565b6040516102189190612cf3565b60405180910390f35b6102296107dc565b005b610233610cde565b6040516102409190612a93565b60405180910390f35b610263600480360381019061025e91906123e6565b610d70565b005b61027f600480360381019061027a919061236b565b610ef1565b005b61029b600480360381019061029691906124b0565b610f53565b6040516102a89190612a93565b60405180910390f35b6102cb60048036038101906102c691906122e0565b6110a5565b6040516102d89190612a78565b60405180910390f35b60007f80ac58cd000000000000000000000000000000000000000000000000000000007bffffffffffffffffffffffffffffffffffffffffffffffffffffffff1916827bffffffffffffffffffffffffffffffffffffffffffffffffffffffff191614806103ac57507f5b5e139f000000000000000000000000000000000000000000000000000000007bffffffffffffffffffffffffffffffffffffffffffffffffffffffff1916827bffffffffffffffffffffffffffffffffffffffffffffffffffffffff1916145b806103bc57506103bb826111d2565b5b9050919050565b6060600080546103d290612f87565b80601f01602080910402602001604051908101604052809291908181526020018280546103fe90612f87565b801561044b5780601f106104205761010080835404028352916020019161044b565b820191906000526020600020905b81548152906001019060200180831161042e57829003601f168201915b5050505050905090565b60006104608261123c565b61049f576040517f08c379a000000000000000000000000000000000000000000000000000000000815260040161049690612c53565b60405180910390fd5b6004600083815260200190815260200160002060009054906101000a900473ffffffffffffffffffffffffffffffffffffffff169050919050565b60006104e582610672565b90508073ffffffffffffffffffffffffffffffffffffffff168373ffffffffffffffffffffffffffffffffffffffff161415610556576040517f08c379a000000000000000000000000000000000000000000000000000000000815260040161054d90612cb3565b60405180910390fd5b8073ffffffffffffffffffffffffffffffffffffffff166105756112a8565b73ffffffffffffffffffffffffffffffffffffffff1614806105a457506105a38161059e6112a8565b6110a5565b5b6105e3576040517f08c379a00000000000000000000000000000000000000000000000000000000081526004016105da90612b93565b60405180910390fd5b6105ed83836112b0565b505050565b6106036105fd6112a8565b82611369565b610642576040517f08c379a000000000000000000000000000000000000000000000000000000000815260040161063990612cd3565b60405180910390fd5b61064d838383611447565b505050565b61066d83838360405180602001604052806000815250610ef1565b505050565b6000806002600084815260200190815260200160002060009054906101000a900473ffffffffffffffffffffffffffffffffffffffff169050600073ffffffffffffffffffffffffffffffffffffffff168173ffffffffffffffffffffffffffffffffffffffff16141561071b576040517f08c379a000000000000000000000000000000000000000000000000000000000815260040161071290612bd3565b60405180910390fd5b80915050919050565b60008073ffffffffffffffffffffffffffffffffffffffff168273ffffffffffffffffffffffffffffffffffffffff161415610795576040517f08c379a000000000000000000000000000000000000000000000000000000000815260040161078c90612bb3565b60405180910390fd5b600360008373ffffffffffffffffffffffffffffffffffffffff1673ffffffffffffffffffffffffffffffffffffffff168152602001908152602001600020549050919050565b60006107e860076116a3565b905060006108fd6040518060400160405280600a81526020017f46495253545f574f524400000000000000000000000000000000000000000000815250600a805480602002602001604051908101604052809291908181526020016000905b828210156108f357838290600052602060002001805461086690612f87565b80601f016020809104026020016040519081016040528092919081815260200182805461089290612f87565b80156108df5780601f106108b4576101008083540402835291602001916108df565b820191906000526020600020905b8154815290600101906020018083116108c257829003601f168201915b505050505081526020019060010190610847565b50505050846116b1565b90506000610a126040518060400160405280600b81526020017f5345434f4e445f574f5244000000000000000000000000000000000000000000815250600b805480602002602001604051908101604052809291908181526020016000905b82821015610a0857838290600052602060002001805461097b90612f87565b80601f01602080910402602001604051908101604052809291908181526020018280546109a790612f87565b80156109f45780601f106109c9576101008083540402835291602001916109f4565b820191906000526020600020905b8154815290600101906020018083116109d757829003601f168201915b50505050508152602001906001019061095c565b50505050856116b1565b90506000610b276040518060400160405280600a81526020017f54484952445f574f524400000000000000000000000000000000000000000000815250600c805480602002602001604051908101604052809291908181526020016000905b82821015610b1d578382906000526020600020018054610a9090612f87565b80601f0160208091040260200160405190810160405280929190818152602001828054610abc90612f87565b8015610b095780601f10610ade57610100808354040283529160200191610b09565b820191906000526020600020905b815481529060010190602001808311610aec57829003601f168201915b505050505081526020019060010190610a71565b50505050866116b1565b90506000838383604051602001610b409392919061291f565b604051602081830303815290604052905060006008826009604051602001610b6a93929190612950565b60405160208183030381529060405290506000610baf83610b8a84611743565b604051602001610b9b929190612981565b604051602081830303815290604052611743565b9050600081604051602001610bc491906129c6565b6040516020818303038152906040529050610c136040518060400160405280601581526020017f0a2d2d2d2d2d2d2d2d2d2d2d2d2d2d2d2d2d2d2d2d0000000000000000000000815250611139565b610c1c81611139565b610c5a6040518060400160405280601581526020017f2d2d2d2d2d2d2d2d2d2d2d2d2d2d2d2d2d2d2d2d0a0000000000000000000000815250611139565b610c643389611901565b610c6e888261191f565b610c786007611993565b610c9b6040518060600160405280602581526020016137226025913989336119a9565b7febb98688741ffa4c7589bf325de30cf7becb63de567842e1ccdb6cb949fdc82c3389604051610ccc929190612a4f565b60405180910390a15050505050505050565b606060018054610ced90612f87565b80601f0160208091040260200160405190810160405280929190818152602001828054610d1990612f87565b8015610d665780601f10610d3b57610100808354040283529160200191610d66565b820191906000526020600020905b815481529060010190602001808311610d4957829003601f168201915b5050505050905090565b610d786112a8565b73ffffffffffffffffffffffffffffffffffffffff168273ffffffffffffffffffffffffffffffffffffffff161415610de6576040517f08c379a0000000000000000000000000000000000000000000000000000000008152600401610ddd90612b53565b60405180910390fd5b8060056000610df36112a8565b73ffffffffffffffffffffffffffffffffffffffff1673ffffffffffffffffffffffffffffffffffffffff16815260200190815260200160002060008473ffffffffffffffffffffffffffffffffffffffff1673ffffffffffffffffffffffffffffffffffffffff16815260200190815260200160002060006101000a81548160ff0219169083151502179055508173ffffffffffffffffffffffffffffffffffffffff16610ea06112a8565b73ffffffffffffffffffffffffffffffffffffffff167f17307eab39ab6107e8899845ad3d59bd9653f200f220920489ca2b5937696c3183604051610ee59190612a78565b60405180910390a35050565b610f02610efc6112a8565b83611369565b610f41576040517f08c379a0000000000000000000000000000000000000000000000000000000008152600401610f3890612cd3565b60405180910390fd5b610f4d84848484611a48565b50505050565b6060610f5e8261123c565b610f9d576040517f08c379a0000000000000000000000000000000000000000000000000000000008152600401610f9490612c33565b60405180910390fd5b6000600660008481526020019081526020016000208054610fbd90612f87565b80601f0160208091040260200160405190810160405280929190818152602001828054610fe990612f87565b80156110365780601f1061100b57610100808354040283529160200191611036565b820191906000526020600020905b81548152906001019060200180831161101957829003601f168201915b505050505090506000611047611aa4565b905060008151141561105d5781925050506110a0565b60008251111561109257808260405160200161107a9291906128fb565b604051602081830303815290604052925050506110a0565b61109b84611abb565b925050505b919050565b6000600560008473ffffffffffffffffffffffffffffffffffffffff1673ffffffffffffffffffffffffffffffffffffffff16815260200190815260200160002060008373ffffffffffffffffffffffffffffffffffffffff1673ffffffffffffffffffffffffffffffffffffffff16815260200190815260200160002060009054906101000a900460ff16905092915050565b6111cf8160405160240161114d9190612a93565b6040516020818303038152906040527f41304fac000000000000000000000000000000000000000000000000000000007bffffffffffffffffffffffffffffffffffffffffffffffffffffffff19166020820180517bffffffffffffffffffffffffffffffffffffffffffffffffffffffff8381831617835250505050611b62565b50565b60007f01ffc9a7000000000000000000000000000000000000000000000000000000007bffffffffffffffffffffffffffffffffffffffffffffffffffffffff1916827bffffffffffffffffffffffffffffffffffffffffffffffffffffffff1916149050919050565b60008073ffffffffffffffffffffffffffffffffffffffff166002600084815260200190815260200160002060009054906101000a900473ffffffffffffffffffffffffffffffffffffffff1673ffffffffffffffffffffffffffffffffffffffff1614159050919050565b600033905090565b816004600083815260200190815260200160002060006101000a81548173ffffffffffffffffffffffffffffffffffffffff021916908373ffffffffffffffffffffffffffffffffffffffff160217905550808273ffffffffffffffffffffffffffffffffffffffff1661132383610672565b73ffffffffffffffffffffffffffffffffffffffff167f8c5be1e5ebec7d5bd14f71427d1e84f3dd0314c0f7b2291e5b200ac8c7c3b92560405160405180910390a45050565b60006113748261123c565b6113b3576040517f08c379a00000000000000000000000000000000000000000000000000000000081526004016113aa90612b73565b60405180910390fd5b60006113be83610672565b90508073ffffffffffffffffffffffffffffffffffffffff168473ffffffffffffffffffffffffffffffffffffffff16148061142d57508373ffffffffffffffffffffffffffffffffffffffff1661141584610455565b73ffffffffffffffffffffffffffffffffffffffff16145b8061143e575061143d81856110a5565b5b91505092915050565b8273ffffffffffffffffffffffffffffffffffffffff1661146782610672565b73ffffffffffffffffffffffffffffffffffffffff16146114bd576040517f08c379a00000000000000000000000000000000000000000000000000000000081526004016114b490612c73565b60405180910390fd5b600073ffffffffffffffffffffffffffffffffffffffff168273ffffffffffffffffffffffffffffffffffffffff16141561152d576040517f08c379a000000000000000000000000000000000000000000000000000000000815260040161152490612b33565b60405180910390fd5b611538838383611b8b565b6115436000826112b0565b6001600360008573ffffffffffffffffffffffffffffffffffffffff1673ffffffffffffffffffffffffffffffffffffffff16815260200190815260200160002060008282546115939190612e9d565b925050819055506001600360008473ffffffffffffffffffffffffffffffffffffffff1673ffffffffffffffffffffffffffffffffffffffff16815260200190815260200160002060008282546115ea9190612dbc565b92505081905550816002600083815260200190815260200160002060006101000a81548173ffffffffffffffffffffffffffffffffffffffff021916908373ffffffffffffffffffffffffffffffffffffffff160217905550808273ffffffffffffffffffffffffffffffffffffffff168473ffffffffffffffffffffffffffffffffffffffff167fddf252ad1be2c89b69c2b068fc378daa952ba7f163c4a11628f55a4df523b3ef60405160405180910390a4505050565b600081600001549050919050565b606060006116e7856116c285611b90565b6040516020016116d39291906128fb565b604051602081830303815290604052611d3d565b90508351816116f69190613033565b9050838181518110611731577f4e487b7100000000000000000000000000000000000000000000000000000000600052603260045260246000fd5b60200260200101519150509392505050565b6060600082519050600081141561176c57604051806020016040528060008152509150506118fc565b6000600360028361177d9190612dbc565b6117879190612e12565b60046117939190612e43565b905060006020826117a49190612dbc565b67ffffffffffffffff8111156117e3577f4e487b7100000000000000000000000000000000000000000000000000000000600052604160045260246000fd5b6040519080825280601f01601f1916602001820160405280156118155781602001600182028036833780820191505090505b5090506000604051806060016040528060408152602001613747604091399050600181016020830160005b868110156118b95760038101905062ffffff818a015116603f8160121c168401518060081b905060ff603f83600c1c1686015116810190508060081b905060ff603f8360061c1686015116810190508060081b905060ff603f831686015116810190508060e01b90508084526004840193505050611840565b5060038606600181146118d357600281146118e3576118ee565b613d3d60f01b60028303526118ee565b603d60f81b60018303525b508484525050819450505050505b919050565b61191b828260405180602001604052806000815250611d70565b5050565b6119288261123c565b611967576040517f08c379a000000000000000000000000000000000000000000000000000000000815260040161195e90612bf3565b60405180910390fd5b8060066000848152602001908152602001600020908051906020019061198e929190612143565b505050565b6001816000016000828254019250508190555050565b611a438383836040516024016119c193929190612ab5565b6040516020818303038152906040527fe3849f79000000000000000000000000000000000000000000000000000000007bffffffffffffffffffffffffffffffffffffffffffffffffffffffff19166020820180517bffffffffffffffffffffffffffffffffffffffffffffffffffffffff8381831617835250505050611b62565b505050565b611a53848484611447565b611a5f84848484611dcb565b611a9e576040517f08c379a0000000000000000000000000000000000000000000000000000000008152600401611a9590612af3565b60405180910390fd5b50505050565b606060405180602001604052806000815250905090565b6060611ac68261123c565b611b05576040517f08c379a0000000000000000000000000000000000000000000000000000000008152600401611afc90612c93565b60405180910390fd5b6000611b0f611aa4565b90506000815111611b2f5760405180602001604052806000815250611b5a565b80611b3984611b90565b604051602001611b4a9291906128fb565b6040516020818303038152906040525b915050919050565b60008151905060006a636f6e736f6c652e6c6f679050602083016000808483855afa5050505050565b505050565b60606000821415611bd8576040518060400160405280600181526020017f30000000000000000000000000000000000000000000000000000000000000008152509050611d38565b600082905060005b60008214611c0a578080611bf390612fea565b915050600a82611c039190612e12565b9150611be0565b60008167ffffffffffffffff811115611c4c577f4e487b7100000000000000000000000000000000000000000000000000000000600052604160045260246000fd5b6040519080825280601f01601f191660200182016040528015611c7e5781602001600182028036833780820191505090505b5090505b60008514611d3157600182611c979190612e9d565b9150600a85611ca69190613033565b6030611cb29190612dbc565b60f81b818381518110611cee577f4e487b7100000000000000000000000000000000000000000000000000000000600052603260045260246000fd5b60200101907effffffffffffffffffffffffffffffffffffffffffffffffffffffffffffff1916908160001a905350600a85611d2a9190612e12565b9450611c82565b8093505050505b919050565b600081604051602001611d5091906128e4565b6040516020818303038152906040528051906020012060001c9050919050565b611d7a8383611f62565b611d876000848484611dcb565b611dc6576040517f08c379a0000000000000000000000000000000000000000000000000000000008152600401611dbd90612af3565b60405180910390fd5b505050565b6000611dec8473ffffffffffffffffffffffffffffffffffffffff16612130565b15611f55578373ffffffffffffffffffffffffffffffffffffffff1663150b7a02611e156112a8565b8786866040518563ffffffff1660e01b8152600401611e379493929190612a03565b602060405180830381600087803b158015611e5157600080fd5b505af1925050508015611e8257506040513d601f19601f82011682018060405250810190611e7f9190612487565b60015b611f05573d8060008114611eb2576040519150601f19603f3d011682016040523d82523d6000602084013e611eb7565b606091505b50600081511415611efd576040517f08c379a0000000000000000000000000000000000000000000000000000000008152600401611ef490612af3565b60405180910390fd5b805181602001fd5b63150b7a0260e01b7bffffffffffffffffffffffffffffffffffffffffffffffffffffffff1916817bffffffffffffffffffffffffffffffffffffffffffffffffffffffff191614915050611f5a565b600190505b949350505050565b600073ffffffffffffffffffffffffffffffffffffffff168273ffffffffffffffffffffffffffffffffffffffff161415611fd2576040517f08c379a0000000000000000000000000000000000000000000000000000000008152600401611fc990612c13565b60405180910390fd5b611fdb8161123c565b1561201b576040517f08c379a000000000000000000000000000000000000000000000000000000000815260040161201290612b13565b60405180910390fd5b61202760008383611b8b565b6001600360008473ffffffffffffffffffffffffffffffffffffffff1673ffffffffffffffffffffffffffffffffffffffff16815260200190815260200160002060008282546120779190612dbc565b92505081905550816002600083815260200190815260200160002060006101000a81548173ffffffffffffffffffffffffffffffffffffffff021916908373ffffffffffffffffffffffffffffffffffffffff160217905550808273ffffffffffffffffffffffffffffffffffffffff16600073ffffffffffffffffffffffffffffffffffffffff167fddf252ad1be2c89b69c2b068fc378daa952ba7f163c4a11628f55a4df523b3ef60405160405180910390a45050565b600080823b905060008111915050919050565b82805461214f90612f87565b90600052602060002090601f01602090048101928261217157600085556121b8565b82601f1061218a57805160ff19168380011785556121b8565b828001600101855582156121b8579182015b828111156121b757825182559160200191906001019061219c565b5b5090506121c591906121c9565b5090565b5b808211156121e25760008160009055506001016121ca565b5090565b60006121f96121f484612d33565b612d0e565b90508281526020810184848401111561221157600080fd5b61221c848285612f45565b509392505050565b600081359050612233816136c5565b92915050565b600081359050612248816136dc565b92915050565b60008135905061225d816136f3565b92915050565b600081519050612272816136f3565b92915050565b600082601f83011261228957600080fd5b81356122998482602086016121e6565b91505092915050565b6000813590506122b18161370a565b92915050565b6000602082840312156122c957600080fd5b60006122d784828501612224565b91505092915050565b600080604083850312156122f357600080fd5b600061230185828601612224565b925050602061231285828601612224565b9150509250929050565b60008060006060848603121561233157600080fd5b600061233f86828701612224565b935050602061235086828701612224565b9250506040612361868287016122a2565b9150509250925092565b6000806000806080858703121561238157600080fd5b600061238f87828801612224565b94505060206123a087828801612224565b93505060406123b1878288016122a2565b925050606085013567ffffffffffffffff8111156123ce57600080fd5b6123da87828801612278565b91505092959194509250565b600080604083850312156123f957600080fd5b600061240785828601612224565b925050602061241885828601612239565b9150509250929050565b6000806040838503121561243557600080fd5b600061244385828601612224565b9250506020612454858286016122a2565b9150509250929050565b60006020828403121561247057600080fd5b600061247e8482850161224e565b91505092915050565b60006020828403121561249957600080fd5b60006124a784828501612263565b91505092915050565b6000602082840312156124c257600080fd5b60006124d0848285016122a2565b91505092915050565b6124e281612ed1565b82525050565b6124f181612ee3565b82525050565b600061250282612d79565b61250c8185612d8f565b935061251c818560208601612f54565b61252581613120565b840191505092915050565b600061253b82612d84565b6125458185612da0565b9350612555818560208601612f54565b61255e81613120565b840191505092915050565b600061257482612d84565b61257e8185612db1565b935061258e818560208601612f54565b80840191505092915050565b600081546125a781612f87565b6125b18186612db1565b945060018216600081146125cc57600181146125dd57612610565b60ff19831686528186019350612610565b6125e685612d64565b60005b83811015612608578154818901526001820191506020810190506125e9565b838801955050505b50505092915050565b6000612626603283612da0565b915061263182613131565b604082019050919050565b6000612649601c83612da0565b915061265482613180565b602082019050919050565b600061266c602483612da0565b9150612677826131a9565b604082019050919050565b600061268f601983612da0565b915061269a826131f8565b602082019050919050565b60006126b2606383612db1565b91506126bd82613221565b606382019050919050565b60006126d5602c83612da0565b91506126e0826132bc565b604082019050919050565b60006126f8603883612da0565b91506127038261330b565b604082019050919050565b600061271b602a83612da0565b91506127268261335a565b604082019050919050565b600061273e602983612da0565b9150612749826133a9565b604082019050919050565b6000612761602e83612da0565b915061276c826133f8565b604082019050919050565b6000612784600283612db1565b915061278f82613447565b600282019050919050565b60006127a7602083612da0565b91506127b282613470565b602082019050919050565b60006127ca603183612da0565b91506127d582613499565b604082019050919050565b60006127ed602c83612da0565b91506127f8826134e8565b604082019050919050565b6000612810602983612da0565b915061281b82613537565b604082019050919050565b6000612833602f83612da0565b915061283e82613586565b604082019050919050565b6000612856600a83612db1565b9150612861826135d5565b600a82019050919050565b6000612879602183612da0565b9150612884826135fe565b604082019050919050565b600061289c601d83612db1565b91506128a78261364d565b601d82019050919050565b60006128bf603183612da0565b91506128ca82613676565b604082019050919050565b6128de81612f3b565b82525050565b60006128f08284612569565b915081905092915050565b60006129078285612569565b91506129138284612569565b91508190509392505050565b600061292b8286612569565b91506129378285612569565b91506129438284612569565b9150819050949350505050565b600061295c828661259a565b91506129688285612569565b9150612974828461259a565b9150819050949350505050565b600061298c82612849565b91506129988285612569565b91506129a3826126a5565b91506129af8284612569565b91506129ba82612777565b91508190509392505050565b60006129d18261288f565b91506129dd8284612569565b915081905092915050565b60006020820190506129fd60008301846124d9565b92915050565b6000608082019050612a1860008301876124d9565b612a2560208301866124d9565b612a3260408301856128d5565b8181036060830152612a4481846124f7565b905095945050505050565b6000604082019050612a6460008301856124d9565b612a7160208301846128d5565b9392505050565b6000602082019050612a8d60008301846124e8565b92915050565b60006020820190508181036000830152612aad8184612530565b905092915050565b60006060820190508181036000830152612acf8186612530565b9050612ade60208301856128d5565b612aeb60408301846124d9565b949350505050565b60006020820190508181036000830152612b0c81612619565b9050919050565b60006020820190508181036000830152612b2c8161263c565b9050919050565b60006020820190508181036000830152612b4c8161265f565b9050919050565b60006020820190508181036000830152612b6c81612682565b9050919050565b60006020820190508181036000830152612b8c816126c8565b9050919050565b60006020820190508181036000830152612bac816126eb565b9050919050565b60006020820190508181036000830152612bcc8161270e565b9050919050565b60006020820190508181036000830152612bec81612731565b9050919050565b60006020820190508181036000830152612c0c81612754565b9050919050565b60006020820190508181036000830152612c2c8161279a565b9050919050565b60006020820190508181036000830152612c4c816127bd565b9050919050565b60006020820190508181036000830152612c6c816127e0565b9050919050565b60006020820190508181036000830152612c8c81612803565b9050919050565b60006020820190508181036000830152612cac81612826565b9050919050565b60006020820190508181036000830152612ccc8161286c565b9050919050565b60006020820190508181036000830152612cec816128b2565b9050919050565b6000602082019050612d0860008301846128d5565b92915050565b6000612d18612d29565b9050612d248282612fb9565b919050565b6000604051905090565b600067ffffffffffffffff821115612d4e57612d4d6130f1565b5b612d5782613120565b9050602081019050919050565b60008190508160005260206000209050919050565b600081519050919050565b600081519050919050565b600082825260208201905092915050565b600082825260208201905092915050565b600081905092915050565b6000612dc782612f3b565b9150612dd283612f3b565b9250827fffffffffffffffffffffffffffffffffffffffffffffffffffffffffffffffff03821115612e0757612e06613064565b5b828201905092915050565b6000612e1d82612f3b565b9150612e2883612f3b565b925082612e3857612e37613093565b5b828204905092915050565b6000612e4e82612f3b565b9150612e5983612f3b565b9250817fffffffffffffffffffffffffffffffffffffffffffffffffffffffffffffffff0483118215151615612e9257612e91613064565b5b828202905092915050565b6000612ea882612f3b565b9150612eb383612f3b565b925082821015612ec657612ec5613064565b5b828203905092915050565b6000612edc82612f1b565b9050919050565b60008115159050919050565b60007fffffffff0000000000000000000000000000000000000000000000000000000082169050919050565b600073ffffffffffffffffffffffffffffffffffffffff82169050919050565b6000819050919050565b82818337600083830152505050565b60005b83811015612f72578082015181840152602081019050612f57565b83811115612f81576000848401525b50505050565b60006002820490506001821680612f9f57607f821691505b60208210811415612fb357612fb26130c2565b5b50919050565b612fc282613120565b810181811067ffffffffffffffff82111715612fe157612fe06130f1565b5b80604052505050565b6000612ff582612f3b565b91507fffffffffffffffffffffffffffffffffffffffffffffffffffffffffffffffff82141561302857613027613064565b5b600182019050919050565b600061303e82612f3b565b915061304983612f3b565b92508261305957613058613093565b5b828206905092915050565b7f4e487b7100000000000000000000000000000000000000000000000000000000600052601160045260246000fd5b7f4e487b7100000000000000000000000000000000000000000000000000000000600052601260045260246000fd5b7f4e487b7100000000000000000000000000000000000000000000000000000000600052602260045260246000fd5b7f4e487b7100000000000000000000000000000000000000000000000000000000600052604160045260246000fd5b6000601f19601f8301169050919050565b7f4552433732313a207472616e7366657220746f206e6f6e20455243373231526560008201527f63656976657220696d706c656d656e7465720000000000000000000000000000602082015250565b7f4552433732313a20746f6b656e20616c7265616479206d696e74656400000000600082015250565b7f4552433732313a207472616e7366657220746f20746865207a65726f2061646460008201527f7265737300000000000000000000000000000000000000000000000000000000602082015250565b7f4552433732313a20617070726f766520746f2063616c6c657200000000000000600082015250565b7f222c20226465736372697074696f6e223a20224120686967686c79206163636c60008201527f61696d656420636f6c6c656374696f6e206f6620737175617265732e222c202260208201527f696d616765223a2022646174613a696d6167652f7376672b786d6c3b6261736560408201527f36342c0000000000000000000000000000000000000000000000000000000000606082015250565b7f4552433732313a206f70657261746f7220717565727920666f72206e6f6e657860008201527f697374656e7420746f6b656e0000000000000000000000000000000000000000602082015250565b7f4552433732313a20617070726f76652063616c6c6572206973206e6f74206f7760008201527f6e6572206e6f7220617070726f76656420666f7220616c6c0000000000000000602082015250565b7f4552433732313a2062616c616e636520717565727920666f7220746865207a6560008201527f726f206164647265737300000000000000000000000000000000000000000000602082015250565b7f4552433732313a206f776e657220717565727920666f72206e6f6e657869737460008201527f656e7420746f6b656e0000000000000000000000000000000000000000000000602082015250565b7f45524337323155524953746f726167653a2055524920736574206f66206e6f6e60008201527f6578697374656e7420746f6b656e000000000000000000000000000000000000602082015250565b7f227d000000000000000000000000000000000000000000000000000000000000600082015250565b7f4552433732313a206d696e7420746f20746865207a65726f2061646472657373600082015250565b7f45524337323155524953746f726167653a2055524920717565727920666f722060008201527f6e6f6e6578697374656e7420746f6b656e000000000000000000000000000000602082015250565b7f4552433732313a20617070726f76656420717565727920666f72206e6f6e657860008201527f697374656e7420746f6b656e0000000000000000000000000000000000000000602082015250565b7f4552433732313a207472616e73666572206f6620746f6b656e2074686174206960008201527f73206e6f74206f776e0000000000000000000000000000000000000000000000602082015250565b7f4552433732314d657461646174613a2055524920717565727920666f72206e6f60008201527f6e6578697374656e7420746f6b656e0000000000000000000000000000000000602082015250565b7f7b226e616d65223a202200000000000000000000000000000000000000000000600082015250565b7f4552433732313a20617070726f76616c20746f2063757272656e74206f776e6560008201527f7200000000000000000000000000000000000000000000000000000000000000602082015250565b7f646174613a6170706c69636174696f6e2f6a736f6e3b6261736536342c000000600082015250565b7f4552433732313a207472616e736665722063616c6c6572206973206e6f74206f60008201527f776e6572206e6f7220617070726f766564000000000000000000000000000000602082015250565b6136ce81612ed1565b81146136d957600080fd5b50565b6136e581612ee3565b81146136f057600080fd5b50565b6136fc81612eef565b811461370757600080fd5b50565b61371381612f3b565b811461371e57600080fd5b5056fe416e204e465420772f20494420257320686173206265656e206d696e74656420746f2025734142434445464748494a4b4c4d4e4f505152535455565758595a6162636465666768696a6b6c6d6e6f707172737475767778797a303132333435363738392b2fa2646970667358221220bceb46dcbf0bde9549b7e941219f47a3280fec13f031704a1de9e500081f271d64736f6c634300080400333c73766720786d6c6e733d27687474703a2f2f7777772e77332e6f72672f323030302f73766727207072657365727665417370656374526174696f3d27784d696e594d696e206d656574272076696577426f783d273020302033353020333530273e3c7374796c653e2e62617365207b2066696c6c3a2077686974653b20666f6e742d66616d696c793a2073657269663b20666f6e742d73697a653a20323470783b207d3c2f7374796c653e3c726563742077696474683d273130302527206865696768743d2731303025272066696c6c3d27626c61636b27202f3e3c7465787420783d273530252720793d273530252720636c6173733d27626173652720646f6d696e616e742d626173656c696e653d276d6964646c652720746578742d616e63686f723d276d6964646c65273e",
  "linkReferences": {},
  "deployedLinkReferences": {}
}