{
  "contractName": "DAO",
  "abi": [
    {
      "inputs": [
        {
          "internalType": "uint256",
          "name": "contributionTime",
          "type": "uint256"
        },
        {
          "internalType": "uint256",
          "name": "_voteTime",
          "type": "uint256"
        },
        {
          "internalType": "uint256",
          "name": "_quorum",
          "type": "uint256"
        }
      ],
      "stateMutability": "nonpayable",
      "type": "constructor"
    },
    {
      "inputs": [],
      "name": "admin",
      "outputs": [
        {
          "internalType": "address",
          "name": "",
          "type": "address"
        }
      ],
      "stateMutability": "view",
      "type": "function",
      "constant": true
    },
    {
      "inputs": [],
      "name": "availableFunds",
      "outputs": [
        {
          "internalType": "uint256",
          "name": "",
          "type": "uint256"
        }
      ],
      "stateMutability": "view",
      "type": "function",
      "constant": true
    },
    {
      "inputs": [],
      "name": "contributionEnd",
      "outputs": [
        {
          "internalType": "uint256",
          "name": "",
          "type": "uint256"
        }
      ],
      "stateMutability": "view",
      "type": "function",
      "constant": true
    },
    {
      "inputs": [
        {
          "internalType": "address",
          "name": "",
          "type": "address"
        }
      ],
      "name": "investors",
      "outputs": [
        {
          "internalType": "bool",
          "name": "",
          "type": "bool"
        }
      ],
      "stateMutability": "view",
      "type": "function",
      "constant": true
    },
    {
      "inputs": [],
      "name": "nextProposalId",
      "outputs": [
        {
          "internalType": "uint256",
          "name": "",
          "type": "uint256"
        }
      ],
      "stateMutability": "view",
      "type": "function",
      "constant": true
    },
    {
      "inputs": [
        {
          "internalType": "uint256",
          "name": "",
          "type": "uint256"
        }
      ],
      "name": "proposals",
      "outputs": [
        {
          "internalType": "uint256",
          "name": "id",
          "type": "uint256"
        },
        {
          "internalType": "string",
          "name": "name",
          "type": "string"
        },
        {
          "internalType": "uint256",
          "name": "amount",
          "type": "uint256"
        },
        {
          "internalType": "address payable",
          "name": "recipient",
          "type": "address"
        },
        {
          "internalType": "uint256",
          "name": "votes",
          "type": "uint256"
        },
        {
          "internalType": "uint256",
          "name": "end",
          "type": "uint256"
        },
        {
          "internalType": "bool",
          "name": "executed",
          "type": "bool"
        }
      ],
      "stateMutability": "view",
      "type": "function",
      "constant": true
    },
    {
      "inputs": [],
      "name": "quorum",
      "outputs": [
        {
          "internalType": "uint256",
          "name": "",
          "type": "uint256"
        }
      ],
      "stateMutability": "view",
      "type": "function",
      "constant": true
    },
    {
      "inputs": [
        {
          "internalType": "address",
          "name": "",
          "type": "address"
        }
      ],
      "name": "shares",
      "outputs": [
        {
          "internalType": "uint256",
          "name": "",
          "type": "uint256"
        }
      ],
      "stateMutability": "view",
      "type": "function",
      "constant": true
    },
    {
      "inputs": [],
      "name": "totalShares",
      "outputs": [
        {
          "internalType": "uint256",
          "name": "",
          "type": "uint256"
        }
      ],
      "stateMutability": "view",
      "type": "function",
      "constant": true
    },
    {
      "inputs": [],
      "name": "voteTime",
      "outputs": [
        {
          "internalType": "uint256",
          "name": "",
          "type": "uint256"
        }
      ],
      "stateMutability": "view",
      "type": "function",
      "constant": true
    },
    {
      "inputs": [
        {
          "internalType": "address",
          "name": "",
          "type": "address"
        },
        {
          "internalType": "uint256",
          "name": "",
          "type": "uint256"
        }
      ],
      "name": "votes",
      "outputs": [
        {
          "internalType": "bool",
          "name": "",
          "type": "bool"
        }
      ],
      "stateMutability": "view",
      "type": "function",
      "constant": true
    },
    {
      "stateMutability": "payable",
      "type": "receive",
      "payable": true
    },
    {
      "inputs": [],
      "name": "contribute",
      "outputs": [],
      "stateMutability": "payable",
      "type": "function",
      "payable": true
    },
    {
      "inputs": [
        {
          "internalType": "uint256",
          "name": "amount",
          "type": "uint256"
        }
      ],
      "name": "redeemShares",
      "outputs": [],
      "stateMutability": "nonpayable",
      "type": "function"
    },
    {
      "inputs": [
        {
          "internalType": "uint256",
          "name": "amount",
          "type": "uint256"
        },
        {
          "internalType": "address",
          "name": "to",
          "type": "address"
        }
      ],
      "name": "transferShares",
      "outputs": [],
      "stateMutability": "nonpayable",
      "type": "function"
    },
    {
      "inputs": [
        {
          "internalType": "string",
          "name": "name",
          "type": "string"
        },
        {
          "internalType": "uint256",
          "name": "amount",
          "type": "uint256"
        },
        {
          "internalType": "address payable",
          "name": "recipient",
          "type": "address"
        }
      ],
      "name": "createProposal",
      "outputs": [],
      "stateMutability": "nonpayable",
      "type": "function"
    },
    {
      "inputs": [
        {
          "internalType": "uint256",
          "name": "proposalId",
          "type": "uint256"
        }
      ],
      "name": "executeProposal",
      "outputs": [],
      "stateMutability": "nonpayable",
      "type": "function"
    },
    {
      "inputs": [
        {
          "internalType": "uint256",
          "name": "proposalId",
          "type": "uint256"
        }
      ],
      "name": "vote",
      "outputs": [],
      "stateMutability": "nonpayable",
      "type": "function"
    },
    {
      "inputs": [
        {
          "internalType": "address payable",
          "name": "to",
          "type": "address"
        },
        {
          "internalType": "uint256",
          "name": "amount",
          "type": "uint256"
        }
      ],
      "name": "withdrawEth",
      "outputs": [],
      "stateMutability": "nonpayable",
      "type": "function"
    }
  ],
  "bytecode": "0x60806040523480156200001157600080fd5b506040516200215b3803806200215b83398181016040528101906200003791906200010d565b600081118015620000485750606481105b6200008a576040517f08c379a00000000000000000000000000000000000000000000000000000000081526004016200008190620001cb565b60405180910390fd5b8242620000989190620001fe565b600281905550816004819055508060058190555033600660006101000a81548173ffffffffffffffffffffffffffffffffffffffff021916908373ffffffffffffffffffffffffffffffffffffffff160217905550505050620002ae565b600081519050620001078162000294565b92915050565b6000806000606084860312156200012357600080fd5b60006200013386828701620000f6565b93505060206200014686828701620000f6565b92505060406200015986828701620000f6565b9150509250925092565b600062000172602183620001ed565b91507f51756f72756d206d757374206265206265747765656e203020616e642031303060008301527f25000000000000000000000000000000000000000000000000000000000000006020830152604082019050919050565b60006020820190508181036000830152620001e68162000163565b9050919050565b600082825260208201905092915050565b60006200020b826200025b565b915062000218836200025b565b9250827fffffffffffffffffffffffffffffffffffffffffffffffffffffffffffffffff0382111562000250576200024f62000265565b5b828201905092915050565b6000819050919050565b7f4e487b7100000000000000000000000000000000000000000000000000000000600052601160045260246000fd5b6200029f816200025b565b8114620002ab57600080fd5b50565b611e9d80620002be6000396000f3fe60806040526004361061010d5760003560e01c80636ac1e01f11610095578063bcf93dd611610064578063bcf93dd614610391578063ce7c2ac2146103bc578063d151b516146103f9578063d7bb99ba14610424578063f851a4401461042e5761012d565b80636ac1e01f146102c55780636f7bc9be146102ee5780639f2524ee1461032b578063adba9804146103685761012d565b80631b9a91a4116100dc5780631b9a91a4146101f25780632ab09d141461021b5780633a98ef391461024657806345579b1f1461027157806346fcff4c1461029a5761012d565b80630121b93f14610132578063013cf08b1461015b5780630d61b5191461019e5780631703a018146101c75761012d565b3661012d5734600160008282546101249190611b29565b92505081905550005b600080fd5b34801561013e57600080fd5b5061015960048036038101906101549190611465565b610459565b005b34801561016757600080fd5b50610182600480360381019061017d9190611465565b6106b4565b6040516101959796959493929190611a36565b60405180910390f35b3480156101aa57600080fd5b506101c560048036038101906101c09190611465565b6107ab565b005b3480156101d357600080fd5b506101dc6109a6565b6040516101e99190611a1b565b60405180910390f35b3480156101fe57600080fd5b5061021960048036038101906102149190611386565b6109ac565b005b34801561022757600080fd5b50610230610a4a565b60405161023d9190611a1b565b60405180910390f35b34801561025257600080fd5b5061025b610a50565b6040516102689190611a1b565b60405180910390f35b34801561027d57600080fd5b506102986004803603810190610293919061148e565b610a56565b005b3480156102a657600080fd5b506102af610be0565b6040516102bc9190611a1b565b60405180910390f35b3480156102d157600080fd5b506102ec60048036038101906102e791906113fe565b610be6565b005b3480156102fa57600080fd5b506103156004803603810190610310919061135d565b610e14565b6040516103229190611880565b60405180910390f35b34801561033757600080fd5b50610352600480360381019061034d91906113c2565b610e34565b60405161035f9190611880565b60405180910390f35b34801561037457600080fd5b5061038f600480360381019061038a9190611465565b610e63565b005b34801561039d57600080fd5b506103a6610ffb565b6040516103b39190611a1b565b60405180910390f35b3480156103c857600080fd5b506103e360048036038101906103de919061135d565b611001565b6040516103f09190611a1b565b60405180910390f35b34801561040557600080fd5b5061040e611019565b60405161041b9190611a1b565b60405180910390f35b61042c61101f565b005b34801561043a57600080fd5b50610443611144565b6040516104509190611865565b60405180910390f35b60011515600760003373ffffffffffffffffffffffffffffffffffffffff1673ffffffffffffffffffffffffffffffffffffffff16815260200190815260200160002060009054906101000a900460ff161515146104ec576040517f08c379a00000000000000000000000000000000000000000000000000000000081526004016104e3906118bb565b60405180910390fd5b600060096000838152602001908152602001600020905060001515600a60003373ffffffffffffffffffffffffffffffffffffffff1673ffffffffffffffffffffffffffffffffffffffff168152602001908152602001600020600084815260200190815260200160002060009054906101000a900460ff161515146105a7576040517f08c379a000000000000000000000000000000000000000000000000000000000815260040161059e906118db565b60405180910390fd5b806005015442106105ed576040517f08c379a00000000000000000000000000000000000000000000000000000000081526004016105e49061199b565b60405180910390fd5b6001600a60003373ffffffffffffffffffffffffffffffffffffffff1673ffffffffffffffffffffffffffffffffffffffff168152602001908152602001600020600084815260200190815260200160002060006101000a81548160ff021916908315150217905550600860003373ffffffffffffffffffffffffffffffffffffffff1673ffffffffffffffffffffffffffffffffffffffff168152602001908152602001600020548160040160008282546106a99190611b29565b925050819055505050565b60096020528060005260406000206000915090508060000154908060010180546106dd90611cda565b80601f016020809104026020016040519081016040528092919081815260200182805461070990611cda565b80156107565780601f1061072b57610100808354040283529160200191610756565b820191906000526020600020905b81548152906001019060200180831161073957829003601f168201915b5050505050908060020154908060030160009054906101000a900473ffffffffffffffffffffffffffffffffffffffff16908060040154908060050154908060060160009054906101000a900460ff16905087565b600660009054906101000a900473ffffffffffffffffffffffffffffffffffffffff1673ffffffffffffffffffffffffffffffffffffffff163373ffffffffffffffffffffffffffffffffffffffff161461083b576040517f08c379a0000000000000000000000000000000000000000000000000000000008152600401610832906118fb565b60405180910390fd5b60006009600083815260200190815260200160002090508060050154421015610899576040517f08c379a00000000000000000000000000000000000000000000000000000000081526004016108909061195b565b60405180910390fd5b600015158160060160009054906101000a900460ff161515146108f1576040517f08c379a00000000000000000000000000000000000000000000000000000000081526004016108e89061191b565b60405180910390fd5b600554600054606483600401546109089190611bb0565b6109129190611b7f565b1015610953576040517f08c379a000000000000000000000000000000000000000000000000000000000815260040161094a906119db565b60405180910390fd5b60018160060160006101000a81548160ff0219169083151502179055506109a28160030160009054906101000a900473ffffffffffffffffffffffffffffffffffffffff16826002015461116a565b5050565b60055481565b600660009054906101000a900473ffffffffffffffffffffffffffffffffffffffff1673ffffffffffffffffffffffffffffffffffffffff163373ffffffffffffffffffffffffffffffffffffffff1614610a3c576040517f08c379a0000000000000000000000000000000000000000000000000000000008152600401610a33906118fb565b60405180910390fd5b610a46828261116a565b5050565b60035481565b60005481565b81600860003373ffffffffffffffffffffffffffffffffffffffff1673ffffffffffffffffffffffffffffffffffffffff168152602001908152602001600020541015610ad8576040517f08c379a0000000000000000000000000000000000000000000000000000000008152600401610acf906119fb565b60405180910390fd5b81600860003373ffffffffffffffffffffffffffffffffffffffff1673ffffffffffffffffffffffffffffffffffffffff1681526020019081526020016000206000828254610b279190611c0a565b9250508190555081600860008373ffffffffffffffffffffffffffffffffffffffff1673ffffffffffffffffffffffffffffffffffffffff1681526020019081526020016000206000828254610b7d9190611b29565b925050819055506001600760008373ffffffffffffffffffffffffffffffffffffffff1673ffffffffffffffffffffffffffffffffffffffff16815260200190815260200160002060006101000a81548160ff0219169083151502179055505050565b60015481565b60011515600760003373ffffffffffffffffffffffffffffffffffffffff1673ffffffffffffffffffffffffffffffffffffffff16815260200190815260200160002060009054906101000a900460ff16151514610c79576040517f08c379a0000000000000000000000000000000000000000000000000000000008152600401610c70906118bb565b60405180910390fd5b816001541015610cbe576040517f08c379a0000000000000000000000000000000000000000000000000000000008152600401610cb59061197b565b60405180910390fd5b6040518060e0016040528060035481526020018481526020018381526020018273ffffffffffffffffffffffffffffffffffffffff1681526020016000815260200160045442610d0e9190611b29565b815260200160001515815250600960006003548152602001908152602001600020600082015181600001556020820151816001019080519060200190610d55929190611213565b506040820151816002015560608201518160030160006101000a81548173ffffffffffffffffffffffffffffffffffffffff021916908373ffffffffffffffffffffffffffffffffffffffff1602179055506080820151816004015560a0820151816005015560c08201518160060160006101000a81548160ff0219169083151502179055509050508160016000828254610df09190611c0a565b9250508190555060036000815480929190610e0a90611d0c565b9190505550505050565b60076020528060005260406000206000915054906101000a900460ff1681565b600a6020528160005260406000206020528060005260406000206000915091509054906101000a900460ff1681565b80600860003373ffffffffffffffffffffffffffffffffffffffff1673ffffffffffffffffffffffffffffffffffffffff168152602001908152602001600020541015610ee5576040517f08c379a0000000000000000000000000000000000000000000000000000000008152600401610edc906119fb565b60405180910390fd5b806001541015610f2a576040517f08c379a0000000000000000000000000000000000000000000000000000000008152600401610f219061189b565b60405180910390fd5b80600860003373ffffffffffffffffffffffffffffffffffffffff1673ffffffffffffffffffffffffffffffffffffffff1681526020019081526020016000206000828254610f799190611c0a565b9250508190555080600080828254610f919190611c0a565b925050819055508060016000828254610faa9190611c0a565b925050819055503373ffffffffffffffffffffffffffffffffffffffff166108fc829081150290604051600060405180830381858888f19350505050158015610ff7573d6000803e3d6000fd5b5050565b60045481565b60086020528060005260406000206000915090505481565b60025481565b6002544210611063576040517f08c379a000000000000000000000000000000000000000000000000000000000815260040161105a906119bb565b60405180910390fd5b6001600760003373ffffffffffffffffffffffffffffffffffffffff1673ffffffffffffffffffffffffffffffffffffffff16815260200190815260200160002060006101000a81548160ff02191690831515021790555034600860003373ffffffffffffffffffffffffffffffffffffffff1673ffffffffffffffffffffffffffffffffffffffff168152602001908152602001600020600082825461110a9190611b29565b92505081905550346000808282546111229190611b29565b92505081905550346001600082825461113b9190611b29565b92505081905550565b600660009054906101000a900473ffffffffffffffffffffffffffffffffffffffff1681565b6001548111156111af576040517f08c379a00000000000000000000000000000000000000000000000000000000081526004016111a69061193b565b60405180910390fd5b80600160008282546111c19190611c0a565b925050819055508173ffffffffffffffffffffffffffffffffffffffff166108fc829081150290604051600060405180830381858888f1935050505015801561120e573d6000803e3d6000fd5b505050565b82805461121f90611cda565b90600052602060002090601f0160209004810192826112415760008555611288565b82601f1061125a57805160ff1916838001178555611288565b82800160010185558215611288579182015b8281111561128757825182559160200191906001019061126c565b5b5090506112959190611299565b5090565b5b808211156112b257600081600090555060010161129a565b5090565b60006112c96112c484611add565b611aac565b9050828152602081018484840111156112e157600080fd5b6112ec848285611c98565b509392505050565b60008135905061130381611e22565b92915050565b60008135905061131881611e39565b92915050565b600082601f83011261132f57600080fd5b813561133f8482602086016112b6565b91505092915050565b60008135905061135781611e50565b92915050565b60006020828403121561136f57600080fd5b600061137d848285016112f4565b91505092915050565b6000806040838503121561139957600080fd5b60006113a785828601611309565b92505060206113b885828601611348565b9150509250929050565b600080604083850312156113d557600080fd5b60006113e3858286016112f4565b92505060206113f485828601611348565b9150509250929050565b60008060006060848603121561141357600080fd5b600084013567ffffffffffffffff81111561142d57600080fd5b6114398682870161131e565b935050602061144a86828701611348565b925050604061145b86828701611309565b9150509250925092565b60006020828403121561147757600080fd5b600061148584828501611348565b91505092915050565b600080604083850312156114a157600080fd5b60006114af85828601611348565b92505060206114c0858286016112f4565b9150509250929050565b6114d381611c50565b82525050565b6114e281611c3e565b82525050565b6114f181611c62565b82525050565b600061150282611b0d565b61150c8185611b18565b935061151c818560208601611ca7565b61152581611e11565b840191505092915050565b600061153d601983611b18565b91507f44414f20646f6573206e6f7420656e6f7567682066756e6473000000000000006000830152602082019050919050565b600061157d600e83611b18565b91507f4f6e6c7920696e766573746f72730000000000000000000000000000000000006000830152602082019050919050565b60006115bd600d83611b18565b91507f416c726561647920766f746564000000000000000000000000000000000000006000830152602082019050919050565b60006115fd600a83611b18565b91507f4f6e6c792061646d696e000000000000000000000000000000000000000000006000830152602082019050919050565b600061163d602283611b18565b91507f50726f706f73616c2068617320616c7265616479206265656e2065786563757460008301527f65640000000000000000000000000000000000000000000000000000000000006020830152604082019050919050565b60006116a3601a83611b18565b91507f4e6f7420656e6f75676820617661696c61626c652066756e64730000000000006000830152602082019050919050565b60006116e3601683611b18565b91507f566f74696e67206973206e6f74206f76657220796574000000000000000000006000830152602082019050919050565b6000611723601383611b18565b91507f4e6f74206f6620656e6f7567682066756e6473000000000000000000000000006000830152602082019050919050565b6000611763601583611b18565b91507f566f74696e6720706572696f64206973206f76657200000000000000000000006000830152602082019050919050565b60006117a3601d83611b18565b91507f436f6e747269627574696f6e20706572696f642068617320656e6465640000006000830152602082019050919050565b60006117e3600e83611b18565b91507f51756f72756d206e6f74206d65740000000000000000000000000000000000006000830152602082019050919050565b6000611823601d83611b18565b91507f596f7520646f206e6f74206861766520656e6f756768207368617265730000006000830152602082019050919050565b61185f81611c8e565b82525050565b600060208201905061187a60008301846114d9565b92915050565b600060208201905061189560008301846114e8565b92915050565b600060208201905081810360008301526118b481611530565b9050919050565b600060208201905081810360008301526118d481611570565b9050919050565b600060208201905081810360008301526118f4816115b0565b9050919050565b60006020820190508181036000830152611914816115f0565b9050919050565b6000602082019050818103600083015261193481611630565b9050919050565b6000602082019050818103600083015261195481611696565b9050919050565b60006020820190508181036000830152611974816116d6565b9050919050565b6000602082019050818103600083015261199481611716565b9050919050565b600060208201905081810360008301526119b481611756565b9050919050565b600060208201905081810360008301526119d481611796565b9050919050565b600060208201905081810360008301526119f4816117d6565b9050919050565b60006020820190508181036000830152611a1481611816565b9050919050565b6000602082019050611a306000830184611856565b92915050565b600060e082019050611a4b600083018a611856565b8181036020830152611a5d81896114f7565b9050611a6c6040830188611856565b611a7960608301876114ca565b611a866080830186611856565b611a9360a0830185611856565b611aa060c08301846114e8565b98975050505050505050565b6000604051905081810181811067ffffffffffffffff82111715611ad357611ad2611de2565b5b8060405250919050565b600067ffffffffffffffff821115611af857611af7611de2565b5b601f19601f8301169050602081019050919050565b600081519050919050565b600082825260208201905092915050565b6000611b3482611c8e565b9150611b3f83611c8e565b9250827fffffffffffffffffffffffffffffffffffffffffffffffffffffffffffffffff03821115611b7457611b73611d55565b5b828201905092915050565b6000611b8a82611c8e565b9150611b9583611c8e565b925082611ba557611ba4611d84565b5b828204905092915050565b6000611bbb82611c8e565b9150611bc683611c8e565b9250817fffffffffffffffffffffffffffffffffffffffffffffffffffffffffffffffff0483118215151615611bff57611bfe611d55565b5b828202905092915050565b6000611c1582611c8e565b9150611c2083611c8e565b925082821015611c3357611c32611d55565b5b828203905092915050565b6000611c4982611c6e565b9050919050565b6000611c5b82611c6e565b9050919050565b60008115159050919050565b600073ffffffffffffffffffffffffffffffffffffffff82169050919050565b6000819050919050565b82818337600083830152505050565b60005b83811015611cc5578082015181840152602081019050611caa565b83811115611cd4576000848401525b50505050565b60006002820490506001821680611cf257607f821691505b60208210811415611d0657611d05611db3565b5b50919050565b6000611d1782611c8e565b91507fffffffffffffffffffffffffffffffffffffffffffffffffffffffffffffffff821415611d4a57611d49611d55565b5b600182019050919050565b7f4e487b7100000000000000000000000000000000000000000000000000000000600052601160045260246000fd5b7f4e487b7100000000000000000000000000000000000000000000000000000000600052601260045260246000fd5b7f4e487b7100000000000000000000000000000000000000000000000000000000600052602260045260246000fd5b7f4e487b7100000000000000000000000000000000000000000000000000000000600052604160045260246000fd5b6000601f19601f8301169050919050565b611e2b81611c3e565b8114611e3657600080fd5b50565b611e4281611c50565b8114611e4d57600080fd5b50565b611e5981611c8e565b8114611e6457600080fd5b5056fea2646970667358221220e9f6cdb67ca68697a97af0dbfe2deb16252a355de986e4e37a0e9e47f2a5b58364736f6c63430008000033",
  "immutableReferences": {},
  "source": "// SPDX-License-Identifier: MIT\npragma solidity ^0.8.0;\n\n/**\n * DAO contract:\n * Close end fund\n * 1. Collects investors money (ether) & allocate shares (Wei = share)\n * 2. Keep track of investor contributions with shares\n * 3. Allow investors to transfer shares (redeem or transfer)\n * 4. Allow investment proposals to be created and voted\n * 5. Execute successful investment proposals (i.e send money)\n */\ncontract DAO {\n    uint256 public totalShares;\n    uint256 public availableFunds;\n    uint256 public contributionEnd; // (seconds)\n    uint256 public nextProposalId;\n    uint256 public voteTime; // (seconds) voting period duration\n    uint256 public quorum; // minimum required votes as percent of total (ex. 50 = 50%)\n    address public admin;\n\n    // investor => is investor?\n    mapping(address => bool) public investors;\n    // investor => number of shares\n    mapping(address => uint256) public shares;\n    // id => Proposal\n    mapping(uint256 => Proposal) public proposals;\n    // investor -> proposal id -> has voted?\n    mapping(address => mapping(uint256 => bool)) public votes;\n\n    struct Proposal {\n        uint256 id;\n        string name;\n        uint256 amount;\n        address payable recipient;\n        uint256 votes; // number of shares in favor of\n        uint256 end; // (time stamp) expiry\n        bool executed;\n    }\n\n    constructor(\n        uint256 contributionTime,\n        uint256 _voteTime,\n        uint256 _quorum\n    ) {\n        require(\n            _quorum > 0 && _quorum < 100,\n            \"Quorum must be between 0 and 100%\"\n        );\n        contributionEnd = block.timestamp + contributionTime;\n        voteTime = _voteTime;\n        quorum = _quorum;\n        admin = msg.sender;\n    }\n\n    /// @notice Investor contribute ETH to DAO, receives shares\n    function contribute() external payable {\n        require(\n            block.timestamp < contributionEnd,\n            \"Contribution period has ended\"\n        );\n\n        investors[msg.sender] = true;\n        shares[msg.sender] += msg.value;\n        totalShares += msg.value;\n        availableFunds += msg.value;\n    }\n\n    /// @notice Investor to redeem shares from DAO (convert their shares back to ETH)\n    function redeemShares(uint256 amount) external {\n        require(shares[msg.sender] >= amount, \"You do not have enough shares\");\n        require(availableFunds >= amount, \"DAO does not enough funds\");\n\n        shares[msg.sender] -= amount;\n        totalShares -= amount;\n        availableFunds -= amount;\n        payable(msg.sender).transfer(amount);\n    }\n\n    /// @notice Investor to transfer shares with another address\n    function transferShares(uint256 amount, address to) external {\n        require(shares[msg.sender] >= amount, \"You do not have enough shares\");\n\n        shares[msg.sender] -= amount;\n        shares[to] += amount;\n        investors[to] = true;\n    }\n\n    /// @notice Investor submits a new proposal for consideration\n    function createProposal(\n        string memory name,\n        uint256 amount,\n        address payable recipient\n    ) external onlyInvestors() {\n        require(availableFunds >= amount, \"Not of enough funds\");\n\n        proposals[nextProposalId] = Proposal(\n            nextProposalId,\n            name,\n            amount,\n            recipient,\n            0,\n            block.timestamp + voteTime,\n            false\n        );\n\n        availableFunds -= amount;\n        nextProposalId++;\n    }\n\n    /// @notice Admin can wrap up a proposal and send funds if votes reached\n    function executeProposal(uint256 proposalId) external onlyAdmin() {\n        Proposal storage proposal = proposals[proposalId];\n        require(block.timestamp >= proposal.end, \"Voting is not over yet\");\n        require(\n            proposal.executed == false,\n            \"Proposal has already been executed\"\n        );\n        // FIXME what if voting over and quorum not met? Need to release funds?\n        require(\n            ((proposal.votes * 100) / totalShares) >= quorum,\n            \"Quorum not met\"\n        );\n\n        proposal.executed = true;\n        _transferEth(proposal.recipient, proposal.amount);\n    }\n\n    /// @notice Investor can vote to accept a proposal\n    function vote(uint256 proposalId) external onlyInvestors() {\n        Proposal storage proposal = proposals[proposalId];\n\n        require(votes[msg.sender][proposalId] == false, \"Already voted\");\n        require(block.timestamp < proposal.end, \"Voting period is over\");\n\n        votes[msg.sender][proposalId] = true;\n        proposal.votes += shares[msg.sender];\n    }\n\n    /// @notice Admin can withdraw from DAO. Escape hatch only.\n    function withdrawEth(address payable to, uint256 amount)\n        external\n        onlyAdmin()\n    {\n        _transferEth(to, amount);\n    }\n\n    function _transferEth(address payable to, uint256 amount) internal {\n        require(amount <= availableFunds, \"Not enough available funds\");\n\n        availableFunds -= amount;\n        to.transfer(amount);\n    }\n\n    /// @notice DAO can receive funds\n    receive() external payable {\n        availableFunds += msg.value;\n    }\n\n    modifier onlyAdmin() {\n        require(msg.sender == admin, \"Only admin\");\n        _;\n    }\n\n    modifier onlyInvestors() {\n        require(investors[msg.sender] == true, \"Only investors\");\n        _;\n    }\n}\n",
  "sourcePath": "/Users/tc/dev/ethereum_playground/dapp-30/day15-dao/contracts/DAO.sol",
  "compiler": {
    "name": "solc",
    "version": "0.8.0+commit.c7dfd78e.Emscripten.clang"
  },
  "schemaVersion": "3.3.4",
  "updatedAt": "2021-06-06T07:27:46.760Z",
  "networkType": "ethereum",
  "devdoc": {
    "kind": "dev",
    "methods": {},
    "version": 1
  },
  "userdoc": {
    "kind": "user",
    "methods": {
      "contribute()": {
        "notice": "Investor contribute ETH to DAO, receives shares"
      },
      "createProposal(string,uint256,address)": {
        "notice": "Investor submits a new proposal for consideration"
      },
      "executeProposal(uint256)": {
        "notice": "Admin can wrap up a proposal and send funds if votes reached"
      },
      "redeemShares(uint256)": {
        "notice": "Investor to redeem shares from DAO (convert their shares back to ETH)"
      },
      "transferShares(uint256,address)": {
        "notice": "Investor to transfer shares with another address"
      },
      "vote(uint256)": {
        "notice": "Investor can vote to accept a proposal"
      },
      "withdrawEth(address,uint256)": {
        "notice": "Admin can withdraw from DAO. Escape hatch only."
      }
    },
    "notice": "DAO contract: Close end fund 1. Collects investors money (ether) & allocate shares (Wei = share) 2. Keep track of investor contributions with shares 3. Allow investors to transfer shares (redeem or transfer) 4. Allow investment proposals to be created and voted 5. Execute successful investment proposals (i.e send money)",
    "version": 1
  }
}