{
  "contractName": "Consumer",
  "abi": [
    {
      "inputs": [
        {
          "internalType": "address",
          "name": "_oracle",
          "type": "address"
        }
      ],
      "stateMutability": "nonpayable",
      "type": "constructor"
    },
    {
      "inputs": [],
      "name": "oracle",
      "outputs": [
        {
          "internalType": "contract IOracle",
          "name": "",
          "type": "address"
        }
      ],
      "stateMutability": "view",
      "type": "function",
      "constant": true
    },
    {
      "inputs": [],
      "name": "foo",
      "outputs": [],
      "stateMutability": "view",
      "type": "function",
      "constant": true
    }
  ],
  "bytecode": "0x608060405234801561001057600080fd5b5060405161066e38038061066e8339818101604052810190610032919061008d565b806000806101000a81548173ffffffffffffffffffffffffffffffffffffffff021916908373ffffffffffffffffffffffffffffffffffffffff16021790555050610108565b600081519050610087816100f1565b92915050565b6000602082840312156100a3576100a26100ec565b5b60006100b184828501610078565b91505092915050565b60006100c5826100cc565b9050919050565b600073ffffffffffffffffffffffffffffffffffffffff82169050919050565b600080fd5b6100fa816100ba565b811461010557600080fd5b50565b610557806101176000396000f3fe608060405234801561001057600080fd5b50600436106100365760003560e01c80637dc0d1d01461003b578063c298557814610059575b600080fd5b610043610063565b6040516100509190610335565b60405180910390f35b610061610087565b005b60008054906101000a900473ffffffffffffffffffffffffffffffffffffffff1681565b600060405160200161009890610305565b60405160208183030381529060405280519060200120905060008060008060009054906101000a900473ffffffffffffffffffffffffffffffffffffffff1673ffffffffffffffffffffffffffffffffffffffff166354f6127f856040518263ffffffff1660e01b815260040161010f919061031a565b60606040518083038186803b15801561012757600080fd5b505afa15801561013b573d6000803e3d6000fd5b505050506040513d601f19601f8201168201806040525081019061015f919061022b565b92509250925060011515831515146101ac576040517f08c379a00000000000000000000000000000000000000000000000000000000081526004016101a390610370565b60405180910390fd5b6078426101b991906103ac565b8210156101fb576040517f08c379a00000000000000000000000000000000000000000000000000000000081526004016101f290610350565b60405180910390fd5b50505050565b600081519050610210816104f3565b92915050565b6000815190506102258161050a565b92915050565b60008060006060848603121561024457610243610473565b5b600061025286828701610201565b935050602061026386828701610216565b925050604061027486828701610216565b9150509250925092565b610287816103ec565b82525050565b61029681610420565b82525050565b60006102a9600d83610390565b91506102b482610478565b602082019050919050565b60006102cc6007836103a1565b91506102d7826104a1565b600782019050919050565b60006102ef601383610390565b91506102fa826104ca565b602082019050919050565b6000610310826102bf565b9150819050919050565b600060208201905061032f600083018461027e565b92915050565b600060208201905061034a600083018461028d565b92915050565b600060208201905081810360008301526103698161029c565b9050919050565b60006020820190508181036000830152610389816102e2565b9050919050565b600082825260208201905092915050565b600081905092915050565b60006103b782610416565b91506103c283610416565b9250828210156103d5576103d4610444565b5b828203905092915050565b60008115159050919050565b6000819050919050565b600073ffffffffffffffffffffffffffffffffffffffff82169050919050565b6000819050919050565b600061042b82610432565b9050919050565b600061043d826103f6565b9050919050565b7f4e487b7100000000000000000000000000000000000000000000000000000000600052601160045260246000fd5b600080fd5b7f707269636520746f6f206f6c6400000000000000000000000000000000000000600082015250565b7f4254432f55534400000000000000000000000000000000000000000000000000600082015250565b7f636f756c64206e6f742067657420707269636500000000000000000000000000600082015250565b6104fc816103e0565b811461050757600080fd5b50565b61051381610416565b811461051e57600080fd5b5056fea26469706673582212207d67c37c23b3acb03bac24f1be40f9be64677c4aeca9bb7dd007995c63321a2864736f6c63430008060033",
  "immutableReferences": {},
  "source": "// SPDX-License-Identifier: MIT\npragma solidity ^0.8.0;\n\nimport \"./IOracle.sol\";\n\ncontract Consumer {\n    IOracle public oracle;\n\n    constructor(address _oracle) {\n        oracle = IOracle(_oracle);\n    }\n\n    function foo() external view {\n        bytes32 key = keccak256(abi.encodePacked(\"BTC/USD\"));\n\n        (bool result, uint256 timestamp, uint256 data) = oracle.getData(key);\n        require(result == true, \"could not get price\");\n        require(timestamp >= block.timestamp - 2 minutes, \"price too old\");\n\n        //so something with price data;\n    }\n}\n",
  "sourcePath": "/Users/tc/dev/ethereum_playground/defi/building-blocks/oracles/contracts/Consumer.sol",
  "compiler": {
    "name": "solc",
    "version": "0.8.6+commit.11564f7e.Emscripten.clang"
  },
  "schemaVersion": "3.4.1",
  "updatedAt": "2021-06-26T08:58:38.599Z",
  "networkType": "ethereum",
  "devdoc": {
    "kind": "dev",
    "methods": {},
    "version": 1
  },
  "userdoc": {
    "kind": "user",
    "methods": {},
    "version": 1
  }
}