{
  "contractName": "Oracle",
  "abi": [
    {
      "inputs": [
        {
          "internalType": "address",
          "name": "_admin",
          "type": "address"
        }
      ],
      "stateMutability": "nonpayable",
      "type": "constructor"
    },
    {
      "inputs": [],
      "name": "admin",
      "outputs": [
        {
          "internalType": "address",
          "name": "",
          "type": "address"
        }
      ],
      "stateMutability": "view",
      "type": "function",
      "constant": true
    },
    {
      "inputs": [
        {
          "internalType": "bytes32",
          "name": "",
          "type": "bytes32"
        }
      ],
      "name": "data",
      "outputs": [
        {
          "internalType": "uint256",
          "name": "date",
          "type": "uint256"
        },
        {
          "internalType": "uint256",
          "name": "payload",
          "type": "uint256"
        }
      ],
      "stateMutability": "view",
      "type": "function",
      "constant": true
    },
    {
      "inputs": [
        {
          "internalType": "address",
          "name": "",
          "type": "address"
        }
      ],
      "name": "reporters",
      "outputs": [
        {
          "internalType": "bool",
          "name": "",
          "type": "bool"
        }
      ],
      "stateMutability": "view",
      "type": "function",
      "constant": true
    },
    {
      "inputs": [
        {
          "internalType": "address",
          "name": "reporter",
          "type": "address"
        },
        {
          "internalType": "bool",
          "name": "isReporter",
          "type": "bool"
        }
      ],
      "name": "updateReporter",
      "outputs": [],
      "stateMutability": "nonpayable",
      "type": "function"
    },
    {
      "inputs": [
        {
          "internalType": "bytes32",
          "name": "key",
          "type": "bytes32"
        },
        {
          "internalType": "uint256",
          "name": "payload",
          "type": "uint256"
        }
      ],
      "name": "updateData",
      "outputs": [],
      "stateMutability": "nonpayable",
      "type": "function"
    },
    {
      "inputs": [
        {
          "internalType": "bytes32",
          "name": "key",
          "type": "bytes32"
        }
      ],
      "name": "getData",
      "outputs": [
        {
          "internalType": "bool",
          "name": "result",
          "type": "bool"
        },
        {
          "internalType": "uint256",
          "name": "date",
          "type": "uint256"
        },
        {
          "internalType": "uint256",
          "name": "payload",
          "type": "uint256"
        }
      ],
      "stateMutability": "view",
      "type": "function",
      "constant": true
    }
  ],
  "bytecode": "0x608060405234801561001057600080fd5b506040516108c23803806108c28339818101604052810190610032919061008d565b806000806101000a81548173ffffffffffffffffffffffffffffffffffffffff021916908373ffffffffffffffffffffffffffffffffffffffff16021790555050610108565b600081519050610087816100f1565b92915050565b6000602082840312156100a3576100a26100ec565b5b60006100b184828501610078565b91505092915050565b60006100c5826100cc565b9050919050565b600073ffffffffffffffffffffffffffffffffffffffff82169050919050565b600080fd5b6100fa816100ba565b811461010557600080fd5b50565b6107ab806101176000396000f3fe608060405234801561001057600080fd5b50600436106100625760003560e01c80630147fb0c146100675780631ec6e24f146100985780632cc1cd9e146100b457806354f6127f146100e4578063a8200ab714610116578063f851a44014610132575b600080fd5b610081600480360381019061007c91906104a9565b610150565b60405161008f929190610636565b60405180910390f35b6100b260048036038101906100ad9190610469565b610174565b005b6100ce60048036038101906100c9919061043c565b61025d565b6040516100db91906105a4565b60405180910390f35b6100fe60048036038101906100f991906104a9565b61027d565b60405161010d939291906105bf565b60405180910390f35b610130600480360381019061012b91906104d6565b6102ee565b005b61013a6103c4565b6040516101479190610589565b60405180910390f35b60026020528060005260406000206000915090508060000154908060010154905082565b60008054906101000a900473ffffffffffffffffffffffffffffffffffffffff1673ffffffffffffffffffffffffffffffffffffffff163373ffffffffffffffffffffffffffffffffffffffff1614610202576040517f08c379a00000000000000000000000000000000000000000000000000000000081526004016101f9906105f6565b60405180910390fd5b80600160008473ffffffffffffffffffffffffffffffffffffffff1673ffffffffffffffffffffffffffffffffffffffff16815260200190815260200160002060006101000a81548160ff0219169083151502179055505050565b60016020528060005260406000206000915054906101000a900460ff1681565b600080600080600260008681526020019081526020016000206000015414156102b05760008060009250925092506102e7565b6001600260008681526020019081526020016000206000015460026000878152602001908152602001600020600101549250925092505b9193909250565b60011515600160003373ffffffffffffffffffffffffffffffffffffffff1673ffffffffffffffffffffffffffffffffffffffff16815260200190815260200160002060009054906101000a900460ff16151514610381576040517f08c379a000000000000000000000000000000000000000000000000000000000815260040161037890610616565b60405180910390fd5b6040518060400160405280428152602001828152506002600084815260200190815260200160002060008201518160000155602082015181600101559050505050565b60008054906101000a900473ffffffffffffffffffffffffffffffffffffffff1681565b6000813590506103f781610719565b92915050565b60008135905061040c81610730565b92915050565b60008135905061042181610747565b92915050565b6000813590506104368161075e565b92915050565b600060208284031215610452576104516106c2565b5b6000610460848285016103e8565b91505092915050565b600080604083850312156104805761047f6106c2565b5b600061048e858286016103e8565b925050602061049f858286016103fd565b9150509250929050565b6000602082840312156104bf576104be6106c2565b5b60006104cd84828501610412565b91505092915050565b600080604083850312156104ed576104ec6106c2565b5b60006104fb85828601610412565b925050602061050c85828601610427565b9150509250929050565b61051f81610670565b82525050565b61052e81610682565b82525050565b6000610541600a8361065f565b915061054c826106c7565b602082019050919050565b6000610564600e8361065f565b915061056f826106f0565b602082019050919050565b610583816106b8565b82525050565b600060208201905061059e6000830184610516565b92915050565b60006020820190506105b96000830184610525565b92915050565b60006060820190506105d46000830186610525565b6105e1602083018561057a565b6105ee604083018461057a565b949350505050565b6000602082019050818103600083015261060f81610534565b9050919050565b6000602082019050818103600083015261062f81610557565b9050919050565b600060408201905061064b600083018561057a565b610658602083018461057a565b9392505050565b600082825260208201905092915050565b600061067b82610698565b9050919050565b60008115159050919050565b6000819050919050565b600073ffffffffffffffffffffffffffffffffffffffff82169050919050565b6000819050919050565b600080fd5b7f6f6e6c792061646d696e00000000000000000000000000000000000000000000600082015250565b7f6f6e6c79207265706f7274657273000000000000000000000000000000000000600082015250565b61072281610670565b811461072d57600080fd5b50565b61073981610682565b811461074457600080fd5b50565b6107508161068e565b811461075b57600080fd5b50565b610767816106b8565b811461077257600080fd5b5056fea26469706673582212202350140967e52d08e47989f318dfc6f5b382db0e4c3a56db431173c163c04d0164736f6c63430008060033",
  "immutableReferences": {},
  "source": "// SPDX-License-Identifier: MIT\npragma solidity ^0.8.0;\n\ncontract Oracle {\n    struct Data {\n        uint256 date;\n        uint256 payload;\n    }\n    address public admin;\n    mapping(address => bool) public reporters;\n    mapping(bytes32 => Data) public data;\n\n    constructor(address _admin) {\n        admin = _admin;\n    }\n\n    function updateReporter(address reporter, bool isReporter) external {\n        require(msg.sender == admin, \"only admin\");\n        reporters[reporter] = isReporter;\n    }\n\n    function updateData(bytes32 key, uint256 payload) external {\n        require(reporters[msg.sender] == true, \"only reporters\");\n        data[key] = Data(block.timestamp, payload);\n    }\n\n    function getData(bytes32 key)\n        external\n        view\n        returns (\n            bool result,\n            uint256 date,\n            uint256 payload\n        )\n    {\n        if (data[key].date == 0) {\n            return (false, 0, 0);\n        }\n        return (true, data[key].date, data[key].payload);\n    }\n}\n",
  "sourcePath": "/Users/tc/dev/ethereum_playground/defi/building-blocks/oracles/contracts/Oracle.sol",
  "compiler": {
    "name": "solc",
    "version": "0.8.6+commit.11564f7e.Emscripten.clang"
  },
  "schemaVersion": "3.4.1",
  "updatedAt": "2021-06-26T08:58:38.596Z",
  "networkType": "ethereum",
  "devdoc": {
    "kind": "dev",
    "methods": {},
    "version": 1
  },
  "userdoc": {
    "kind": "user",
    "methods": {},
    "version": 1
  }
}