{
  "contractName": "Fibonacci",
  "abi": [
    {
      "inputs": [
        {
          "internalType": "uint256",
          "name": "n",
          "type": "uint256"
        }
      ],
      "name": "fib",
      "outputs": [
        {
          "internalType": "uint256",
          "name": "",
          "type": "uint256"
        }
      ],
      "stateMutability": "pure",
      "type": "function",
      "constant": true
    }
  ],
  "bytecode": "0x608060405234801561001057600080fd5b50610261806100206000396000f3fe608060405234801561001057600080fd5b506004361061002b5760003560e01c8063c6c2ea1714610030575b600080fd5b61004a600480360381019061004591906100e9565b610060565b6040516100579190610121565b60405180910390f35b6000808214806100705750600182145b1561007d578190506100cf565b600080600190506000600290505b848110156100bd57600083905082935083816100a7919061013c565b92505080806100b59061019c565b91505061008b565b5080826100ca919061013c565b925050505b919050565b6000813590506100e381610214565b92915050565b6000602082840312156100fb57600080fd5b6000610109848285016100d4565b91505092915050565b61011b81610192565b82525050565b60006020820190506101366000830184610112565b92915050565b600061014782610192565b915061015283610192565b9250827fffffffffffffffffffffffffffffffffffffffffffffffffffffffffffffffff03821115610187576101866101e5565b5b828201905092915050565b6000819050919050565b60006101a782610192565b91507fffffffffffffffffffffffffffffffffffffffffffffffffffffffffffffffff8214156101da576101d96101e5565b5b600182019050919050565b7f4e487b7100000000000000000000000000000000000000000000000000000000600052601160045260246000fd5b61021d81610192565b811461022857600080fd5b5056fea2646970667358221220eb3731b2bfb6626c223db42b1f9fafc840100937d0af3d44c8f87ea9b31490a464736f6c63430008000033",
  "immutableReferences": {},
  "source": "// SPDX-License-Identifier: MIT\npragma solidity ^0.8.0;\n\ncontract Fibonacci {\n    function fib(uint256 n) external pure returns (uint256) {\n        if (n == 0 || n == 1) return n;\n\n        uint256 n1 = 0;\n        uint256 n2 = 1;\n\n        for (uint256 i = 2; i < n; i++) {\n            uint256 n0 = n1;\n            n1 = n2;\n            n2 = n0 + n1;\n        }\n        return n1 + n2;\n    }\n}\n",
  "sourcePath": "/Users/tc/dev/ethereum_playground/dapp-30/day12-fibonacci/contracts/Fibonacci.sol",
  "compiler": {
    "name": "solc",
    "version": "0.8.0+commit.c7dfd78e.Emscripten.clang"
  },
  "schemaVersion": "3.3.4",
  "updatedAt": "2021-04-08T12:40:15.527Z",
  "networkType": "ethereum",
  "devdoc": {
    "kind": "dev",
    "methods": {},
    "version": 1
  },
  "userdoc": {
    "kind": "user",
    "methods": {},
    "version": 1
  }
}